:100000000C94FA000C940C010C940C010C949704C1
:100010000C94A3030C946A040C9410040C943D04F7
:100020000C9476030C9423030C940C010C944D0552
:100030000C940C010C9416050C940C010C940C01FE
:100040000C940C010C940C010C940C010C94E30323
:100050000C940C0197059A059D05A005A305A6051E
:10006000A905AC05303132333435363738394142A1
:100070004344454600000001000800400000010024
:10008000045475726E696E67206F6E206368616ECE
:100090006E656C204220746F6F2C20776974682025
:1000A0003735252520647574790D0A0053657474FD
:1000B000696E672064757479206379636C65207458
:1000C0006F20323525250D0A005475726E696E67F2
:1000D000206F6E2074696D657231206368616E6E89
:1000E000656C20412050574D206F75747075740DEC
:1000F0000A00496E697469616C697A696E67207477
:10010000696D65723120666F722050574D0D0A007F
:100110000D0A54657374206F662074696D657231C1
:100120002050574D206F75747075740D0A00446F20
:100130006E65210D0A004865726520636F6D6573F9
:10014000206120312F322D7365636F6E64206465EA
:100150006C61792E2E2E0D0A000D0A5465737420E1
:100160006F662074696D657250617573652829200A
:1001700066756E6374696F6E0D0A000D0A0A0A5780
:10018000656C636F6D6520746F2074686520746999
:100190006D6572206C696272617279207465737426
:1001A0002070726F6772616D210D0A006C453D25EC
:1001B000640A0A0064433D25640A0A006D543D2523
:1001C000642C307825780A00774D3D25640A004D6F
:1001D00061696E20626F6172642068657265210AD0
:1001E00000C0F9A4B0999282F880908883C6A18655
:1001F0008EFFFEF711241FBECFE5D4E0DEBFCDBFDA
:1002000021E0A0E6B0E001C01D92A335B207E1F7FE
:100210000E9404080C94C5090C940000FC018FB7DF
:10022000F894718360835383428317821682158208
:1002300014828FBF0895FC019FB7F89444815581C3
:1002400041155105C9F026813781A081B181A20FE6
:10025000B31F8C912F5F3F4F378326836281738159
:100260002617370720F0261B370B3783268341508C
:1002700051095583448301C080E09FBF0895FC016C
:10028000362F2FB7F894A481B58162817381A617A8
:10029000B70798F4868197818A0F9B1F0E946F0988
:1002A000A081B181A80FB91F3C93848195810196EB
:1002B000958384832FBF8FEF08952FBF80E008952B
:1002C00090936100809360000895CF93C82F8A3087
:1002D00031F4E0916000F09161008DE00995E091CA
:1002E0006000F09161008C2FCF9109948F70E82FFE
:1002F000F0E0EC59FF4F84910C9465015F926F928E
:100300007F928F929F92AF92BF92CF92DF92EF92A5
:10031000FF920F931F93CF93DF931F92CDB7DEB75A
:10032000EC89FD893E0126E1620E711C3AE0A32EA4
:10033000B12C3B89332381F08F010F5F1F4F8491D4
:10034000853289F0882309F466C00E946501630143
:1003500078013601F701EDCF8081853259F08F01A8
:100360000F5F1F4FEFCF7F0182E0E80EF11CF80115
:10037000849105C07F0122E0E20EF11C8181843668
:10038000A1F0883761F0833631F4F3018081930165
:100390002E5F3F4F39010E9465016301DACF20E1F2
:1003A000822E912C00E010E105C09AE0892E912C5C
:1003B00000E117E2630132E0C30ED11CF30160805B
:1003C00071808436A1F477FE0FC071946194710836
:1003D0008DE20E94650108C0C801B5010E946F0945
:1003E0008B016230710518F060167106A8F3C30125
:1003F000B8010E946F09582E862F99830E947601BA
:10040000652C9981792EC801B4010E946F098B0176
:10041000672B69F79ECF80E090E00F90DF91CF913E
:100420001F910F91FF90EF90DF90CF90BF90AF9012
:100430009F908F907F906F905F90089593B7987F73
:10044000892B83BF089582E00E941E0212BE89B7E5
:10045000816089BF1092F6001092F7001092F800A8
:100460001092F90008959EB5987F892B8EBD08954E
:1004700083E00E9433021DBC1CBC89B7846089BF25
:10048000089595B5987F892B85BD089584E00E94D5
:10049000410214BC89B7806489BF1092FE0010929B
:1004A000FF0010920001109201010895E3B7E77078
:1004B000F0E0EE0FFF1FEB58FF4F859194910895E8
:1004C000883040F4E82FF0E0EE0FFF1FEE59FF4FA9
:1004D000118210820895CF93C0E08C2F0E94600299
:1004E000CF5FC830D1F70E9423020E9438020E94D9
:1004F00046027894CF910895CF92DF92EF92FF92C7
:100500000F931F93CF93DF93EC0112B71092FA0071
:100510001092FB001092FC001092FD000E94560207
:100520009C0140E050E060E070E081EE90E00E94CD
:1005300083096E01E12CF12C293B8DE8380786E018
:1005400048075105B0F4C131D74298F4C701B6014C
:100550000E945F0928EE33E040E050E00E948309EA
:10056000DA01C901810F911DA11DB11D8C019D01F1
:100570000FC0CA01B90128EE33E040E050E00E940C
:100580008309C701B6010E945F099B01AC01E8CF56
:100590008091FA009091FB00A091FC00B091FD00C9
:1005A00062B7BA2FA92F982F8827862B801791071B
:1005B000A207B30798F48091FA009091FB00A091F4
:1005C000FC00B091FD0085B78F7485BF85B780644E
:1005D00085BF889585B78F7B85BFDACFDF91CF91B7
:1005E0001F910F91FF90EF90DF90CF900895893089
:1005F00031F48FB582608FBD8FB58E7F0AC08A308F
:1006000019F48FB5826002C08FB58D7F8FBD8FB515
:1006100081608FBD1BBC1ABC19BC18BC08958FB576
:1006200080688FBD8FB58F7B8FBD08958FB5806239
:100630008FBD8FB58F7E8FBD08959BBD8ABD0895F8
:1006400099BD88BD08951F920F920FB60F92112485
:100650002F933F934F935F936F937F938F939F93CA
:10066000AF93BF93EF93FF938091F6009091F700C3
:10067000A091F800B091F9000196A11DB11D8093E1
:10068000F6009093F700A093F800B093F9008091E2
:10069000FA009091FB00A091FC00B091FD00019642
:1006A000A11DB11D8093FA009093FB00A093FC0064
:1006B000B093FD008091620090916300892B29F036
:1006C000E0916200F09163000995FF91EF91BF9175
:1006D000AF919F918F917F916F915F914F913F91DA
:1006E0002F910F900FBE0F901F9018951F920F9291
:1006F0000FB60F9211242F933F934F935F936F93F5
:100700007F938F939F93AF93BF93EF93FF938091CA
:10071000640090916500892B29F0E0916400F091CC
:1007200065000995FF91EF91BF91AF919F918F91D6
:100730007F916F915F914F913F912F910F900FBEDD
:100740000F901F9018951F920F920FB60F921124C1
:100750002F933F934F935F936F937F938F939F93C9
:10076000AF93BF93EF93FF938091FE009091FF00B2
:10077000A0910001B09101010196A11DB11D8093CE
:10078000FE009093FF00A0930001B09301018091BF
:100790006C0090916D00892B29F0E0916C00F09134
:1007A0006D000995FF91EF91BF91AF919F918F914E
:1007B0007F916F915F914F913F912F910F900FBE5D
:1007C0000F901F9018951F920F920FB60F92112441
:1007D0002F933F934F935F936F937F938F939F9349
:1007E000AF93BF93EF93FF9380917000909171004E
:1007F000892B29F0E0917000F09171000995FF912B
:10080000EF91BF91AF919F918F917F916F915F9188
:100810004F913F912F910F900FBE0F901F90189501
:100820001F920F920FB60F9211242F933F934F9365
:100830005F936F937F938F939F93AF93BF93EF9348
:10084000FF938091660090916700892B29F0E091D9
:100850006600F09167000995FF91EF91BF91AF910C
:100860009F918F917F916F915F914F913F912F91C8
:100870000F900FBE0F901F9018951F920F920FB6FA
:100880000F9211242F933F934F935F936F937F9316
:100890008F939F93AF93BF93EF93FF9380916800E3
:1008A00090916900892B29F0E0916800F09169002E
:1008B0000995FF91EF91BF91AF919F918F917F919A
:1008C0006F915F914F913F912F910F900FBE0F90BD
:1008D0001F9018951F920F920FB60F9211242F930D
:1008E0003F934F935F936F937F938F939F93AF93B8
:1008F000BF93EF93FF9380916A0090916B00892BD7
:1009000029F0E0916A00F0916B000995FF91EF9159
:10091000BF91AF919F918F917F916F915F914F9117
:100920003F912F910F900FBE0F901F9018951F921F
:100930000F920FB60F9211242F933F934F935F9313
:100940006F937F938F939F93AF93BF93EF93FF9397
:1009500080916E0090916F00892B29F0E0916E00DC
:10096000F0916F000995FF91EF91BF91AF919F9129
:100970008F917F916F915F914F913F912F910F9048
:100980000FBE0F901F90189540E450E064EB70E0AC
:1009900083E091E00E940E0140E450E064E770E0E3
:1009A0008CE091E00C940E010E94C404109273003C
:1009B0001092720088ED8AB98FE589B910BC8FEF6B
:1009C0008093020110920B011092150110921401F4
:1009D000789408950F931F938B019C01DC01CB0148
:1009E000905EA34EBF4FBC01CD0143E0660F771F61
:1009F000881F991F4A95D1F7A9019801E4E0220FB9
:100A0000331F441F551FEA95D1F70E9483092150D7
:100A1000310929B930BD1F910F91089590910201BC
:100A20009923E1F38CB91092020108951F920F925D
:100A30000FB60F9211242F933F934F935F936F93B1
:100A40007F938F939F93AF93BF93EF93FF93809187
:100A50000B01882371F08091100190911101892B75
:100A600031F08CE091E00E941B018CB905C010921E
:100A70000B018FEF80930201FF91EF91BF91AF9136
:100A80009F918F917F916F915F914F913F912F91A6
:100A90000F900FBE0F901F9018951F920F920FB6D8
:100AA0000F9211242F933F934F935F936F937F93F4
:100AB0008F939F93AF93BF93EF93FF938CB120914C
:100AC000720030917300232B31F0E0917200F091AD
:100AD0007300099510C0682F83E091E00E943F01E8
:100AE000811109C080911401909115010196909394
:100AF000150180931401FF91EF91BF91AF919F91E8
:100B00008F917F916F915F914F913F912F910F90B6
:100B10000FBE0F901F90189590E08830910500F55A
:100B2000FC01E65DFF4F40E060E00C94A50980E029
:100B300090E014C081E090E011C082E090E00EC02F
:100B400083E090E00BC084E090E008C085E090E096
:100B500005C086E090E002C087E090E00C945C085D
:100B600008950E940B090E94AC070E94FC08E6E170
:100B7000F1E0148615861686178680EE91E0938B39
:100B8000828B148A158A8FEC91E09F938F9381E07A
:100B90008F930E947E010F900F900F900895CF9336
:100BA0008091F4009091F50001969093F500809368
:100BB000F400809125018F5F8D3318F48093250117
:100BC00002C010922501809128019091290101977E
:100BD0008E3F2FEF920720F49093290180932801F4
:100BE000C0912201C13009F44EC018F0C23081F129
:100BF000EFC080912801909129019C012150310979
:100C00002E3F3F4F78F56BE370E00E946F09892B10
:100C100039F480912A018F5F80932A010E948C050C
:100C20000E949E07882309F4D3C00E945409CC97E0
:100C300009F0CEC080EE91E09093290180932801C5
:100C40001092220184E08093240110922A01C0C0F6
:100C500080912801909129019C01215031092E3F5A
:100C60003F4FC0F1892B09F0B3C08FEF9FEF9093F6
:100C700029018093280181E08093220110922401B0
:100C800080932A01A5C00E945909882399F00E94E7
:100C9000A207882361F084EB90E090932901809370
:100CA000280182E080932201C093240191C00E9418
:100CB0009A078EC00E945C09882339F00E94A7071A
:100CC00081115FC00E949E0783C080912A010E940B
:100CD0008C057EC00E9459098823B1F10E94A207A9
:100CE0008823B1F080912A01815009F487E0809334
:100CF0002A0180912A010E948C0584EB90E0909358
:100D000029018093280182E08093220181E05EC066
:100D10000E949A07882309F45BC080911801909182
:100D200019010197909319018093180141E060E047
:100D30000E945C0884EB90E0909329018093280145
:100D4000C093220183E042C00E945C09882309F419
:100D50003FC00E94A7078823F1F00E9454096AE06F
:100D600070E00E946F09892BB1F480912A018F5F96
:100D7000883008F081E080932A0180912A010E9446
:100D80008C0584EB90E0909329018093280182E008
:100D9000809322011BC00E949E078823C9F0809186
:100DA00018019091190101969093190180931801EF
:100DB00042E060E00E945C0884EB90E0909329019F
:100DC0008093280182E08093220184E080932401B3
:100DD000809122011F928F9388EC91E09F938F93D3
:100DE000C1E0CF930E947E0180912801909129015A
:100DF0009F938F939F938F938CEB91E09F938F930F
:100E0000CF930E947E0180912A011F928F9384EBE1
:100E100091E09F938F93CF930E947E018091240154
:100E20001F928F938CEA91E09F938F93CF930E94B0
:100E30007E018DB79EB746960FB6F8949EBF0FBE43
:100E40008DBFCF910895CF938BE791E09F938F93C0
:100E5000C1E0CF930E947E010E946B0289E591E080
:100E60009F938F93CF930E947E0186E391E09F939F
:100E70008F93CF930E947E0184EF91E00E947C02C9
:100E80008EE291E09F938F93CF930E947E0180E149
:100E900091E09F938F93CF930E947E018C9A8D9ABD
:100EA00082EF90E09F938F93CF930E947E0188E022
:100EB0000E94F70289EC90E09F938F93CF930E945A
:100EC0007E010E940F038CEA90E09F938F93CF9353
:100ED0000E947E018EEF90E00E941D0381E890E069
:100EE0009F938F93CF930E947E010E9416038DB72C
:100EF0009EB74B960FB6F8949EBF0FBE8DBF81E094
:100F000090E0CF910C9420030E94D40460E875E235
:100F100080E090E00E94EA048EE095E00E9460018B
:100F20000C94230784B3837084BB089583B38095A6
:100F30008370089580914D018170089580914E01D4
:100F40008170089580914D018695817008958091FA
:100F50004E0186958170089587B3897F87BB87B3DB
:100F6000866087BB88B3866088BBE1E4F1E080815E
:100F7000887F8460886080839CE39183A3E4B1E0F0
:100F80008C91887F846088608C9393830895A2E419
:100F9000B1E040E050E0CA01880F991FFC01EF5B0F
:100FA000FE4F308137702C91343019F0230F2D33E0
:100FB00038F0FC01EF5BFE4F20812860208320E0A9
:100FC0002C93332311F02F3130F0FC01EF5BFE4FF7
:100FD0008081877F808312964130510519F041E06E
:100FE00050E0D9CF8091410183FF02C082E001C06F
:100FF00080E09091430193FD846098B3997F98BB02
:1010000098B3892B88BB08950E9484070E94B1057C
:1010100081E090EF0197F1F70E940D090E94CF0542
:101020000E94C7070E941508F3CF0F931F934091AA
:101030004701509148016091490170914A0180E255
:101040008A019B01440F551F661F771FAF98AE980A
:1010500037FDAE9AAF9A815099F7909145019770FC
:1010600080914601943019F0890F8D3330F08091D2
:1010700045018F7D8093450180E08093460199234F
:1010800011F08F3128F080914501806280934501F5
:101090008091450185FD02C0AC9803C0887119F4A8
:1010A000AC9AAD9806C0883011F4AC9801C0AC9AE7
:1010B000AD9A1F910F9108950F931F93CF93DF93D4
:1010C0008C01362F68EE73E00E946F09C62F64E62C
:1010D00070E00E946F09D62F6AE070E00E946F09ED
:1010E000562F377060914501607E4370942F990FA1
:1010F000990F990F462F432B492B40934501E1EF60
:10110000F1E0949190934A019491909349019491C4
:1011100090934801E491282F30E0093E83E01807BE
:1011200078F0EC2FF0E0EF51FE4F849180934A016C
:10113000ED2FF0E0EF51FE4FE491E09349010EC036
:101140000536110540F0ED2FF0E0EF51FE4F849190
:101150008093490103C00B30110538F0E52FF0E012
:10116000EF51FE4FE491E0934801F901EF51FE4F3A
:10117000E491E0934701DF91CF911F910F91089582
:10118000392F32953F70292F2F70FC0194E0F6958E
:10119000E7959A95E1F79E2F9F708F70A5E4B1E0D7
:1011A00067707C91707E4370542F550F550F550F0B
:1011B000472F462B452B4C93E32FF0E0EF51FE4F8A
:1011C000349115963C931597E22FF0E0EF51FE4FC6
:1011D000249114962C931497E92FF0E0EF51FE4FD1
:1011E000E4911396EC931397E82FF0E0EF51FE4F44
:1011F000E4911296EC93089584B38F7084BB84B30A
:10120000806F84BB85B38F7085BB40E064E080E075
:1012100090E00C94C0080C9492070E94960790915D
:101220004B01892B10924B0190914C01209151015F
:101230003091520140914D01442319F040934F01E8
:1012400005C02D33310510F010924F0110924D0161
:101250001092500189130FC02F5F3F4F2432310588
:1012600018F410924E0102C080934E013093520147
:1012700020935101089580934C018095892390918A
:101280004E01982381F41092520110925101235083
:1012900031092032310538F480934D0190914F018E
:1012A00089238093500108958091510190915201BA
:1012B000089580914D01089580914E010895DB01BC
:1012C0008F939F930E94AB09BF91AF91A29F800D16
:1012D000911DA39F900DB29F900D11240895AA1BFC
:1012E000BB1B51E107C0AA1FBB1FA617B70710F011
:1012F000A61BB70B881F991F5A95A9F78095909543
:10130000BC01CD010895A1E21A2EAA1BBB1BFD0151
:101310000DC0AA1FBB1FEE1FFF1FA217B307E407D4
:10132000F50720F0A21BB30BE40BF50B661F771F2C
:10133000881F991F1A9469F760957095809590950C
:101340009B01AC01BD01CF010895EE0FFF1F059079
:10135000F491E02D09940E94B609A59F900DB49FC9
:10136000900DA49F800D911D11240895A29FB0019E
:10137000B39FC001A39F700D811D1124911DB29FC9
:0E138000700D811D1124911D0895F894FFCF6A
:00000001FF
