:100000000C949F000C94B1000C94B1000C949903D3
:100010000C94A5020C946C030C9412030C943F03F3
:100020000C9478020C9425020C94B1000C944F04AB
:100030000C94B1000C9418040C94B1000C94B10011
:100040000C94B1000C94B1000C94B1000C94E50236
:100050000C94B100A204A504A804AB04AE04B1043E
:10006000B404B7043031323334353637383941428D
:1000700043444546000D0A54657374206F6620742E
:10008000696D6572312050574D206F7574707574AD
:100090000D0A00446F6E65210D0A004865726520E7
:1000A000636F6D6573206120312F322D7365636F2F
:1000B0006E642064656C61792E2E2E0D0A000D0A87
:1000C00054657374206F662074696D657250617534
:1000D000736528292066756E6374696F6E0D0A005A
:1000E0000D0A0A0A57656C636F6D6520746F207482
:1000F00068652074696D6572206C696272617279DD
:1001000020746573742070726F6772616D210D0ABF
:100110000064433D25640A0A004D61696E20626FE8
:100120006172642068657265210A00C0F9A4B09903
:100130009282F880908883C6A1868EFFFEF71124F4
:100140001FBECFE5D4E0DEBFCDBF21E0A0E6B0E02A
:1001500001C01D92A535B207E1F70E94CB060C94B1
:1001600060080C940000FC018FB7F89471836083E1
:100170005383428317821682158214828FBF08959B
:10018000FC019FB7F8944481558141155105C9F090
:1001900026813781A081B181A20FB31F8C912F5F7F
:1001A0003F4F37832683628173812617370720F0FC
:1001B000261B370B378326834150510955834483CF
:1001C00001C080E09FBF0895FC01362F2FB7F8943F
:1001D000A481B58162817381A617B70798F48681DF
:1001E00097818A0F9B1F0E942408A081B181A80FCC
:1001F000B91F3C93848195810196958384832FBF99
:100200008FEF08952FBF80E0089590936100809351
:1002100060000895CF93C82F8A3031F4E0916000D8
:10022000F09161008DE00995E0916000F09161002E
:100230008C2FCF9109948F70E82FF0E0EC59FF4F8D
:1002400084910C940A015F926F927F928F929F9299
:10025000AF92BF92CF92DF92EF92FF920F931F93D4
:10026000CF93DF931F92CDB7DEB7EC89FD893E01B6
:1002700026E1620E711C3AE0A32EB12C3B89332398
:1002800081F08F010F5F1F4F8491853289F08823A1
:1002900009F466C00E940A01630178013601F70182
:1002A000EDCF8081853259F08F010F5F1F4FEFCF67
:1002B0007F0182E0E80EF11CF801849105C07F0106
:1002C00022E0E20EF11C81818436A1F0883761F0D2
:1002D000833631F4F301808193012E5F3F4F390162
:1002E0000E940A016301DACF20E1822E912C00E006
:1002F00010E105C09AE0892E912C00E117E263011C
:1003000032E0C30ED11CF301608071808436A1F409
:1003100077FE0FC07194619471088DE20E940A010A
:1003200008C0C801B5010E9424088B016230710524
:1003300018F060167106A8F3C301B8010E942408E2
:10034000582E862F99830E941B01652C9981792E46
:10035000C801B4010E9424088B01672B69F79ECF66
:1003600080E090E00F90DF91CF911F910F91FF906F
:10037000EF90DF90CF90BF90AF909F908F907F9045
:100380006F905F90089593B7987F892B83BF0895EE
:1003900085E00E94C30112BE89B7816089BF89B719
:1003A000826089BF1092F6001092F7001092F80058
:1003B0001092F90008959EB5987F892B8EBD0895FF
:1003C00082E00E94DB011DBC1CBC89B7846089BF30
:1003D000089595B5987F892B85BD089584E00E9486
:1003E000E90114BC89B7806489BF1092FE001092A5
:1003F000FF0010920001109201010895883040F42E
:10040000E82FF0E0EE0FFF1FEE59FF4F718360837E
:100410000895883040F4E82FF0E0EE0FFF1FEE590A
:10042000FF4F118210820895CF93C0E08C2F0E945D
:100430000902CF5FC830D1F70E94C8010E94E001D5
:100440000E94EE017894CF9108951F920F920FB6FB
:100450000F9211242F933F934F935F936F937F934A
:100460008F939F93AF93BF93EF93FF938091F60089
:100470009091F700A091F800B091F9000196A11DAC
:10048000B11D8093F6009093F700A093F800B0930D
:10049000F9008091FA009091FB00A091FC00B091CE
:1004A000FD000196A11DB11D8093FA009093FB0001
:1004B000A093FC00B093FD008091620090916300D6
:1004C000892B29F0E0916200F09163000995FF917A
:1004D000EF91BF91AF919F918F917F916F915F91BC
:1004E0004F913F912F910F900FBE0F901F90189535
:1004F0001F920F920FB60F9211242F933F934F9399
:100500005F936F937F938F939F93AF93BF93EF937B
:10051000FF938091640090916500892B29F0E09110
:100520006400F09165000995FF91EF91BF91AF9143
:100530009F918F917F916F915F914F913F912F91FB
:100540000F900FBE0F901F9018951F920F920FB62D
:100550000F9211242F933F934F935F936F937F9349
:100560008F939F93AF93BF93EF93FF938091FE0080
:100570009091FF00A0910001B09101010196A11D91
:10058000B11D8093FE009093FF00A0930001B093F3
:10059000010180916C0090916D00892B29F0E09110
:1005A0006C00F0916D000995FF91EF91BF91AF91B3
:1005B0009F918F917F916F915F914F913F912F917B
:1005C0000F900FBE0F901F9018951F920F920FB6AD
:1005D0000F9211242F933F934F935F936F937F93C9
:1005E0008F939F93AF93BF93EF93FF93809170008E
:1005F00090917100892B29F0E0917000F0917100C9
:100600000995FF91EF91BF91AF919F918F917F914C
:100610006F915F914F913F912F910F900FBE0F906F
:100620001F9018951F920F920FB60F9211242F93BF
:100630003F934F935F936F937F938F939F93AF936A
:10064000BF93EF93FF938091660090916700892B91
:1006500029F0E0916600F09167000995FF91EF9114
:10066000BF91AF919F918F917F916F915F914F91CA
:100670003F912F910F900FBE0F901F9018951F92D2
:100680000F920FB60F9211242F933F934F935F93C6
:100690006F937F938F939F93AF93BF93EF93FF934A
:1006A0008091680090916900892B29F0E0916800A1
:1006B000F09169000995FF91EF91BF91AF919F91E2
:1006C0008F917F916F915F914F913F912F910F90FB
:1006D0000FBE0F901F9018951F920F920FB60F929A
:1006E00011242F933F934F935F936F937F938F9337
:1006F0009F93AF93BF93EF93FF9380916A00909184
:100700006B00892B29F0E0916A00F0916B0009954C
:10071000FF91EF91BF91AF919F918F917F916F91D9
:100720005F914F913F912F910F900FBE0F901F90AF
:1007300018951F920F920FB60F9211242F933F938B
:100740004F935F936F937F938F939F93AF93BF93D9
:10075000EF93FF9380916E0090916F00892B29F0A9
:10076000E0916E00F0916F000995FF91EF91BF91BC
:10077000AF919F918F917F916F915F914F913F9139
:100780002F910F900FBE0F901F90189540E450E0EE
:1007900064EB70E083E091E00E94B30040E450E03D
:1007A00064E770E08CE091E00C94B3000E94C60313
:1007B000109273001092720088ED8AB98FE589B9A2
:1007C00010BC8FEF8093020110920B011092150163
:1007D00010921401789408950F931F938B019C013C
:1007E000DC01CB01905EA34EBF4FBC01CD0143E0C5
:1007F000660F771F881F991F4A95D1F7A9019801A5
:10080000E4E0220F331F441F551FEA95D1F70E94E1
:1008100038082150310929B930BD1F910F91089531
:10082000909102019923E1F38CB91092020108958D
:100830001F920F920FB60F9211242F933F934F9355
:100840005F936F937F938F939F93AF93BF93EF9338
:10085000FF9380910B01882371F08091100190919A
:100860001101892B31F08CE091E00E94C0008CB91D
:1008700005C010920B018FEF80930201FF91EF9161
:10088000BF91AF919F918F917F916F915F914F91A8
:100890003F912F910F900FBE0F901F9018951F92B0
:1008A0000F920FB60F9211242F933F934F935F93A4
:1008B0006F937F938F939F93AF93BF93EF93FF9328
:1008C0008CB12091720030917300232B31F0E091B4
:1008D0007200F0917300099510C0682F83E091E0D9
:1008E0000E94E400811109C08091140190911501CA
:1008F00001969093150180931401FF91EF91BF91A0
:10090000AF919F918F917F916F915F914F913F91A7
:100910002F910F900FBE0F901F90189582B78051A6
:100920008CBFE6E1F1E0808181608083089590E0F2
:100930008830910500F5FC01E65DFF4F40E060E086
:100940000C945A0880E090E014C081E090E011C05F
:1009500082E090E00EC083E090E00BC084E090E085
:1009600008C085E090E005C086E090E002C087E026
:1009700090E00C94210708950E94D0070E9473060E
:100980000E94C107E6E1F1E0158616861786108AF7
:1009900080EE91E0948B838B158A168A89E191E031
:1009A0009F938F9381E08F930E9423010F900F906C
:1009B0000F906EE874E087E00C94FE01CF93809175
:1009C000F4009091F50001969093F5008093F40067
:1009D000809126018F5F8D3318F48093260102C029
:1009E000109226018091290190912A0101978E3F52
:1009F0002FEF920720F490932A0180932901C09150
:100A00002301C13009F44EC018F0C23081F1EFC0AB
:100A10008091290190912A019C01215031092E3F9A
:100A20003F4F78F56BE370E00E942408892B39F47E
:100A300080912B018F5F80932B010E9497040E946D
:100A40006506882309F4D3C00E941908CC9709F0E1
:100A5000CEC080EE91E090932A01809329011092FC
:100A6000230184E08093250110922B01C0C0809166
:100A7000290190912A019C01215031092E3F3F4FBD
:100A8000C0F1892B09F0B3C08FEF9FEF90932A013B
:100A90008093290181E080932301109225018093A6
:100AA0002B01A5C00E941E08882399F00E946906A8
:100AB000882361F084EB90E090932A0180932901D0
:100AC00082E080932301C093250191C00E946106BA
:100AD0008EC00E942108882339F00E946E06811181
:100AE0005FC00E94650683C080912B010E9497041D
:100AF0007EC00E941E088823B1F10E9469068823E7
:100B0000B1F080912B01815009F487E080932B0193
:100B100080912B010E94970484EB90E090932A012E
:100B20008093290182E08093230181E05EC00E94CE
:100B30006106882309F45BC08091190190911A0124
:100B4000019790931A018093190141E060E00E949F
:100B5000210784EB90E090932A0180932901C093B0
:100B6000230183E042C00E942108882309F43FC08A
:100B70000E946E068823F1F00E9419086AE070E076
:100B80000E942408892BB1F480912B018F5F88305B
:100B900008F081E080932B0180912B010E94970443
:100BA00084EB90E090932A018093290182E0809366
:100BB00023011BC00E9465068823C9F0809119019A
:100BC00090911A01019690931A018093190142E0C5
:100BD00060E00E94210784EB90E090932A018093CB
:100BE000290182E08093230184E080932501809194
:100BF0002B011F928F9381E191E09F938F9381E06E
:100C00008F930E9423010F900F900F900F900F90E1
:100C1000CF9108958091160180FFFCCF809116013D
:100C20008E7F8093160192B380E1892782BB08955D
:100C3000CF9380EE90E09F938F93C1E0CF930E947B
:100C400023010E9414028EEB90E09F938F93CF9329
:100C50000E9423018BE990E09F938F93CF930E9492
:100C6000230183E990E09F938F93CF930E94230108
:100C700085E790E09F938F93CF930E9423018C9AF6
:100C80008D9A8DB79EB70F960FB6F8949EBF0FBE84
:100C90008DBFCF9108950E94D60360E875E280E091
:100CA00090E00E94EC0380E194E00E9405010C9426
:100CB000180684B3837084BB089583B380958370D2
:100CC000089580914F018170089580915001817045
:100CD000089580914F01869581700895809150010B
:100CE00086958170089587B3897F87BB87B38660B7
:100CF00087BB88B3866088BBE3E4F1E08081887FAE
:100D00008460886080839CE39183A5E4B1E08C914A
:100D1000887F846088608C9393830895A4E4B1E015
:100D200040E050E0CA01880F991FFC01ED5BFE4FC7
:100D3000308137702C91343019F0230F2D3338F077
:100D4000FC01ED5BFE4F20812860208320E02C9386
:100D5000332311F02F3130F0FC01ED5BFE4F808129
:100D6000877F808312964130510519F041E050E0B1
:100D7000D9CF8091430183FF02C082E001C080E0AF
:100D80009091450193FD846098B3997F98BB98B387
:100D9000892B88BB08950E944B060E94BC040E94C8
:100DA0000A060E94D2070E94DE040E948E060E945C
:100DB000DA06F5CF0F931F934091490150914A01F4
:100DC00060914B0170914C0180E28A019B01440FBC
:100DD000551F661F771FAF98AE9837FDAE9AAF9A32
:100DE000815099F790914701977080914801943014
:100DF00019F0890F8D3330F0809147018F7D8093FA
:100E0000470180E080934801992311F08F3128F049
:100E1000809147018062809347018091470185FD61
:100E200002C0AC9803C0887119F4AC9AAD9806C0A2
:100E3000883011F4AC9801C0AC9AAD9A1F910F9113
:100E400008950F931F93CF93DF938C01362F68EE95
:100E500073E00E942408C62F64E670E00E94240814
:100E6000D62F6AE070E00E942408562F37706091F8
:100E70004701607E4370942F990F990F990F462F69
:100E8000432B492B40934701EBE3F1E0949190937E
:100E90004C01949190934B01949190934A01E49169
:100EA000282F30E0093E83E0180778F0EC2FF0E0BF
:100EB000E55DFE4F849180934C01ED2FF0E0E55D00
:100EC000FE4FE491E0934B010EC00536110540F052
:100ED000ED2FF0E0E55DFE4F849180934B0103C060
:100EE0000B30110538F0E52FF0E0E55DFE4FE491A1
:100EF000E0934A01F901E55DFE4FE491E093490179
:100F0000DF91CF911F910F910895392F32953F7046
:100F1000292F2F70FC0194E0F695E7959A95E1F75B
:100F20009E2F9F708F70A7E4B1E067707C91707EF8
:100F30004370542F550F550F550F472F462B452BF8
:100F40004C93E32FF0E0E55DFE4F349115963C9312
:100F50001597E22FF0E0E55DFE4F249114962C9357
:100F60001497E92FF0E0E55DFE4FE4911396EC93C2
:100F70001397E82FF0E0E55DFE4FE4911296EC93B5
:100F8000089584B38F7084BB84B3806F84BB85B3B2
:100F90008F7085BB40E064E080E090E00C948507B2
:100FA0000C9459060E945D0690914D01892B109278
:100FB0004D0190914E012091530130915401409187
:100FC0004F01442319F04093510105C02D333105E1
:100FD00010F01092510110924F011092520189139A
:100FE0000FC02F5F3F4F2432310518F4109250018B
:100FF00002C080935001309354012093530108950F
:1010000080934E018095892390915001982381F41B
:1010100010925401109253012350310920323105AE
:1010200038F480934F0190915101892380935201AC
:1010300008958091530190915401089580914F013A
:101040000895809150010895AA1BBB1B51E107C070
:10105000AA1FBB1FA617B70710F0A61BB70B881F48
:10106000991F5A95A9F780959095BC01CD010895D7
:10107000A1E21A2EAA1BBB1BFD010DC0AA1FBB1F9C
:10108000EE1FFF1FA217B307E407F50720F0A21B0E
:10109000B30BE40BF50B661F771F881F991F1A947B
:1010A00069F760957095809590959B01AC01BD01A5
:1010B000CF010895EE0FFF1F0590F491E02D0994E4
:0410C000F894FFCFD2
:00000001FF
