S01B00004C6576656C4D657465724D61696E626F6172642E7372656387
S11300000C9465000C9477000C9477000C947700A2
S11300100C9477000C9477000C9477000C94770080
S11300200C9477000C9477000C9477000C941202D3
S11300300C9477000C94DB010C9477000C947700FB
S11300400C9477000C9477000C9477000C94770050
S11300500C947700F602F902FC02FF020203050386
S113006008030B03303132333435363738394142E3
S113007043444546004E4A32480A0A004E4A325228
S11300800A0A00504A31480A0A0064433D25640ABA
S11300900A006D543D25642C307825780A00774D8C
S11300A03D25640A004D61696E20626F61726420AF
S11300B068657265210A00C0F9A4B0999282F8803B
S11300C0908883C6A1868EFFFEF711241FBECFE55C
S11300D0D4E0DEBFCDBF21E0A0E6B0E001C01D92B8
S11300E0A733B207E1F70E9401040C9498050C941D
S11300F00000FC018FB7F8947183608353834283BB
S113010017821682158214828FBF0895FC019FB74F
S1130110F8944481558141155105C9F026813781F0
S1130120A081B181A20FB31F8C912F5F3F4F378302
S11301302683628173812617370720F0261B370B2D
S113014037832683415051095583448301C080E09D
S11301509FBF0895FC01362F2FB7F894A481B58171
S113016062817381A617B70798F4868197818A0FF5
S11301709B1F0E945C05A081B181A80FB91F3C930D
S1130180848195810196958384832FBF8FEF089591
S11301902FBF80E0089590936100809360000895DC
S11301A0CF93C82F8A3031F4E0916000F091610060
S11301B08DE00995E0916000F09161008C2FCF9162
S11301C009948F70E82FF0E0EC59FF4F84910C9460
S11301D0D0005F926F927F928F929F92AF92BF9264
S11301E0CF92DF92EF92FF920F931F93CF93DF93FF
S11301F01F92CDB7DEB7EC89FD893E0126E1620E80
S1130200711C3AE0A32EB12C3B89332381F08F017A
S11302100F5F1F4F8491853289F0882309F466C0EB
S11302200E94D000630178013601F701EDCF80818F
S1130230853259F08F010F5F1F4FEFCF7F0182E0AE
S1130240E80EF11CF801849105C07F0122E0E20E62
S1130250F11C81818436A1F0883761F0833631F452
S1130260F301808193012E5F3F4F39010E94D0003A
S11302706301DACF20E1822E912C00E010E105C069
S11302809AE0892E912C00E117E2630132E0C30E5B
S1130290D11CF301608071808436A1F477FE0FC015
S11302A07194619471088DE20E94D00008C0C80165
S11302B0B5010E945C058B016230710518F060166F
S11302C07106A8F3C301B8010E945C05582E862F5D
S11302D099830E94E100652C9981792EC801B401AB
S11302E00E945C058B01672B69F79ECF80E090E04C
S11302F00F90DF91CF911F910F91FF90EF90DF90BE
S1130300CF90BF90AF909F908F907F906F905F90B1
S1130310089540E450E064EA70E087EE90E00E94C3
S1130320790040E450E064E670E080EF90E00C94E3
S113033079000E948901109263001092620088ED96
S11303408AB98FE589B910BC8FEF8093E6001092CB
S1130350EF001092F9001092F800789408950F932A
S11303601F938B019C01DC01CB01905EA34EBF4F18
S1130370BC01CD0143E0660F771F881F991F4A9582
S1130380D1F7A9019801E4E0220F331F441F551F40
S1130390EA95D1F70E9470052150310929B930BD81
S11303A01F910F9108959091E6009923E1F38CB980
S11303B01092E60008951F920F920FB60F92112427
S11303C02F933F934F935F936F937F938F939F9359
S11303D0AF93BF93EF93FF938091EF00882371F065
S11303E08091F4009091F500892B31F080EF90E03A
S11303F00E9486008CB905C01092EF008FEF8093A5
S1130400E600FF91EF91BF91AF919F918F917F9102
S11304106F915F914F913F912F910F900FBE0F906D
S11304201F9018951F920F920FB60F9211242F93BD
S11304303F934F935F936F937F938F939F93AF9368
S1130440BF93EF93FF938CB12091620030916300CE
S1130450232B31F0E0916200F0916300099510C004
S1130460682F87EE90E00E94AA00811109C0809154
S1130470F8009091F90001969093F9008093F800A8
S1130480FF91EF91BF91AF919F918F917F916F9168
S11304905F914F913F912F910F900FBE0F901F903E
S11304A018950E94990160E875E280E090E00E944E
S11304B0AF0183ED91E00C94CB000E9408050E94EB
S11304C0A9030E94F904EAEFF0E014861586168663
S11304D0178680EC93E0938B828B148A158A85EAC5
S11304E090E09F938F9381E08F930E94E9000F9097
S11304F00F900F900895CF938091E4009091E500C0
S113050001969093E5008093E400809109018F5F48
S11305108D3318F48093090102C01092090180916F
S11305200C0190910D0101978E3F2FEF920720F45B
S113053090930D0180930C01C0910601C13009F420
S11305409EC040F0C23009F0E8C080910C01909147
S11305500D0184C080910C0190910D019C012150EA
S113056031092E3F3F4F08F079C067E770E00E94E1
S11305705C05892B09F058C01F921F928EE990E008
S11305809F938F93C1E0CF930E94E90080910C0167
S113059090910D019F938F939F938F9382E990E0A5
S11305A09F938F93CF930E94E90080910E011F9235
S11305B08F938AE890E09F938F93CF930E94E900F2
S11305C08DB79EB741960FB6F8949EBF0FBE8DBFF0
S11305D0E0910E018E2F90E08830910500F5FC012A
S11305E0E65DFF4F40E060E00C94920580E090E00F
S11305F014C081E090E011C082E090E00EC083E07E
S113060090E00BC084E090E008C085E090E005C075
S113061086E090E002C087E090E00E945904809157
S11306200E018F5F80930E010E949B03882309F4BF
S113063074C00E945105CC9709F06FC080EC93E020
S113064090930D0180930C011092060184E0809335
S1130650080110920E0183E890E056C0892B09F03E
S11306605CC08FEF9FEF90930D0180930C0181E0AC
S1130670809306011092080180930E014EC00E94DF
S113068056058823F9F00E949F038823C1F08091C6
S11306900E01815009F487E080930E0184EB90E011
S11306A090930D0180930C0182E08093060181E018
S11306B0809308012CE730E03F932F9328C0CF911B
S11306C00C9497030E945905882339F10E94A403CE
S11306D08823B1F080910E018F5F883018F48093E5
S11306E00E0102C0C0930E0184EB90E090930D01C3
S11306F080930C0182E0809306018093080102C07C
S11307000E949B0385E790E09F938F9381E08F93F2
S11307100E94E9000F900F900F90CF91089584B339
S1130720837084BB089583B380958370089580910A
S11307303101817008958091320181700895809112
S1130740310186958170089580913201869581707A
S1130750089587B3897F87BB87B3866087BB88B3D7
S1130760866088BBE5E2F1E08081887F84608860F0
S113077080839CE39183A7E2B1E08C91887F8460BD
S113078088608C9393830895A6E2B1E040E050E042
S1130790CA01880F991FFC01EB5DFE4F3081377051
S11307A02C91343019F0230F2D3338F0FC01EB5D1C
S11307B0FE4F20812860208320E02C93332311F006
S11307C02F3130F0FC01EB5DFE4F8081877F808309
S11307D012964130510519F041E050E0D9CF809193
S11307E0250183FF02C082E001C080E090912701CF
S11307F093FD846098B3997F98BB98B3892B88BB89
S113080008950E9451020E945D0281E090EF0197D9
S1130810F1F70E940A050E947B020E94C4030E9411
S11308201204F3CF0F931F9340912B0150912C018D
S113083060912D0170912E0180E28A019B01440F89
S1130840551F661F771FAF98AE9837FDAE9AAF9AC3
S1130850815099F790912901977080912A019430E1
S113086019F0890F8D3330F0809129018F7D8093A9
S1130870290180E080932A01992311F08F3128F017
S1130880809129018062809329018091290185FD4D
S113089002C0AC9803C0887119F4AC9AAD9806C034
S11308A0883011F4AC9801C0AC9AAD9A1F910F91A5
S11308B008950F931F93CF93DF938C01362F68EE27
S11308C073E00E945C05C62F64E670E00E945C053C
S11308D0D62F6AE070E00E945C05562F3770609155
S11308E02901607E4370942F990F990F990F462F19
S11308F0432B492B40932901E7ECF0E0949190932A
S11309002E01949190932D01949190932C01E49154
S1130910282F30E0093E83E0180778F0EC2FF0E050
S1130920E954FF4F849180932E01ED2FF0E0E954B8
S1130930FF4FE491E0932D010EC00536110540F000
S1130940ED2FF0E0E954FF4F849180932D0103C013
S11309500B30110538F0E52FF0E0E954FF4FE49136
S1130960E0932C01F901E954FF4FE491E0932B014A
S1130970DF91CF911F910F910895392F32953F70D8
S1130980292F2F70FC0194E0F695E7959A95E1F7ED
S11309909E2F9F708F70A9E2B1E067707C91707E8A
S11309A04370542F550F550F550F472F462B452B8A
S11309B04C93E32FF0E0E954FF4F349115963C93A8
S11309C01597E22FF0E0E954FF4F249114962C93ED
S11309D01497E92FF0E0E954FF4FE4911396EC9358
S11309E01397E82FF0E0E954FF4FE4911296EC934B
S11309F0089584B38F7084BB84B3806F84BB85B344
S1130A008F7085BB40E064E080E090E00C94BD040E
S1130A100C948F030E94930390912F01892B1092C1
S1130A202F01909130012091350130913601409190
S1130A303101442319F04093330105C02D333105AE
S1130A4010F0109233011092310110923401891385
S1130A500FC02F5F3F4F2432310518F4109232013A
S1130A6002C08093320130933601209335010895FA
S1130A70809330018095892390913201982381F4E9
S1130A80109236011092350123503109203231057C
S1130A9038F4809331019091330189238093340198
S1130AA00895809135019091360108958091310126
S1130AB00895809132010895AA1BBB1B51E107C020
S1130AC0AA1FBB1FA617B70710F0A61BB70B881FDA
S1130AD0991F5A95A9F780959095BC01CD01089569
S1130AE0A1E21A2EAA1BBB1BFD010DC0AA1FBB1F2E
S1130AF0EE1FFF1FA217B307E407F50720F0A21BA0
S1130B00B30BE40BF50B661F771F881F991F1A940C
S1130B1069F760957095809590959B01AC01BD0136
S1130B20CF010895EE0FFF1F0590F491E02D099475
S1070B30F894FFCF63
S9030000FC
