:100000000C944E000C9460000C9460000C94600002
:100010000C9460000C9460000C9460000C946000E0
:100020000C9460000C9460000C9460000C944302EB
:100030000C9460000C9408020C9460000C94600016
:100040000C9460000C9460000C9460000C946000B0
:100050000C94600030313233343536373839414210
:100060004344454600547970653D25630A00482D98
:100070004A4D50310A00482D4A4D50320A004A4D2F
:1000800050310A004A4D50320A0052462072656DC6
:100090006F7465207374617274210A0011241FBE8D
:1000A000CFE5D4E0DEBFCDBF21E0A0E6B0E001C0E7
:1000B0001D92A030B207E1F70E9420030C94BE030A
:1000C0000C940000FC018FB7F89471836083538314
:1000D000428317821682158214828FBF0895FC0115
:1000E0009FB7F8944481558141155105C9F0268187
:1000F0003781A081B181A20FB31F8C912F5F3F4F39
:1001000037832683628173812617370720F0261BE9
:10011000370B37832683415051095583448301C0EF
:1001200080E09FBF0895CF93DF93FC01D62FCFB718
:10013000F89444815581628173814617570798F47A
:1001400086819781840F951F0E947903A081B181D8
:10015000A80FB91FDC9384819581019695838483D0
:10016000CFBF8FEF02C0CFBF80E0DF91CF91089566
:10017000FC014FB7F89482819381248135814FBF70
:10018000821B930B08959093610080936000089503
:10019000CF93C82F8A3031F4E0916000F091610074
:1001A0008DE00995E0916000F09161008C2F099538
:1001B000CF9108958F70E82FF0E0EC5AFF4F8491B3
:1001C0000E94C80008952F923F924F925F926F92C3
:1001D0007F928F929F92AF92BF92CF92DF92EF92D7
:1001E000FF920F931F93CF93DF93CDB7DEB77D8838
:1001F000CE88DF884E0128E1820E911C512C612CA3
:10020000412C06C0882309F48DC00E94C8006801F3
:10021000772041F086010F5F1F4FF60184918532F0
:1002200089F708C0F6018081853251F086010F5FA1
:100230001F4FE8CFF2E0CF0ED11CF801849106C029
:10024000F601818196012E5F3F4F6901843671F07E
:10025000883709F459C0833631F4F4018081940160
:100260002E5F3F4F49010E94C800D2CFF401E080C9
:10027000F18032E0830E911CFF2034F4F194E1947C
:10028000F1088DE20E94C80080E1E81687E2F806D6
:10029000D0F400E117E29801ADECBCEC0E94AF0392
:1002A0008C011695079516950795169507950230BA
:1002B000110588F0E016F10670F30F2EFAE02F2EEC
:1002C000F02D352C0DC00F2EFAE02F2EF02D352CF1
:1002D00000E117E205C00F2EFAE02F2EF02D352C8D
:1002E000C701B8010E947903A82EB92E862F0E945B
:1002F000DA00EA2CFB2CC801622D732D0E947903D1
:100300008B01672B69F784CFF401E080F1809401C1
:100310002E5F3F4F49016894222424F8362C042D87
:1003200010E1DECF80E090E0DF91CF911F910F913F
:10033000FF90EF90DF90CF90BF90AF909F908F9005
:100340007F906F905F904F903F902F90089540E482
:1003500050E064EA70E085EE90E00E94620040E4C4
:1003600050E064E670E08EEE90E00E946200089536
:100370000E94A701109263001092620088ED8AB972
:100380008FE589B910BC8FEF8093E4001092ED00E7
:100390001092F7001092F600789408950F931F932F
:1003A0008B019C01DC01CB01905EA34EBF4F880FF7
:1003B000991FAA1FBB1F880F991FAA1FBB1FBC0133
:1003C000CD01660F771F881F991F000F111F221F75
:1003D000331F000F111F221F331FA9019801220F85
:1003E000331F441F551F220F331F441F551F0E94E8
:1003F0008D032150310929B930BD1F910F91089506
:100400009091E4009923E1F38CB91092E4000895EF
:100410001F920F920FB60F9211242F933F934F9379
:100420005F936F937F938F939F93AF93BF93EF935C
:10043000FF938091ED00882391F08091F2009091DC
:10044000F300892B31F08EEE90E00E946F008CB9A2
:1004500009C01092ED008FEF8093E40003C08FEF8E
:100460008093E400FF91EF91BF91AF919F918F91A5
:100470007F916F915F914F913F912F910F900FBEA0
:100480000F901F9018951F920F920FB60F92112484
:100490002F933F934F935F936F937F938F939F938C
:1004A000AF93BF93EF93FF938CB120916200309193
:1004B0006300232B31F0E0916200F0916300099515
:1004C00010C0682F85EE90E00E949300811109C052
:1004D0008091F6009091F70001969093F700809339
:1004E000F600FF91EF91BF91AF919F918F917F9116
:1004F0006F915F914F913F912F910F900FBE0F9091
:100500001F9018950E94B80160E875E280E090E0C5
:100510000E94CE0180E092E00E94C30008950E94F4
:1005200030038AE890E09F938F9381E08F930E943D
:10053000E3000F900F900F900895CF93DF930E94E8
:1005400073038823F9F00E941603882361F084E87E
:1005500090E09F938F9381E08F930E94E3000F9030
:100560000F900F900FC00E940E03882359F08EE762
:1005700090E09F938F9381E08F930E94E3000F9010
:100580000F900F900E9476038823F9F00E941B03BE
:10059000882361F086E790E09F938F9381E08F93AB
:1005A0000E94E3000F900F900F900FC00E94120363
:1005B000882359F08EE690E09F938F9381E08F938C
:1005C0000E94E3000F900F900F90C091E700D09130
:1005D000E80085EE90E00E94B800C817D90799F0AE
:1005E00085EE90E00E946F001F928F9385E690E069
:1005F0009F938F9381E08F930E94E3000F900F9061
:100600000F900F900F90DF91CF91089584B3837076
:1006100084BB089583B38095837008958091FA0018
:10062000817008958091FB00817008958091FA0097
:100630008695817008958091FB008695817008955C
:100640000E9482020E948F0226E686EE90E02150F0
:1006500080409040E1F70E9433030E949D02F4CF56
:100660000E94060308950E940A03E8EFF0E09081DB
:10067000892B10829181268137814281442319F090
:100680004093FC0005C02D33310510F01092FC00A2
:10069000E8EFF0E01282158289130FC02F5F3F4F01
:1006A0002432310518F41092FB0002C08093FB0045
:1006B0003093FF002093FE000895E8EFF0E081837F
:1006C000809589239381982369F41092FF001092FA
:1006D000FE00235031092032310520F482839481B9
:1006E0008923858308958091FA0008958091FB0005
:1006F0000895AA1BBB1B51E107C0AA1FBB1FA61769
:10070000B70710F0A61BB70B881F991F5A95A9F7BA
:1007100080959095BC01CD010895A1E21A2EAA1BE7
:10072000BB1BFD010DC0AA1FBB1FEE1FFF1FA217A1
:10073000B307E407F50720F0A21BB30BE40BF50B9E
:10074000661F771F881F991F1A9469F76095709527
:10075000809590959B01AC01BD01CF010895A29FAA
:10076000B001B39FC001A39F700D811D1124911D85
:10077000B29F700D811D1124911D0895F894FFCF33
:00000001FF
