S01B00004C6576656C4D657465724D61696E626F6172642E7372656387
S11300000C9461000C9473000C9473000C9495038D
S11300100C94A1020C9468030C940E030C943B03FF
S11300200C9474020C9421020C9473000C944B04F1
S11300300C9473000C9414040C9473000C947300CB
S11300400C9473000C9473000C9473000C94E102F0
S11300500C9473009C04A104AD04B204B704BC0462
S1130060C104C6043031323334353637383941426D
S1130070434445460064433D25640A0A00547970AC
S1130080653D25630A004D61696E20626F6172648B
S11300902068657265210A006125640A0073612580
S11300A0640A006125640A00736125640A00C0F9CA
S11300B0A4B0999282F880908883C6A1868EFFFEB0
S11300C0F70011241FBECFE5D4E0DEBFCDBF23E08F
S11300D0A0E6B0E001C01D92A337B207E1F70E9489
S11300E0D9060C9467090C940000FC018FB7F894AE
S11300F0718360835383428317821682158214822C
S11301008FBF0895FC019FB7F89444815581411530
S11301105105C9F026813781A081B181A20FB31F97
S11301208C912F5F3F4F378326836281738126171B
S1130130370720F0261B370B37832683415051099C
S11301405583448301C080E09FBF0895FC01362F8E
S11301502FB7F894A481B58162817381A617B7077C
S113016098F4868197818A0F9B1F0E942B09A08196
S1130170B181A80FB91F3C93848195810196958321
S113018084832FBF8FEF08952FBF80E00895FC0173
S11301904FB7F89482819381248135814FBF821BAC
S11301A0930B089590936100809360000895CF931A
S11301B0C82F8A3031F4E0916000F09161008DE045
S11301C00995E0916000F09161008C2FCF91099422
S11301D08F70E82FF0E0EC59FF4F84910C94D70016
S11301E05F926F927F928F929F92AF92BF92CF92C3
S11301F0DF92EF92FF920F931F93CF93DF931F929F
S1130200CDB7DEB7EC89FD893E0126E1620E711C93
S11302103AE0A32EB12C3B89332381F08F010F5F89
S11302201F4F8491853289F0882309F466C00E94A7
S1130230D700630178013601F701EDCF8081853263
S113024059F08F010F5F1F4FEFCF7F0182E0E80E5F
S1130250F11CF801849105C07F0122E0E20EF11C3B
S113026081818436A1F0883761F0833631F4F3015B
S1130270808193012E5F3F4F39010E94D7006301B3
S1130280DACF20E1822E912C00E010E105C09AE043
S1130290892E912C00E117E2630132E0C30ED11CD8
S11302A0F301608071808436A1F477FE0FC07194ED
S11302B0619471088DE20E94D70008C0C801B5019D
S11302C00E942B098B016230710518F060167106CB
S11302D0A8F3C301B8010E942B09582E862F9983D5
S11302E00E94E800652C9981792EC801B4010E940E
S11302F02B098B01672B69F79ECF80E090E00F906C
S1130300DF91CF911F910F91FF90EF90DF90CF90ED
S1130310BF90AF909F908F907F906F905F90089563
S113032093B7987F892B83BF089585E00E9490013D
S113033012BE89B7816089BF89B7826089BF109274
S1130340F4021092F5021092F6021092F702089548
S11303509EB5987F892B8EBD089582E00E94A801E6
S11303601DBC1CBC89B7846089BF089595B5987F6E
S1130370892B85BD089586E00E94B60114BC89B717
S1130380806489BF89B7806889BF1092FC0210928B
S1130390FD021092FE021092FF020895883040F48C
S11303A0E82FF0E0EE0FFF1FEE59FF4F71836083DB
S11303B00895883040F4E82FF0E0EE0FFF1FEE5967
S11303C0FF4F118210820895CF93C0E08C2F0E94BA
S11303D0D901CF5FC830D1F70E9495010E94AD01C9
S11303E00E94BB017894CF910895893031F48FB580
S11303F082608FBD8FB58E7F0AC08A3019F48FB5A5
S1130400826002C08FB58D7F8FBD8FB581608FBD37
S11304101BBC1ABC19BC18BC08958FB580688FBD6D
S11304208FB58F7B8FBD08958FB580628FBD8FB5DB
S11304308F7E8FBD08959BBD8ABD089599BD88BDEB
S113044008951F920F920FB60F9211242F933F938A
S11304504F935F936F937F938F939F93AF93BF93C8
S1130460EF93FF938091F4029091F502A091F6022C
S1130470B091F7020196A11DB11D8093F4029093EF
S1130480F502A093F602B093F7028091F8029091DE
S1130490F902A091FA02B091FB020196A11DB11DCF
S11304A08093F8029093F902A093FA02B093FB02AE
S11304B08091620090916300892B29F0E0916200A1
S11304C0F09163000995FF91EF91BF91AF919F91D6
S11304D08F917F916F915F914F913F912F910F90E9
S11304E00FBE0F901F9018951F920F920FB60F9288
S11304F011242F933F934F935F936F937F938F9325
S11305009F93AF93BF93EF93FF9380916400909177
S11305106500892B29F0E0916400F091650009954C
S1130520FF91EF91BF91AF919F918F917F916F91C7
S11305305F914F913F912F910F900FBE0F901F909D
S113054018951F920F920FB60F9211242F933F9379
S11305504F935F936F937F938F939F93AF93BF93C7
S1130560EF93FF938091FC029091FD02A091FE0213
S1130570B091FF020196A11DB11D8093FC029093DE
S1130580FD02A093FE02B093FF0280916C00909153
S11305906D00892B29F0E0916C00F0916D000995B4
S11305A0FF91EF91BF91AF919F918F917F916F9147
S11305B05F914F913F912F910F900FBE0F901F901D
S11305C018951F920F920FB60F9211242F933F93F9
S11305D04F935F936F937F938F939F93AF93BF9347
S11305E0EF93FF938091700090917100892B29F013
S11305F0E0917000F09171000995FF91EF91BF9126
S1130600AF919F918F917F916F915F914F913F91A6
S11306102F910F900FBE0F901F9018951F920F925D
S11306200FB60F9211242F933F934F935F936F93C1
S11306307F938F939F93AF93BF93EF93FF93809197
S1130640660090916700892B29F0E0916600F09193
S113065067000995FF91EF91BF91AF919F918F91A1
S11306607F916F915F914F913F912F910F900FBEAA
S11306700F901F9018951F920F920FB60F9211248E
S11306802F933F934F935F936F937F938F939F9396
S1130690AF93BF93EF93FF938091680090916900AB
S11306A0892B29F0E0916800F09169000995FF9188
S11306B0EF91BF91AF919F918F917F916F915F91D6
S11306C04F913F912F910F900FBE0F901F9018954F
S11306D01F920F920FB60F9211242F933F934F93B3
S11306E05F936F937F938F939F93AF93BF93EF9396
S11306F0FF9380916A0090916B00892B29F0E0911F
S11307006A00F0916B000995FF91EF91BF91AF9151
S11307109F918F917F916F915F914F913F912F9115
S11307200F900FBE0F901F9018951F920F920FB647
S11307300F9211242F933F934F935F936F937F9363
S11307408F939F93AF93BF93EF93FF9380916E002A
S113075090916F00892B29F0E0916E00F0916F0069
S11307600995FF91EF91BF91AF919F918F917F91E7
S11307706F915F914F913F912F910F900FBE0F900A
S11307801F90189540E450E064EB70E081E093E042
S11307900E94750040E450E064E770E08AE093E072
S11307A00C9475000E94C2031092730010927200A0
S11307B088ED8AB98FE589B910BC8FEF8093000367
S11307C0109209031092130310921203789408955F
S11307D00F931F938B019C01DC01CB01905EA34E10
S11307E0BF4FBC01CD0143E0660F771F881F991FDF
S11307F04A95D1F7A9019801E4E0220F331F441F61
S1130800551FEA95D1F70E943F092150310929B9B2
S113081030BD1F910F910895909100039923E1F346
S11308208CB91092000308951F920F920FB60F9285
S113083011242F933F934F935F936F937F938F93E1
S11308409F93AF93BF93EF93FF9380910903882302
S113085071F080910E0390910F03892B31F08AE09F
S113086093E00E9482008CB905C0109209038FEFB7
S113087080930003FF91EF91BF91AF919F918F916E
S11308807F916F915F914F913F912F910F900FBE88
S11308900F901F9018951F920F920FB60F9211246C
S11308A02F933F934F935F936F937F938F939F9374
S11308B0AF93BF93EF93FF938CB12091720030916B
S11308C07300232B31F0E0917200F09173000995CD
S11308D010C0682F81E093E00E94A600811109C036
S11308E080911203909113030196909313038093C4
S11308F01203FF91EF91BF91AF919F918F917F91DF
S11309006F915F914F913F912F910F900FBE0F9078
S11309101F90189582B780518CBFE4E1F3E0808189
S113092081608083089590E088309105A8F5FC01EA
S1130930E65DFF4F0C94610940E060E080E090E0E8
S113094029C0613029F040E060E081E090E022C0FD
S11309500E94C10740E060E01DC040E060E082E02A
S113096090E018C040E060E083E090E013C040E015
S113097060E084E090E00EC040E060E085E090E05C
S113098009C040E060E086E090E004C040E060E040
S113099087E090E00C940C0808950E94D20360E86C
S11309A075E280E090E00E94E8038CE094E00E940D
S11309B0D2000E94BB080E94E4018C9A8D9A88E0C0
S11309C00E94F5010E940D020C9414020E94D708A3
S11309D00E9481060E94AC08E4E1F3E0158A168ABD
S11309E0178A108E80EE91E0948F838F158E0E946B
S11309F015076AE874E087E00E94CE0186E890E07B
S1130A009F938F9381E08F930E94F0000F900F903B
S1130A100F9008950F931F93CF938091F4009091BA
S1130A20F50001969093F5008093F40080912C03D7
S1130A308F5F8D3318F480932C0302C010922C0323
S1130A4080912F039091300301978E3F2FEF9207EF
S1130A5020F49093300380932F03C0912903C13075
S1130A6009F450C018F0C23089F112C180912F03EB
S1130A70909130039C01215031092E3F3F4F88F55E
S1130A806BE370E00E942B09892B41F480913103C0
S1130A908F5F8093310360E00E9493040E94730689
S1130AA0882309F4F5C00E942009CC9709F0F0C00E
S1130AB080EE91E09093300380932F0310922903EA
S1130AC084E080932B0310923103E2C080912F03C2
S1130AD0909130039C01215031092E3F3F4F08F47F
S1130AE057C0892B09F0D4C08FEF9FEF9093300348
S1130AF080932F0381E08093290310922B0380932A
S1130B003103C6C00E942509882399F00E94770604
S1130B10882361F084EB90E09093300380932F035B
S1130B2082E080932903C0932B03B2C00E946F0616
S1130B30AFC00E942809882339F00E947C068111E5
S1130B4080C00E947306A4C061E0809131030E94BA
S1130B509304009103031091040381E093E00E9445
S1130B60C7000817190709F493C081E093E00E94B5
S1130B7082001F928F938DE790E09F938F93CF9382
S1130B800E94F0000F900F900F900F900F9080C074
S1130B900E9425098823B9F10E9477068823B9F0B9
S1130BA080913103815009F487E08093310362E03E
S1130BB0809131030E94930484EB90E0909330037E
S1130BC080932F0382E08093290381E05FC00E9419
S1130BD06F06882309F45CC0809117039091180371
S1130BE00197909318038093170341E060E00E94FB
S1130BF00C0884EB90E09093300380932F03C09310
S1130C00290383E043C00E942809882309F440C0D3
S1130C100E947C068823F9F00E9420096AE070E0B3
S1130C200E942B09892BB9F4809131038F5F88309E
S1130C3008F081E08093310362E0809131030E94E7
S1130C40930484EB90E09093300380932F0382E02D
S1130C50809329031BC00E9473068823C9F08091E6
S1130C601703909118030196909318038093170328
S1130C7042E060E00E940C0884EB90E09093300323
S1130C8080932F0382E08093290384E080932B03D5
S1130C90809131031F928F9385E790E09F938F9308
S1130CA081E08F930E94F0000F900F900F900F90AF
S1130CB00F90CF911F910F9108958091140380FF9D
S1130CC0FCCF809114038E7F80931403089584B322
S1130CD0837084BB089583B3809583700895809155
S1130CE06D038170089580916E03817008958091E1
S1130CF06D0386958170089580916E038695817049
S1130D00089587B3897F87BB87B3866087BB88B321
S1130D10866088BBE7E4F3E08081887F8460886034
S1130D2080839CE39183A9E4B3E08C91887F846001
S1130D3088608C9393830895A8E4B3E040E050E086
S1130D40CA01880F991FFC01E95BFC4F30813770A1
S1130D502C91343019F0230F2D3338F0FC01E95B6A
S1130D60FC4F20812860208320E02C93332311F052
S1130D702F3130F0FC01E95BFC4F8081877F808359
S1130D8012964130510519F041E050E0D9CF8091DD
S1130D90470383FF02C082E001C080E090914903D1
S1130DA093FD846098B3997F98BB98B3892B88BBD3
S1130DB008950E94CD040E94E6040E945D060E94EC
S1130DC0D9080E940A050E949C060E94C5070E9439
S1130DD03507F3CFCF9384B5875C83BD80E00E9451
S1130DE0D008C82F8DE593E00E94C700892B21F419
S1130DF08DE593E00E9482006C2F8DE593E00E94C4
S1130E00A60081E00E94D008C82F85E593E00E94E7
S1130E10C700892B21F485E593E00E9482006C2FA2
S1130E2085E593E0CF910C94A60081B3837F81BBC9
S1130E3080E090E00E941E028FEF90E00E941B026F
S1130E406AEE76E086E00E94CE014FEF50E065EF57
S1130E5071E08DE593E00E9475004FEF50E066EF7E
S1130E6070E085E593E00C947500CF938DE593E0F5
S1130E700E94C700892B19F54FEFC0E020E030E055
S1130E80E5EFF1E09081290F311DC91708F4C92F4E
S1130E90941708F4492F319682E0E43FF80791F75C
S1130EA030934C0320934B03C9016FEF70E00E9411
S1130EB02B0960934D03C0934E0340934F0385E584
S1130EC093E00E94C700892B19F54FEFC0E020E0A2
S1130ED030E0E6EFF0E09081290F311DC91708F4E6
S1130EE0C92F941708F4492F319691E0E53FF9078B
S1130EF091F73093510320935003C9016FEF70E0D1
S1130F000E942B0960935203C093530340935403EC
S1130F1080E00E94D0081F928F9388EA90E09F930C
S1130F208F93C1E0CF930E94F00080914D031F92F4
S1130F308F9383EA90E09F938F93CF930E94F00066
S1130F4081E00E94D0081F928F938DE990E09F93D7
S1130F508F93CF930E94F000809152031F928F933E
S1130F6088E990E09F938F93CF930E94F0008DB710
S1130F709EB744960FB6F8949EBF0FBE8DBFCF9117
S1130F80089580914D0390E008950F931F9340912D
S1130F906703509168036091690370916A0380E26A
S1130FA08A019B01440F551F661F771FAF98AE98A7
S1130FB037FDAE9AAF9A815099F790916503977077
S1130FC080916603943019F0890F8D3330F080914D
S1130FD065038F7D8093650380E080936603992386
S1130FE011F08F3128F0809165038062809365034E
S1130FF08091650385FD02C0AC9803C0887119F423
S1131000AC9AAD9806C0883011F4AC9801C0AC9A83
S1131010AD9A1F910F9108950F931F93CF93DF9370
S11310208C01362F68EE73E00E942B09C62F64E60C
S113103070E00E942B09D62F6AE070E00E942B0911
S1131040562F377060916503607E4370942F990F1B
S1131050990F990F462F432B492B40936503EEEBD1
S1131060F0E0949190936A0394919093690394911E
S113107090936803E491282F30E0093E83E0180739
S113108078F0EC2FF0E0E255FF4F849180936A03EF
S1131090ED2FF0E0E255FF4FE491E09369030EC0B9
S11310A00536110540F0ED2FF0E0E255FF4F849135
S11310B08093690303C00B30110538F0E52FF0E08D
S11310C0E255FF4FE491E0936803F901E255FF4FC5
S11310D0E491E0936703DF91CF911F910F910895FD
S11310E0392F32953F70292F2F70FC0194E0F6952B
S11310F0E7959A95E1F79E2F9F708F70A5E6B3E070
S113110067707C91707E4370542F550F550F550FA7
S1131110472F462B452B4C93E32FF0E0E255FF4F2E
S1131120349115963C931597E22FF0E0E255FF4F6A
S1131130249114962C931497E92FF0E0E255FF4F75
S1131140E4911396EC931397E82FF0E0E255FF4FE8
S1131150E4911296EC93089584B38F7084BB84B3A6
S1131160806F84BB85B38F7085BB40E064E080E012
S113117090E00C94700880E487B984E986B90895F6
S11311802FB7F89497B1907F97B997B18770892B4F
S113119087B9369A349BFECF84B195B12FBF089599
S11311A00E94C008969587959695879508950C9406
S11311B067060E946B0690916B03892B10926B0358
S11311C090916C03209171033091720340916D03EF
S11311D0442319F040936F0305C02D33310510F0FB
S11311E010926F0310926D031092700389130FC055
S11311F02F5F3F4F2432310518F410926E0302C062
S113120080936E0330937203209371030895809347
S11312106C038095892390916E03982381F4109236
S1131220720310927103235031092032310538F4CE
S113123080936D0390916F038923809370030895C5
S11312408091710390917203089580916D030895C4
S113125080916E030895AA1BBB1B51E107C0AA1F0E
S1131260BB1FA617B70710F0A61BB70B881F991F43
S11312705A95A9F780959095BC01CD010895A1E2F6
S11312801A2EAA1BBB1BFD010DC0AA1FBB1FEE1FFC
S1131290FF1FA217B307E407F50720F0A21BB30B47
S11312A0E40BF50B661F771F881F991F1A9469F7C3
S11312B060957095809590959B01AC01BD01CF011F
S11312C00895EE0FFF1F0590F491E02D0994F89412
S10512D0FFCF4A
S9030000FC
