S01B00004C6576656C4D657465724D61696E626F6172642E7372656387
S11300000C9464000C9476000C9476000C94980381
S11300100C94A4020C946B030C9411030C943E03F3
S11300200C9477020C9424020C9476000C944E04E5
S11300300C9476000C9417040C9476000C947600BF
S11300400C9476000C9476000C9476000C94E402E4
S11300500C9476009F04A404B004B504BA04BF044D
S1130060C404C90430313233343536373839414267
S1130070434445460064433D25640A0A00547970AC
S1130080653D25630A004D61696E20626F6172648B
S11300902068657265210A006D6925640D0A006D8A
S11300A06125640A006125640A007325640A0073EB
S11300B06125640A00C0F9A4B0999282F8809088FE
S11300C083C6A1868EFFFEF711241FBECFE5D4E0C0
S11300D0DEBFCDBF21E0A0E6B0E001C01D92AC368A
S11300E0B207E1F70E94DD060C9435090C94000078
S11300F0FC018FB7F8947183608353834283178222
S11301001682158214828FBF0895FC019FB7F8945C
S11301104481558141155105C9F026813781A0815B
S1130120B181A20FB31F8C912F5F3F4F378326837A
S1130130628173812617370720F0261B370B37831C
S11301402683415051095583448301C080E09FBFF9
S11301500895FC01362F2FB7F894A481B5816281EC
S11301607381A617B70798F4868197818A0F9B1F1E
S11301700E94F908A081B181A80FB91F3C93848122
S113018095810196958384832FBF8FEF08952FBFA8
S113019080E00895FC014FB7F89482819381248113
S11301A035814FBF821B930B089590936100809318
S11301B060000895CF93C82F8A3031F4E091600035
S11301C0F09161008DE00995E0916000F09161008B
S11301D08C2FCF9109948F70E82FF0E0EC59FF4FEA
S11301E084910C94DA005F926F927F928F929F9227
S11301F0AF92BF92CF92DF92EF92FF920F931F9331
S1130200CF93DF931F92CDB7DEB7EC89FD893E0112
S113021026E1620E711C3AE0A32EB12C3B893323F4
S113022081F08F010F5F1F4F8491853289F08823FD
S113023009F466C00E94DA00630178013601F7010F
S1130240EDCF8081853259F08F010F5F1F4FEFCFC3
S11302507F0182E0E80EF11CF801849105C07F0162
S113026022E0E20EF11C81818436A1F0883761F02E
S1130270833631F4F301808193012E5F3F4F3901BE
S11302800E94DA006301DACF20E1822E912C00E093
S113029010E105C09AE0892E912C00E117E2630178
S11302A032E0C30ED11CF301608071808436A1F466
S11302B077FE0FC07194619471088DE20E94DA0098
S11302C008C0C801B5010E94F9088B0162307105AC
S11302D018F060167106A8F3C301B8010E94F9086A
S11302E0582E862F99830E94EB00652C9981792ED4
S11302F0C801B4010E94F9088B01672B69F79ECFEE
S113030080E090E00F90DF91CF911F910F91FF90CB
S1130310EF90DF90CF90BF90AF909F908F907F90A1
S11303206F905F90089593B7987F892B83BF08954A
S113033085E00E94930112BE89B7816089BF89B7A5
S1130340826089BF1092FB001092FC001092FD00A5
S11303501092FE0008959EB5987F892B8EBD089556
S113036082E00E94AB011DBC1CBC89B7846089BFBC
S1130370089595B5987F892B85BD089586E00E94E0
S1130380B90114BC89B7806489BF89B7806889BF03
S113039010920301109204011092050110920601BB
S11303A00895883040F4E82FF0E0EE0FFF1FEE5977
S11303B0FF4F718360830895883040F4E82FF0E0A4
S11303C0EE0FFF1FEE59FF4F118210820895CF9355
S11303D0C0E08C2F0E94DC01CF5FC830D1F70E94AF
S11303E098010E94B0010E94BE017894CF910895B3
S11303F0893031F48FB582608FBD8FB58E7F0AC08E
S11304008A3019F48FB5826002C08FB58D7F8FBD9D
S11304108FB581608FBD1BBC1ABC19BC18BC089574
S11304208FB580688FBD8FB58F7B8FBD08958FB5D5
S113043080628FBD8FB58F7E8FBD08959BBD8ABDB1
S1130440089599BD88BD08951F920F920FB60F921B
S113045011242F933F934F935F936F937F938F93C5
S11304609F93AF93BF93EF93FF938091FB00909181
S1130470FC00A091FD00B091FE000196A11DB11DEC
S11304808093FB009093FC00A093FD00B093FE00CA
S11304908091FF0090910001A0910101B0910201AF
S11304A00196A11DB11D8093FF0090930001A093BC
S11304B00101B09302018091620090916300892B45
S11304C029F0E0916200F09163000995FF91EF91AA
S11304D0BF91AF919F918F917F916F915F914F9158
S11304E03F912F910F900FBE0F901F9018951F9260
S11304F00F920FB60F9211242F933F934F935F9354
S11305006F937F938F939F93AF93BF93EF93FF93D7
S11305108091640090916500892B29F0E09164003A
S1130520F09165000995FF91EF91BF91AF919F9173
S11305308F917F916F915F914F913F912F910F9088
S11305400FBE0F901F9018951F920F920FB60F9227
S113055011242F933F934F935F936F937F938F93C4
S11305609F93AF93BF93EF93FF9380910301909177
S11305700401A0910501B09106010196A11DB11DD0
S11305808093030190930401A0930501B0930601A5
S113059080916C0090916D00892B29F0E0916C00A2
S11305A0F0916D000995FF91EF91BF91AF919F91EB
S11305B08F917F916F915F914F913F912F910F9008
S11305C00FBE0F901F9018951F920F920FB60F92A7
S11305D011242F933F934F935F936F937F938F9344
S11305E09F93AF93BF93EF93FF938091700090918B
S11305F07100892B29F0E0917000F0917100099548
S1130600FF91EF91BF91AF919F918F917F916F91E6
S11306105F914F913F912F910F900FBE0F901F90BC
S113062018951F920F920FB60F9211242F933F9398
S11306304F935F936F937F938F939F93AF93BF93E6
S1130640EF93FF938091660090916700892B29F0C6
S1130650E0916600F09167000995FF91EF91BF91D9
S1130660AF919F918F917F916F915F914F913F9146
S11306702F910F900FBE0F901F9018951F920F92FD
S11306800FB60F9211242F933F934F935F936F9361
S11306907F938F939F93AF93BF93EF93FF93809137
S11306A0680090916900892B29F0E0916800F0912D
S11306B069000995FF91EF91BF91AF919F918F913F
S11306C07F916F915F914F913F912F910F900FBE4A
S11306D00F901F9018951F920F920FB60F9211242E
S11306E02F933F934F935F936F937F938F939F9336
S11306F0AF93BF93EF93FF9380916A0090916B0047
S1130700892B29F0E0916A00F0916B000995FF9123
S1130710EF91BF91AF919F918F917F916F915F9175
S11307204F913F912F910F900FBE0F901F901895EE
S11307301F920F920FB60F9211242F933F934F9352
S11307405F936F937F938F939F93AF93BF93EF9335
S1130750FF9380916E0090916F00892B29F0E091B6
S11307606E00F0916F000995FF91EF91BF91AF91E9
S11307709F918F917F916F915F914F913F912F91B5
S11307800F900FBE0F901F90189540E450E064EB5B
S113079070E088E091E00E94780040E450E064E773
S11307A070E081E191E00C9478000E94C5031092FE
S11307B073001092720088ED8AB98FE589B910BC74
S11307C08FEF809307011092100110921A0110927A
S11307D01901789408950F931F938B019C01DC01F8
S11307E0CB01905EA34EBF4FBC01CD0143E0660F29
S11307F0771F881F991F4A95D1F7A9019801E4E052
S1130800220F331F441F551FEA95D1F70E940D098B
S11308102150310929B930BD1F910F91089590914C
S113082007019923E1F38CB91092070108951F92EF
S11308300F920FB60F9211242F933F934F935F9310
S11308406F937F938F939F93AF93BF93EF93FF9394
S113085080911001882371F0809115019091160107
S1130860892B31F081E191E00E9485008CB905C0AB
S1130870109210018FEF80930701FF91EF91BF91C8
S1130880AF919F918F917F916F915F914F913F9124
S11308902F910F900FBE0F901F9018951F920F92DB
S11308A00FB60F9211242F933F934F935F936F933F
S11308B07F938F939F93AF93BF93EF93FF938CB1E9
S11308C02091720030917300232B31F0E09172007B
S11308D0F0917300099510C0682F88E091E00E94A0
S11308E0A900811109C08091190190911A01019602
S11308F090931A0180931901FF91EF91BF91AF91E9
S11309009F918F917F916F915F914F913F912F9123
S11309100F900FBE0F901F90189582B780518CBF17
S1130920EBE1F1E0808181608083089590E088307C
S11309309105A8F5FC01E65DFF4F0C942F0940E0FA
S113094060E080E090E029C0613029F040E060E0A0
S113095081E090E022C00E948F0740E060E01DC06B
S113096040E060E082E090E018C040E060E083E0B6
S113097090E013C040E060E084E090E00EC040E00E
S113098060E085E090E009C040E060E086E090E04F
S113099004C040E060E087E090E00C94DA0708953A
S11309A00E94D50360E875E280E090E00E94EB03CA
S11309B08FE094E00E94D5000E9489080E94E7011C
S11309C08C9A8D9A88E00E94F8010E9410020C947F
S11309D017020E94A5080E9485060E947A08EBE18E
S11309E0F1E0158616861786108A80EE91E0948BC6
S11309F0838B158A168A0E940B076DE874E087E0E2
S1130A000E94D10186E890E09F938F9381E08F93B9
S1130A100E94F3000F900F900F9008950F931F936F
S1130A20CF938091F4009091F50001969093F50096
S1130A308093F40080912B018F5F8D3318F48093A1
S1130A402B0102C010922B0180912E0190912F0155
S1130A5001978E3F2FEF920720F490932F018093FC
S1130A602E01C0912801C13009F450C018F0C230E1
S1130A7089F112C180912E0190912F019C01215086
S1130A8031092E3F3F4F88F56BE370E00E94F9086F
S1130A90892B41F4809130018F5F8093300160E0B5
S1130AA00E9496040E947706882309F4F5C00E94E8
S1130AB0EE08CC9709F0F0C080EE91E090932F01FE
S1130AC080932E011092280184E080932A011092D1
S1130AD03001E2C080912E0190912F019C012150A0
S1130AE031092E3F3F4F08F457C0892B09F0D4C079
S1130AF08FEF9FEF90932F0180932E0181E08093DD
S1130B00280110922A0180933001C6C00E94F30884
S1130B10882399F00E947B06882361F084EB90E09F
S1130B2090932F0180932E0182E080932801C0933B
S1130B302A01B2C00E947306AFC00E94F60888233F
S1130B4039F00E948006811180C00E947706A4C0FB
S1130B5061E0809130010E94960400910A01109195
S1130B600B0188E091E00E94CA000817190709F4F4
S1130B7093C088E091E00E9485001F928F938DE7D7
S1130B8090E09F938F93CF930E94F3000F900F9068
S1130B900F900F900F9080C00E94F3088823B9F142
S1130BA00E947B068823B9F080913001815009F4BA
S1130BB087E08093300162E0809130010E949604C6
S1130BC084EB90E090932F0180932E0182E0809338
S1130BD0280181E05FC00E947306882309F45CC089
S1130BE080911E0190911F01019790931F018093A2
S1130BF01E0141E060E00E94DA0784EB90E09093EC
S1130C002F0180932E01C093280183E043C00E94EA
S1130C10F608882309F440C00E9480068823F9F06E
S1130C200E94EE086AE070E00E94F908892BB9F48A
S1130C30809130018F5F883008F081E0809330012B
S1130C4062E0809130010E94960484EB90E09093DE
S1130C502F0180932E0182E0809328011BC00E9403
S1130C6077068823C9F080911E0190911F01019697
S1130C7090931F0180931E0142E060E00E94DA0716
S1130C8084EB90E090932F0180932E0182E0809377
S1130C90280184E080932A01809130011F928F9370
S1130CA085E790E09F938F9381E08F930E94F300F8
S1130CB00F900F900F900F900F90CF911F910F9165
S1130CC0089580911B0180FFFCCF80911B018E7FD2
S1130CD080931B01089584B3837084BB089583B308
S1130CE08095837008958091660181700895809144
S1130CF067018170089580916601869581700895D9
S1130D008091670186958170089587B3897F87BB39
S1130D1087B3866087BB88B3866088BBE8E4F1E06C
S1130D208081887F8460886080839CE39183AAE4C7
S1130D30B1E08C91887F846088608C93938308955C
S1130D40A9E4B1E040E050E0CA01880F991FFC011A
S1130D50E85BFE4F308137702C91343019F0230F4B
S1130D602D3338F0FC01E85BFE4F2081286020839E
S1130D7020E02C93332311F02F3130F0FC01E85B99
S1130D80FE4F8081877F808312964130510519F090
S1130D9041E050E0D9CF8091480183FF02C082E056
S1130DA001C080E090914A0193FD846098B3997FDB
S1130DB098BB98B3892B88BB08950E94D0040E94E5
S1130DC0E9040E9461060E94A7080E940E050E9481
S1130DD0A0060E9493070E942007F3CFCF9384B507
S1130DE0875C83BD80E00E949E08C82F86E591E061
S1130DF00E94CA00892B21F486E591E00E948500B7
S1130E006C2F86E591E00E94A90092B380E18927C6
S1130E1082BBCF91089581E090E00E94210288EC8A
S1130E2090E00E941E026EEE76E086E00E94D10100
S1130E3045E050E066EF70E086E591E00C947800C0
S1130E40CF9386E591E00E94CA00892B19F54FEFF4
S1130E50C0E020E030E0E6EFF0E09081290F311DA2
S1130E60C91708F4C92F941708F4492F319680E064
S1130E70EB3FF80791F730934D0120934C01C901E2
S1130E8065E070E00E94F90860934E01C0934F0141
S1130E904093500180E00E949E081F928F938FEA36
S1130EA090E09F938F93C1E0CF930E94F3008091D1
S1130EB04D018F9380914C018F938AEA90E09F9328
S1130EC08F93CF930E94F30080914E011F928F93D2
S1130ED085EA90E09F938F93CF930E94F3008091D3
S1130EE04F011F928F938FE990E09F938F93CF933D
S1130EF00E94F300809150011F928F9388E990E043
S1130F009F938F93CF930E94F3008DB79EB749961A
S1130F100FB6F8949EBF0FBE8DBFCF9108958091F8
S1130F204E0190E008950F931F93409160015091FA
S1130F306101609162017091630180E28A019B0109
S1130F40440F551F661F771FAF98AE9837FDAE9AB2
S1130F50AF9A815099F790915E01977080915F01EB
S1130F60943019F0890F8D3330F080915E018F7DBC
S1130F7080935E0180E080935F01992311F08F31AB
S1130F8028F080915E01806280935E0180915E0111
S1130F9085FD02C0AC9803C0887119F4AC9AAD9871
S1130FA006C0883011F4AC9801C0AC9AAD9A1F9178
S1130FB00F9108950F931F93CF93DF938C01362FD6
S1130FC068EE73E00E94F908C62F64E670E00E94A0
S1130FD0F908D62F6AE070E00E94F908562F37709E
S1130FE060915E01607E4370942F990F990F990F61
S1130FF0462F432B492B40935E01E5ECF0E094919E
S11310009093630194919093620194919093610100
S1131010E491282F30E0093E83E0180778F0EC2FA4
S1131020F0E0EB54FF4F849180936301ED2FF0E0E7
S1131030EB54FF4FE491E09362010EC005361105B5
S113104040F0ED2FF0E0EB54FF4F84918093620168
S113105003C00B30110538F0E52FF0E0EB54FF4FDF
S1131060E491E0936101F901EB54FF4FE491E093C3
S11310706001DF91CF911F910F910895392F32951F
S11310803F70292F2F70FC0194E0F695E7959A950F
S1131090E1F79E2F9F708F70AEE5B1E067707C9191
S11310A0707E4370542F550F550F550F472F462B05
S11310B0452B4C93E32FF0E0EB54FF4F34911596FE
S11310C03C931597E22FF0E0EB54FF4F24911496D4
S11310D02C931497E92FF0E0EB54FF4FE49113960F
S11310E0EC931397E82FF0E0EB54FF4FE491129642
S11310F0EC93089584B38F7084BB84B3806F84BBF6
S113110085B38F7085BB40E064E080E090E00C9490
S11311103E0880E487B984E986B908952FB7F89426
S113112097B1907F97B997B18770892B87B9369A11
S1131130349BFECF84B195B12FBF08950E948E08D1
S1131140969587959695879508950C946B060E94BD
S11311506F0690916401892B10926401909165014E
S113116020916A0130916B0140916601442319F08A
S11311704093680105C02D33310510F010926801C9
S1131180109266011092690189130FC02F5F3F4FBF
S11311902432310518F41092670102C0809367016C
S11311A030936B0120936A010895809365018095C3
S11311B0892390916701982381F410926B01109216
S11311C06A01235031092032310538F480936601D5
S11311D090916801892380936901089580916A013F
S11311E090916B0108958091660108958091670143
S11311F00895AA1BBB1B51E107C0AA1FBB1FA6175A
S1131200B70710F0A61BB70B881F991F5A95A9F7AB
S113121080959095BC01CD010895A1E21A2EAA1BD8
S1131220BB1BFD010DC0AA1FBB1FEE1FFF1FA21792
S1131230B307E407F50720F0A21BB30BE40BF50B8F
S1131240661F771F881F991F1A9469F76095709518
S1131250809590959B01AC01BD01CF010895EE0FDF
S1111260FF1F0590F491E02D0994F894FFCF40
S9030000FC
