S01B00004C6576656C4D657465724D61696E626F6172642E7372656387
S11300000C945B000C946D000C946D000C948F03A5
S11300100C949B020C9462030C9408030C94350317
S11300200C946E020C941B020C946D000C94450409
S11300300C946D000C940E040C946D000C946D00E3
S11300400C946D000C946D000C946D000C94DB0208
S11300500C946D0096049B04A704AC04B104B6048C
S1130060BB04C00430313233343536373839414279
S1130070434445460064433D25640A0A00547970AC
S1130080653D25630A004D61696E20626F6172648B
S11300902068657265210A006125640A0073612580
S11300A0640A00C0F9A4B0999282F880908883C64B
S11300B0A1868EFFFEF711241FBECFE5D4E0DEBF7C
S11300C0CDBF22E0A0E6B0E001C01D92A636B20783
S11300D0E1F70E94D4060C9407090C940000FC017B
S11300E08FB7F89471836083538342831782168297
S11300F0158214828FBF0895FC019FB7F894448140
S1130100558141155105C9F026813781A081B181FE
S1130110A20FB31F8C912F5F3F4F378326836281D9
S113012073812617370720F0261B370B3783268366
S1130130415051095583448301C080E09FBF089515
S1130140FC01362F2FB7F894A481B58162817381A5
S1130150A617B70798F4868197818A0F9B1F0E9480
S1130160CB08A081B181A80FB91F3C9384819581EC
S11301700196958384832FBF8FEF08952FBF80E06E
S11301800895FC014FB7F8948281938124813581CD
S11301904FBF821B930B089590936100809360007E
S11301A00895CF93C82F8A3031F4E0916000F09124
S11301B061008DE00995E0916000F09161008C2F61
S11301C0CF9109948F70E82FF0E0EC59FF4F8491A0
S11301D00C94D1005F926F927F928F929F92AF9214
S11301E0BF92CF92DF92EF92FF920F931F93CF9320
S11301F0DF931F92CDB7DEB7EC89FD893E0126E17E
S1130200620E711C3AE0A32EB12C3B89332381F09A
S11302108F010F5F1F4F8491853289F0882309F481
S113022066C00E94D100630178013601F701EDCF69
S11302308081853259F08F010F5F1F4FEFCF7F010F
S113024082E0E80EF11CF801849105C07F0122E0F0
S1130250E20EF11C81818436A1F0883761F0833687
S113026031F4F301808193012E5F3F4F39010E94E5
S1130270D1006301DACF20E1822E912C00E010E15D
S113028005C09AE0892E912C00E117E2630132E067
S1130290C30ED11CF301608071808436A1F477FE13
S11302A00FC07194619471088DE20E94D10008C05E
S11302B0C801B5010E94CB088B016230710518F0AA
S11302C060167106A8F3C301B8010E94CB08582E2A
S11302D0862F99830E94E200652C9981792EC801AA
S11302E0B4010E94CB088B01672B69F79ECF80E095
S11302F090E00F90DF91CF911F910F91FF90EF90BD
S1130300DF90CF90BF90AF909F908F907F906F9031
S11303105F90089593B7987F892B83BF089585E0F4
S11303200E948A0112BE89B7816089BF89B7826041
S113033089BF1092F5011092F6011092F701109204
S1130340F80108959EB5987F892B8EBD089582E0AB
S11303500E94A2011DBC1CBC89B7846089BF08959A
S113036095B5987F892B85BD089586E00E94B001DC
S113037014BC89B7806489BF89B7806889BF10922B
S1130380FD011092FE011092FF01109200020895E7
S1130390883040F4E82FF0E0EE0FFF1FEE59FF4FD6
S11303A0718360830895883040F4E82FF0E0EE0F05
S11303B0FF1FEE59FF4F118210820895CF93C0E0C2
S11303C08C2F0E94D301CF5FC830D1F70E948F01D8
S11303D00E94A7010E94B5017894CF9108958930B5
S11303E031F48FB582608FBD8FB58E7F0AC08A309D
S11303F019F48FB5826002C08FB58D7F8FBD8FB524
S113040081608FBD1BBC1ABC19BC18BC08958FB584
S113041080688FBD8FB58F7B8FBD08958FB5806247
S11304208FBD8FB58F7E8FBD08959BBD8ABD089506
S113043099BD88BD08951F920F920FB60F92112493
S11304402F933F934F935F936F937F938F939F93D8
S1130450AF93BF93EF93FF938091F5019091F601D1
S1130460A091F701B091F8010196A11DB11D8093EF
S1130470F5019093F601A093F701B093F8018091F0
S1130480F9019091FA01A091FB01B091FC01019650
S1130490A11DB11D8093F9019093FA01A093FB0172
S11304A0B093FC018091620090916300892B29F044
S11304B0E0916200F09163000995FF91EF91BF9183
S11304C0AF919F918F917F916F915F914F913F91E8
S11304D02F910F900FBE0F901F9018951F920F929F
S11304E00FB60F9211242F933F934F935F936F9303
S11304F07F938F939F93AF93BF93EF93FF938091D9
S1130500640090916500892B29F0E0916400F091DA
S113051065000995FF91EF91BF91AF919F918F91E4
S11305207F916F915F914F913F912F910F900FBEEB
S11305300F901F9018951F920F920FB60F921124CF
S11305402F933F934F935F936F937F938F939F93D7
S1130550AF93BF93EF93FF938091FD019091FE01C0
S1130560A091FF01B09100020196A11DB11D8093DD
S1130570FD019093FE01A093FF01B09300028091CE
S11305806C0090916D00892B29F0E0916C00F09142
S11305906D000995FF91EF91BF91AF919F918F915C
S11305A07F916F915F914F913F912F910F900FBE6B
S11305B00F901F9018951F920F920FB60F9211244F
S11305C02F933F934F935F936F937F938F939F9357
S11305D0AF93BF93EF93FF9380917000909171005C
S11305E0892B29F0E0917000F09171000995FF9139
S11305F0EF91BF91AF919F918F917F916F915F9197
S11306004F913F912F910F900FBE0F901F9018950F
S11306101F920F920FB60F9211242F933F934F9373
S11306205F936F937F938F939F93AF93BF93EF9356
S1130630FF938091660090916700892B29F0E091E7
S11306406600F09167000995FF91EF91BF91AF911A
S11306509F918F917F916F915F914F913F912F91D6
S11306600F900FBE0F901F9018951F920F920FB608
S11306700F9211242F933F934F935F936F937F9324
S11306808F939F93AF93BF93EF93FF9380916800F1
S113069090916900892B29F0E0916800F09169003C
S11306A00995FF91EF91BF91AF919F918F917F91A8
S11306B06F915F914F913F912F910F900FBE0F90CB
S11306C01F9018951F920F920FB60F9211242F931B
S11306D03F934F935F936F937F938F939F93AF93C6
S11306E0BF93EF93FF9380916A0090916B00892BE5
S11306F029F0E0916A00F0916B000995FF91EF9168
S1130700BF91AF919F918F917F916F915F914F9125
S11307103F912F910F900FBE0F901F9018951F922D
S11307200F920FB60F9211242F933F934F935F9321
S11307306F937F938F939F93AF93BF93EF93FF93A5
S113074080916E0090916F00892B29F0E0916E00EA
S1130750F0916F000995FF91EF91BF91AF919F9137
S11307608F917F916F915F914F913F912F910F9056
S11307700FBE0F901F90189540E450E064EB70E0BA
S113078082E092E00E946F0040E450E064E770E091
S11307908BE092E00C946F000E94BC0310927300F3
S11307A01092720088ED8AB98FE589B910BC8FEF79
S11307B08093010210920A02109214021092130202
S11307C0789408950F931F938B019C01DC01CB0156
S11307D0905EA34EBF4FBC01CD0143E0660F771F6F
S11307E0881F991F4A95D1F7A9019801E4E0220FC7
S11307F0331F441F551FEA95D1F70E94DF0821508B
S1130800310929B930BD1F910F91089590910102CA
S11308109923E1F38CB91092010208951F920F926B
S11308200FB60F9211242F933F934F935F936F93BF
S11308307F938F939F93AF93BF93EF93FF93809195
S11308400A02882371F080910F0290911002892B83
S113085031F08BE092E00E947C008CB905C01092CC
S11308600A028FEF80930102FF91EF91BF91AF9144
S11308709F918F917F916F915F914F913F912F91B4
S11308800F900FBE0F901F9018951F920F920FB6E6
S11308900F9211242F933F934F935F936F937F9302
S11308A08F939F93AF93BF93EF93FF938CB120915A
S11308B0720030917300232B31F0E0917200F091BB
S11308C07300099510C0682F82E092E00E94A00096
S11308D0811109C0809113029091140201969093A2
S11308E0140280931302FF91EF91BF91AF919F91F6
S11308F08F917F916F915F914F913F912F910F90C5
S11309000FBE0F901F90189582B780518CBFE5E100
S1130910F2E0808181608083089590E088309105C1
S1130920A8F5FC01E65DFF4F0C94010940E060E08E
S113093080E090E029C0613029F040E060E081E08F
S113094090E022C00E94610740E060E01DC040E0EA
S113095060E082E090E018C040E060E083E090E076
S113096013C040E060E084E090E00EC040E060E04E
S113097085E090E009C040E060E086E090E004C0DB
S113098040E060E087E090E00C94AC0708950E949A
S1130990CC0360E875E280E090E00E94E20386E028
S11309A094E00E94CC000E945B080E94DE018C9AB5
S11309B08D9A88E00E94EF010E9407020C940E02B7
S11309C00E9477080E947C060E944C08E5E1F2E050
S11309D0158616861786108A80EE91E0948B838B99
S11309E0158A168A0E94FD0664E874E087E00E9476
S11309F0C80186E890E09F938F9381E08F930E94D3
S1130A00EA000F900F900F9008950F931F93CF93C8
S1130A108091F4009091F50001969093F5008093F5
S1130A20F400809125028F5F8D3318F480932502A2
S1130A3002C0109225028091280290912902019708
S1130A408E3F2FEF920720F490932902809328027F
S1130A50C0912202C13009F450C018F0C23089F1AB
S1130A6012C180912802909129029C0121503109E0
S1130A702E3F3F4F88F56BE370E00E94CB08892B33
S1130A8041F480912A028F5F80932A0260E00E94E1
S1130A908D040E946E06882309F4F5C00E94C008E4
S1130AA0CC9709F0F0C080EE91E0909329028093F6
S1130AB028021092220284E08093240210922A02D7
S1130AC0E2C080912802909129029C0121503109B1
S1130AD02E3F3F4F08F457C0892B09F0D4C08FEF45
S1130AE09FEF909329028093280281E08093220251
S1130AF01092240280932A02C6C00E94C50888234B
S1130B0099F00E947206882361F084EB90E0909340
S1130B1029028093280282E080932202C093240257
S1130B20B2C00E946A06AFC00E94C808882339F088
S1130B300E947706811180C00E946E06A4C061E005
S1130B4080912A020E948D040091040210910502F2
S1130B5082E092E00E94C1000817190709F493C0CB
S1130B6082E092E00E947C001F928F938DE790E0D8
S1130B709F938F93CF930E94EA000F900F900F9052
S1130B800F900F9080C00E94C5088823B9F10E947D
S1130B9072068823B9F080912A02815009F487E013
S1130BA080932A0262E080912A020E948D0484EBE1
S1130BB090E0909329028093280282E0809322029D
S1130BC081E05FC00E946A06882309F45CC08091BA
S1130BD018029091190201979093190280931802B8
S1130BE041E060E00E94AC0784EB90E0909329021E
S1130BF080932802C093220283E043C00E94C80865
S1130C00882309F440C00E9477068823F9F00E94E3
S1130C10C0086AE070E00E94CB08892BB9F4809187
S1130C202A028F5F883008F081E080932A0262E014
S1130C3080912A020E948D0484EB90E09093290213
S1130C408093280282E0809322021BC00E946E06D9
S1130C508823C9F08091180290911902019690930B
S1130C6019028093180242E060E00E94AC0784EB12
S1130C7090E0909329028093280282E080932202DC
S1130C8084E08093240280912A021F928F9385E747
S1130C9090E09F938F9381E08F930E94EA000F90DE
S1130CA00F900F900F900F90CF911F910F91089577
S1130CB08091150280FFFCCF809115028E7F809376
S1130CC01502089584B3837084BB089583B380951B
S1130CD0837008958091600281700895809161020B
S1130CE08170089580916002869581700895809145
S1130CF0610286958170089587B3897F87BB87B326
S1130D00866087BB88B3866088BBE2E4F2E08081BA
S1130D10887F8460886080839CE39183A4E4B2E04C
S1130D208C91887F846088608C9393830895A3E476
S1130D30B2E040E050E0CA01880F991FFC01EE5B6D
S1130D40FD4F308137702C91343019F0230F2D333F
S1130D5038F0FC01EE5BFD4F20812860208320E009
S1130D602C93332311F02F3130F0FC01EE5BFD4F57
S1130D708081877F808312964130510519F041E0CC
S1130D8050E0D9CF8091420283FF02C082E001C0CB
S1130D9080E09091440293FD846098B3997F98BB5E
S1130DA098B3892B88BB08950E94C7040E94E0046D
S1130DB00E9458060E9479080E9405050E94970621
S1130DC00E9465070E941507F3CFCF9384B5875C13
S1130DD083BD80E00E947008C82F80E592E00E94E5
S1130DE0C100892B21F480E592E00E947C006C2FE5
S1130DF080E592E0CF910C94A00081B3837F81BB06
S1130E0080E090E00E9418028FEF90E00E941502AB
S1130E1065EE76E086E00E94C8014FEF50E066EF91
S1130E2070E080E592E00C946F00CF9380E592E04F
S1130E300E94C100892B19F54FEFC0E020E030E09B
S1130E40E6EFF0E09081290F311DC91708F4C92F8E
S1130E50941708F4492F319681E0E53FF80791F79C
S1130E603093470220934602C9016FEF70E00E945D
S1130E70CB0860934802C093490240934A0280E041
S1130E800E9470081F928F938DE990E09F938F9337
S1130E90C1E0CF930E94EA00809148021F928F9391
S1130EA088E990E09F938F93CF930E94EA008DB7D7
S1130EB09EB70A960FB6F8949EBF0FBE8DBFCF9112
S1130EC008958091480290E008950F931F934091F4
S1130ED05A0250915B0260915C0270915D0280E263
S1130EE08A019B01440F551F661F771FAF98AE9868
S1130EF037FDAE9AAF9A815099F790915802977046
S1130F0080915902943019F0890F8D3330F080911B
S1130F1058028F7D8093580280E080935902992370
S1130F2011F08F3128F0809158028062809358022A
S1130F308091580285FD02C0AC9803C0887119F4F1
S1130F40AC9AAD9806C0883011F4AC9801C0AC9A44
S1130F50AD9A1F910F9108950F931F93CF93DF9331
S1130F608C01362F68EE73E00E94CB08C62F64E62E
S1130F7070E00E94CB08D62F6AE070E00E94CB0894
S1130F80562F377060915802607E4370942F990FEA
S1130F90990F990F462F432B492B40935802E3EBAB
S1130FA0F0E0949190935D02949190935C029491FB
S1130FB090935B02E491282F30E0093E83E0180708
S1130FC078F0EC2FF0E0ED55FF4F849180935D02B3
S1130FD0ED2FF0E0ED55FF4FE491E0935C020EC07D
S1130FE00536110540F0ED2FF0E0ED55FF4F8491EB
S1130FF080935C0203C00B30110538F0E52FF0E05C
S1131000ED55FF4FE491E0935B02F901ED55FF4F7D
S1131010E491E0935A02DF91CF911F910F910895CB
S1131020392F32953F70292F2F70FC0194E0F695EB
S1131030E7959A95E1F79E2F9F708F70A8E5B2E02F
S113104067707C91707E4370542F550F550F550F68
S1131050472F462B452B4C93E32FF0E0ED55FF4FE4
S1131060349115963C931597E22FF0E0ED55FF4F20
S1131070249114962C931497E92FF0E0ED55FF4F2B
S1131080E4911396EC931397E82FF0E0ED55FF4F9E
S1131090E4911296EC93089584B38F7084BB84B367
S11310A0806F84BB85B38F7085BB40E064E080E0D3
S11310B090E00C94100880E487B984E986B9089517
S11310C02FB7F89497B1907F97B997B18770892B10
S11310D087B9369A349BFECF84B195B12FBF08955A
S11310E00E946008969587959695879508950C9427
S11310F062060E94660690915E02892B10925E023F
S113110090915F02209164023091650240916002E7
S1131110442319F04093620205C02D33310510F0C9
S113112010926202109260021092630289130FC03F
S11311302F5F3F4F2432310518F41092610202C030
S11311408093610230936502209364020895809332
S11311505F028095892390916102982381F4109213
S1131160650210926402235031092032310538F4AB
S113117080936002909162028923809363020895B0
S113118080916402909165020895809160020895AF
S1131190809161020895AA1BBB1B51E107C0AA1FDD
S11311A0BB1FA617B70710F0A61BB70B881F991F04
S11311B05A95A9F780959095BC01CD010895A1E2B7
S11311C01A2EAA1BBB1BFD010DC0AA1FBB1FEE1FBD
S11311D0FF1FA217B307E407F50720F0A21BB30B08
S11311E0E40BF50B661F771F881F991F1A9469F784
S11311F060957095809590959B01AC01BD01CF01E0
S11312000895EE0FFF1F0590F491E02D0994F894D2
S1051210FFCF0A
S9030000FC
