:100000000C9452000C94E8060C94F5060C948603AC
:100010000C9492020C9459030C94FF020C942C0340
:100020000C9465020C9412020C9464000C943C0431
:100030000C9464000C9405040C9464000C9464000B
:100040000C9464000C9464000C9464000C94D20230
:100050000C9464008D0492049E04A304A804AD04CF
:10006000B204B7043031323334353637383941428F
:100070004344454600547970653D25630A004D614F
:10008000696E20626F6172642068657265210A0082
:10009000C0F9A4B0999282F880908883C6A1868E18
:1000A000FFFEF70011241FBECFE5D4E0DEBFCDBFB9
:1000B00021E0A0E6B0E001C01D92AD36B207E1F745
:1000C0000E94BD060C948D080C940000FC018FB7B3
:1000D000F89471836083538342831782168215825A
:1000E00014828FBF0895FC019FB7F8944481558115
:1000F00041155105C9F026813781A081B181A20F38
:10010000B31F8C912F5F3F4F3783268362817381AA
:100110002617370720F0261B370B378326834150DD
:1001200051095583448301C080E09FBF0895FC01BD
:10013000362F2FB7F894A481B58162817381A617F9
:10014000B70798F4868197818A0F9B1F0E945108F8
:10015000A081B181A80FB91F3C938481958101963C
:10016000958384832FBF8FEF08952FBF80E008957C
:10017000FC014FB7F89482819381248135814FBF70
:10018000821B930B08959093610080936000089503
:10019000CF93C82F8A3031F4E0916000F091610074
:1001A0008DE00995E0916000F09161008C2FCF9176
:1001B00009948F70E82FF0E0EC59FF4F84910C9474
:1001C000C8005F926F927F928F929F92AF92BF9280
:1001D000CF92DF92EF92FF920F931F93CF93DF9313
:1001E0001F92CDB7DEB7EC89FD893E0126E1620E94
:1001F000711C3AE0A32EB12C3B89332381F08F018F
:100200000F5F1F4F8491853289F0882309F466C0FF
:100210000E94C800630178013601F701EDCF8081AB
:10022000853259F08F010F5F1F4FEFCF7F0182E0C2
:10023000E80EF11CF801849105C07F0122E0E20E76
:10024000F11C81818436A1F0883761F0833631F466
:10025000F301808193012E5F3F4F39010E94C80056
:100260006301DACF20E1822E912C00E010E105C07D
:100270009AE0892E912C00E117E2630132E0C30E6F
:10028000D11CF301608071808436A1F477FE0FC029
:100290007194619471088DE20E94C80008C0C80181
:1002A000B5010E9451088B016230710518F060168B
:1002B0007106A8F3C301B8010E945108582E862F79
:1002C00099830E94D900652C9981792EC801B401C7
:1002D0000E9451088B01672B69F79ECF80E090E068
:1002E0000F90DF91CF911F910F91FF90EF90DF90D2
:1002F000CF90BF90AF909F908F907F906F905F90C6
:10030000089593B7987F892B83BF089585E00E9455
:10031000810112BE89B7816089BF89B7826089BFB8
:100320001092F6001092F7001092F8001092F90067
:1003300008959EB5987F892B8EBD089582E00E9416
:1003400099011DBC1CBC89B7846089BF089595B50F
:10035000987F892B85BD089586E00E94A70114BC73
:1003600089B7806489BF89B7806889BF1092FE0011
:100370001092FF0010920001109201010895883040
:1003800040F4E82FF0E0EE0FFF1FEE59FF4F7183AE
:1003900060830895883040F4E82FF0E0EE0FFF1FEF
:1003A000EE59FF4F118210820895CF93C0E08C2F39
:1003B0000E94CA01CF5FC830D1F70E9486010E9417
:1003C0009E010E94AC017894CF910895893031F458
:1003D0008FB582608FBD8FB58E7F0AC08A3019F4C9
:1003E0008FB5826002C08FB58D7F8FBD8FB5816064
:1003F0008FBD1BBC1ABC19BC18BC08958FB5806892
:100400008FBD8FB58F7B8FBD08958FB580628FBDF7
:100410008FB58F7E8FBD08959BBD8ABD089599BD10
:1004200088BD08951F920F920FB60F9211242F933B
:100430003F934F935F936F937F938F939F93AF936C
:10044000BF93EF93FF938091F6009091F700A091F6
:10045000F800B091F9000196A11DB11D8093F6003E
:100460009093F700A093F800B093F9008091FA0000
:100470009091FB00A091FC00B091FD000196A11DA0
:10048000B11D8093FA009093FB00A093FC00B09301
:10049000FD008091620090916300892B29F0E0912A
:1004A0006200F09163000995FF91EF91BF91AF91C8
:1004B0009F918F917F916F915F914F913F912F917C
:1004C0000F900FBE0F901F9018951F920F920FB6AE
:1004D0000F9211242F933F934F935F936F937F93CA
:1004E0008F939F93AF93BF93EF93FF93809164009B
:1004F00090916500892B29F0E0916400F0916500EE
:100500000995FF91EF91BF91AF919F918F917F914D
:100510006F915F914F913F912F910F900FBE0F9070
:100520001F9018951F920F920FB60F9211242F93C0
:100530003F934F935F936F937F938F939F93AF936B
:10054000BF93EF93FF938091FE009091FF00A091E5
:100550000001B09101010196A11DB11D8093FE0023
:100560009093FF00A0930001B093010180916C0073
:1005700090916D00892B29F0E0916C00F0916D0055
:100580000995FF91EF91BF91AF919F918F917F91CD
:100590006F915F914F913F912F910F900FBE0F90F0
:1005A0001F9018951F920F920FB60F9211242F9340
:1005B0003F934F935F936F937F938F939F93AF93EB
:1005C000BF93EF93FF938091700090917100892BFE
:1005D00029F0E0917000F09171000995FF91EF9181
:1005E000BF91AF919F918F917F916F915F914F914B
:1005F0003F912F910F900FBE0F901F9018951F9253
:100600000F920FB60F9211242F933F934F935F9346
:100610006F937F938F939F93AF93BF93EF93FF93CA
:100620008091660090916700892B29F0E091660027
:10063000F09167000995FF91EF91BF91AF919F9164
:100640008F917F916F915F914F913F912F910F907B
:100650000FBE0F901F9018951F920F920FB60F921A
:1006600011242F933F934F935F936F937F938F93B7
:100670009F93AF93BF93EF93FF9380916800909106
:100680006900892B29F0E0916800F09169000995D3
:10069000FF91EF91BF91AF919F918F917F916F915A
:1006A0005F914F913F912F910F900FBE0F901F9030
:1006B00018951F920F920FB60F9211242F933F930C
:1006C0004F935F936F937F938F939F93AF93BF935A
:1006D000EF93FF9380916A0090916B00892B29F032
:1006E000E0916A00F0916B000995FF91EF91BF9145
:1006F000AF919F918F917F916F915F914F913F91BA
:100700002F910F900FBE0F901F9018951F920F9270
:100710000FB60F9211242F933F934F935F936F93D4
:100720007F938F939F93AF93BF93EF93FF938091AA
:100730006E0090916F00892B29F0E0916E00F0918E
:100740006F000995FF91EF91BF91AF919F918F91AC
:100750007F916F915F914F913F912F910F900FBEBD
:100760000F901F90189540E450E064EB70E083E038
:1007700091E00E94660040E450E064E770E08CE0A5
:1007800091E00C9466000E94B303109273001092E3
:10079000720088ED8AB98FE589B910BC8FEF80931C
:1007A000020110920B01109215011092140178941D
:1007B00008950F931F938B019C01DC01CB01905E88
:1007C000A34EBF4FBC01CD0143E0660F771F881FCA
:1007D000991F4A95D1F7A9019801E4E0220F331F30
:1007E000441F551FEA95D1F70E9465082150310931
:1007F00029B930BD1F910F9108959091020199235D
:10080000E1F38CB91092020108951F920F920FB676
:100810000F9211242F933F934F935F936F937F9386
:100820008F939F93AF93BF93EF93FF9380910B01AF
:10083000882371F08091100190911101892B31F082
:100840008CE091E00E9473008CB905C010920B01FE
:100850008FEF80930201FF91EF91BF91AF919F9134
:100860008F917F916F915F914F913F912F910F9059
:100870000FBE0F901F9018951F920F920FB60F92F8
:1008800011242F933F934F935F936F937F938F9395
:100890009F93AF93BF93EF93FF938CB1209172001E
:1008A00030917300232B31F0E0917200F0917300CE
:1008B000099510C0682F83E091E00E949700811194
:1008C00009C0809114019091150101969093150132
:1008D00080931401FF91EF91BF91AF919F918F9100
:1008E0007F916F915F914F913F912F910F900FBE2C
:1008F0000F901F90189582B780518CBFE6E1F1E010
:10090000808181608083089590E088309105A8F50A
:10091000FC01E65DFF4F0C94870840E060E080E05A
:1009200090E029C0613029F040E060E081E090E093
:1009300022C00E94E30640E060E01DC040E060E0AD
:1009400082E090E018C040E060E083E090E013C0F7
:1009500040E060E084E090E00EC040E060E085E0D0
:1009600090E009C040E060E086E090E004C040E034
:1009700060E087E090E00C94490708950E94C3036B
:1009800060E07BE480E090E00E94D9038DEF93E08B
:100990000E94C3000E94F8070E94D5018C9A8D9A8C
:1009A00088E00E94E6010E94FE010C9405020E946C
:1009B000FD070E9465060E94E907E6E1F1E0158A5D
:1009C000168A178A108E80EE91E0948F838F158E91
:1009D0000E94D2066BE774E087E00E94BF018EE7B9
:1009E00090E09F938F9381E08F930E94E1000F909E
:1009F0000F900F9008950F931F93CF938091F40061
:100A00009091F50001969093F5008093F400809109
:100A10002E018F5F8D3318F480932E0102C0109247
:100A20002E01809131019091320101978E3F2FEF7D
:100A3000920720F49093320180933101C0912B01F1
:100A4000C13009F450C018F0C23089F116C180914C
:100A50003101909132019C01215031092E3F3F4FCD
:100A600088F56BE370E00E945108892B41F4809176
:100A700033018F5F8093330160E00E9484040E9401
:100A80005706882309F4F9C00E944608CC9709F05C
:100A9000F4C080EE91E09093320180933101109286
:100AA0002B0184E080932D0110923301E6C08091E8
:100AB0003101909132019C01215031092E3F3F4F6D
:100AC00008F45BC0892B09F0D8C08FEF9FEF90939B
:100AD00032018093310181E080932B0110922D012E
:100AE00080933301CAC00E944B088823A9F00E945A
:100AF0005B06882361F084EB90E090933201809351
:100B0000310182E080932B01C0932D01B6C0CF91BB
:100B10001F910F910C9453060E944E08882349F0B0
:100B20000E946006811182C0CF911F910F910C9499
:100B3000570661E0809133010E9484040091050111
:100B40001091060183E091E00E94B8000817190790
:100B500009F493C083E091E00E9473001F928F9389
:100B600085E790E09F938F93CF930E94E1000F90D1
:100B70000F900F900F900F9080C00E944B08882319
:100B8000B9F10E945B068823B9F08091330181504E
:100B900009F487E08093330162E0809133010E9481
:100BA000840484EB90E0909332018093310182E0E1
:100BB00080932B0181E05FC00E945306882309F4D3
:100BC0005CC08091190190911A01019790931A01CC
:100BD0008093190141E060E00E94490784EB90E0B6
:100BE0009093320180933101C0932B0183E043C085
:100BF0000E944E08882309F440C00E9460068823A2
:100C0000F9F00E9446086AE070E00E945108892BC2
:100C1000B9F4809133018F5F883008F081E08093D0
:100C2000330162E0809133010E94840484EB90E000
:100C3000909332018093310182E080932B011BC09D
:100C40000E9457068823C9F08091190190911A01DA
:100C5000019690931A018093190142E060E00E948E
:100C6000490784EB90E0909332018093310182E058
:100C700080932B0184E080932D01CF911F910F91E0
:100C800008958091160180FFFCCF809116018E7F20
:100C900080931601089584B3837084BB089583B351
:100CA0008095837008958091670181700895809187
:100CB000680181700895809167018695817008951B
:100CC0008091680186958170089587B3897F87BB7D
:100CD00087B3866087BB88B3866088BBE9E4F1E0B0
:100CE0008081887F8460886080839CE39183ABE40B
:100CF000B1E08C91887F846088608C9393830895A1
:100D0000AAE4B1E040E050E0CA01880F991FFC015D
:100D1000E75BFE4F308137702C91343019F0230F90
:100D20002D3338F0FC01E75BFE4F208128602083E3
:100D300020E02C93332311F02F3130F0FC01E75BDE
:100D4000FE4F8081877F808312964130510519F0D4
:100D500041E050E0D9CF8091490183FF02C082E099
:100D600001C080E090914B0193FD846098B3997F1E
:100D700098BB98B3892B88BB08950E94BE040E943B
:100D8000D7040E9441060E94FF070E94FB040E94B4
:100D900080060E9402070E94E206F3CF84B5875CBA
:100DA00083BD089581B3837F81BB80E090E00E9482
:100DB0000F0280E090E00E940C026EEC76E086E08C
:100DC0000C94BF01089580914D0190914E010895BA
:100DD0001F920F920FB60F9211248F9380B38F91B1
:100DE0000F900FBE0F901F9018951F920F920FB685
:100DF0000F9211248F9380B38F910F900FBE0F909D
:100E00001F9018950F931F934091610150916201BB
:100E1000609163017091640180E28A019B01440F3B
:100E2000551F661F771FAF98AE9837FDAE9AAF9AE1
:100E3000815099F790915F01977080916001943093
:100E400019F0890F8D3330F080915F018F7D809391
:100E50005F0180E080936001992311F08F3128F0C9
:100E600080915F01806280935F0180915F0185FDC9
:100E700002C0AC9803C0887119F4AC9AAD9806C052
:100E8000883011F4AC9801C0AC9AAD9A1F910F91C3
:100E900008950F931F93CF93DF938C01362F68EE45
:100EA00073E00E945108C62F64E670E00E9451086A
:100EB000D62F6AE070E00E945108562F377060917B
:100EC0005F01607E4370942F990F990F990F462F01
:100ED000432B492B40935F01E0EAF0E0949190931B
:100EE0006401949190936301949190936201E491D1
:100EF000282F30E0093E83E0180778F0EC2FF0E06F
:100F0000E057FF4F849180936401ED2FF0E0E057AC
:100F1000FF4FE491E09363010EC00536110540F0E8
:100F2000ED2FF0E0E057FF4F84918093630103C001
:100F30000B30110538F0E52FF0E0E057FF4FE4915A
:100F4000E0936201F901E057FF4FE491E093610102
:100F5000DF91CF911F910F910895392F32953F70F6
:100F6000292F2F70FC0194E0F695E7959A95E1F70B
:100F70009E2F9F708F70AFE5B1E067707C91707E9F
:100F80004370542F550F550F550F472F462B452BA8
:100F90004C93E32FF0E0E057FF4F349115963C93CC
:100FA0001597E22FF0E0E057FF4F249114962C9311
:100FB0001497E92FF0E0E057FF4FE4911396EC937C
:100FC0001397E82FF0E0E057FF4FE4911296EC936F
:100FD000089584B38F7084BB84B3806F84BB85B362
:100FE0008F7085BB40E064E080E090E00C94AD073A
:100FF00080E487B984E986B908950C944B060E9471
:101000004F0690916501892B1092650190916601C0
:1010100020916B0130916C0140916701442319F0DC
:101020004093690105C02D33310510F0109269011C
:101030001092670110926A0189130FC02F5F3F4F12
:101040002432310518F41092680102C080936801BF
:1010500030936C0120936B01089580936601809515
:10106000892390916801982381F410926C01109269
:101070006B01235031092032310538F48093670128
:1010800090916901892380936A01089580916B0191
:1010900090916C0108958091670108958091680195
:1010A0000895AA1BBB1B51E107C0AA1FBB1FA617AF
:1010B000B70710F0A61BB70B881F991F5A95A9F701
:1010C00080959095BC01CD010895A1E21A2EAA1B2E
:1010D000BB1BFD010DC0AA1FBB1FEE1FFF1FA217E8
:1010E000B307E407F50720F0A21BB30BE40BF50BE5
:1010F000661F771F881F991F1A9469F7609570956E
:10110000809590959B01AC01BD01CF010895EE0F34
:0E111000FF1F0590F491E02D0994F894FFCF95
:00000001FF
