S01B00004C6576656C4D657465724D61696E626F6172642E7372656387
S11300000C9467000C9479000C9479000C9479009A
S11300100C9479000C9479000C9479000C94790078
S11300200C9479000C9479000C9479000C945C0283
S11300300C9479000C9421020C9479000C947900AE
S11300400C9479000C9479000C9479000C94790048
S11300500C947900303132333435363738394142F3
S11300604344454600547970653D25630A00504277
S1130070746E31382C436C65617220486F6D650A6B
S1130080005042746E390A005042746E350A0050B2
S113009042746E310A005042746E31350A00504287
S11300A0746E31340A005042746E31330A0072683F
S11300B03D25780A00726C3D25780A00524620726C
S11300C0656D6F7465207374617274210A00112464
S11300D01FBECFE5D4E0DEBFCDBF21E0A0E6B0E097
S11300E001C01D92AC30B207E1F70E9467030C9483
S11300F032040C940000FC018FB7F8947183608380
S11301005383428317821682158214828FBF089507
S1130110FC019FB7F8944481558141155105C9F0FC
S113012026813781A081B181A20FB31F8C912F5FEB
S11301303F4F37832683628173812617370720F068
S1130140261B370B3783268341505109558344833B
S113015001C080E09FBF0895CF93DF93FC01D62FA9
S1130160CFB7F8944481558162817381461757074C
S113017098F486819781840F951F0E94ED03A081D6
S1130180B181A80FB91FDC93848195810196958371
S11301908483CFBF8FEF02C0CFBF80E0DF91CF91C8
S11301A00895FC014FB7F8948281938124813581AD
S11301B04FBF821B930B089590936100809360005E
S11301C00895CF93C82F8A3031F4E0916000F09104
S11301D061008DE00995E0916000F09161008C2F41
S11301E00995CF9108958F70E82FF0E0EC5AFF4FF6
S11301F084910E94E10008952F923F924F925F9262
S11302006F927F928F929F92AF92BF92CF92DF9222
S1130210EF92FF920F931F93CF93DF93CDB7DEB787
S11302207D88CE88DF884E0128E1820E911C512CF6
S1130230612C412C06C0882309F48DC00E94E10082
S11302406801772041F086010F5F1F4FF60184910A
S1130250853289F708C0F6018081853251F0860124
S11302600F5F1F4FE8CFF2E0CF0ED11CF80184914D
S113027006C0F601818196012E5F3F4F69018436E5
S113028071F0883709F459C0833631F4F401808160
S113029094012E5F3F4F49010E94E100D2CFF40147
S11302A0E080F18032E0830E911CFF2034F4F1945D
S11302B0E194F1088DE20E94E10080E1E81687E212
S11302C0F806D0F400E117E29801ADECBCEC0E9412
S11302D023048C0116950795169507951695079591
S11302E00230110588F0E016F10670F30F2EFAE0E3
S11302F02F2EF02D352C0DC00F2EFAE02F2EF02DC1
S1130300352C00E117E205C00F2EFAE02F2EF02D58
S1130310352CC701B8010E94ED03A82EB92E862FF3
S11303200E94F300EA2CFB2CC801622D732D0E945D
S1130330ED038B01672B69F784CFF401E080F18032
S113034094012E5F3F4F49016894222424F8362CEF
S1130350042D10E1DECF80E090E0DF91CF911F917A
S11303600F91FF90EF90DF90CF90BF90AF909F9050
S11303708F907F906F905F904F903F902F90089553
S113038040E450E064EA70E085EE90E00E947B0077
S113039040E450E064E670E08EEE90E00E947B0062
S11303A008950E94C001109263001092620088EDCB
S11303B08AB98FE589B910BC8FEF8093E40010925D
S11303C0ED001092F7001092F600789408950F93C0
S11303D01F938B019C01DC01CB01905EA34EBF4FA8
S11303E0880F991FAA1FBB1F880F991FAA1FBB1F25
S11303F0BC01CD01660F771F881F991F000F111FC5
S1130400221F331F000F111F221F331FA901980140
S1130410220F331F441F551F220F331F441F551F24
S11304200E9401042150310929B930BD1F910F9157
S113043008959091E4009923E1F38CB91092E400BB
S113044008951F920F920FB60F9211242F933F938A
S11304504F935F936F937F938F939F93AF93BF93C8
S1130460EF93FF938091ED00882391F08091F20047
S11304709091F300892B31F08EEE90E00E94880079
S11304808CB909C01092ED008FEF8093E40003C093
S11304908FEF8093E400FF91EF91BF91AF919F9113
S11304A08F917F916F915F914F913F912F910F9019
S11304B00FBE0F901F9018951F920F920FB60F92B8
S11304C011242F933F934F935F936F937F938F9355
S11304D09F93AF93BF93EF93FF938CB120916200EE
S11304E030916300232B31F0E0916200F0916300BE
S11304F0099510C0682F85EE90E00E94AC00811130
S113050009C08091F6009091F70001969093F7004E
S11305108093F600FF91EF91BF91AF919F918F91DE
S11305207F916F915F914F913F912F910F900FBEEB
S11305300F901F9018950E94D10160E875E280E049
S113054090E00E94E70189E192E00E94DC000895B6
S11305500E9477038CEB90E09F938F9381E08F93BD
S11305600E94FC000F900F900F900895CF93DF939B
S11305708091FE00882309F489C01F928F9385EB34
S113058090E09F938F93C1E0CF930E94FC008091F1
S1130590FE0090E0990F880B982F9F938F938EEA1B
S11305A090E09F938F93CF930E94FC008091FF0073
S11305B02DB73EB7265F3F4F0FB6F8943EBF0FBE30
S11305C02DBF84FF0CC086EA90E09F938F9381E057
S11305D08F930E94FC000F900F900F9057C080FFE4
S11305E00CC08EE990E09F938F9381E08F930E94DB
S11305F0FC000F900F900F9049C09091FE0094FF63
S11306000CC086E990E09F938F9381E08F930E94C2
S1130610FC000F900F900F9039C0882364F48FE88A
S113062090E09F938F9381E08F930E94FC000F9042
S11306300F900F902BC086FF0CC088E890E09F932A
S11306408F9381E08F930E94FC000F900F900F9086
S11306501DC085FF0CC081E890E09F938F9381E0DB
S11306608F930E94FC000F900F900F900FC0809109
S1130670000182FF0BC08EE690E09F938F9381E090
S11306808F930E94FC000F900F900F90C091E70091
S1130690D091E80085EE90E00E94D100C817D907F8
S11306A099F085EE90E00E9488001F928F9385E672
S11306B090E09F938F9381E08F930E94FC000F90B2
S11306C00F900F900F900F90DF91CF9108950E949B
S11306D09B020E94A80226E686EE90E0215080400C
S11306E09040E1F70E9481030E94B602F4CF81B3E7
S11306F0877881BB82B3886782BB14BA80EF85BBDD
S1130700089580B340E050E020E0E0EF68E070E05E
S113071014BAE5BB34B3CB01042E02C0959587957A
S11307200A94E2F7932F982B94BB95B38095892371
S113073085BB83B390E080959095807F99279595AC
S11307408795959587959595879595958795229500
S1130750207F282B4F5F5F4F44305105C9F6E8EFE7
S1130760F0E08081282B108283814289538996810D
S1130770992319F09093040105C04D33510510F0ED
S113078010920401E8EFF0E01682178628130FC0D8
S11307904F5F5F4F4432510518F41092010102C0BB
S11307A02093010150930B0140930A010895E8EF4F
S11307B0F0E02383209528238185822369F4109215
S11307C00B0110920A01435051094032510520F4A3
S11307D026838485282327870895AA1BBB1B51E100
S11307E007C0AA1FBB1FA617B70710F0A61BB70B9D
S11307F0881F991F5A95A9F780959095BC01CD0142
S11308000895A1E21A2EAA1BBB1BFD010DC0AA1F4D
S1130810BB1FEE1FFF1FA217B307E407F50720F065
S1130820A21BB30BE40BF50B661F771F881F991FE0
S11308301A9469F760957095809590959B01AC0129
S1130840BD01CF010895A29FB001B39FC001A39F32
S1130850700D811D1124911DB29F700D811D1124F5
S10B0860911D0895F894FFCFE7
S9030000FC
