:100000000C945F000C9471000C9471000C947100BE
:100010000C9471000C9471000C9471000C9471009C
:100020000C9471000C9471000C9471000C940C02EF
:100030000C9471000C94D5010C9471000C94710017
:100040000C9471000C9471000C9471000C9471006C
:100050000C947100560259025C025F026202650252
:1000600068026B0230313233343536373839414229
:1000700043444546006C453D25640A0A0064433DFF
:1000800025640A0A006D543D25642C307825780AD1
:1000900000774D3D25640A004D61696E20626F61F5
:1000A00072642068657265210A00C0F9A4B0999253
:1000B00082F880908883C6A1868EFFFEF700112407
:1000C0001FBECFE5D4E0DEBFCDBF21E0A0E6B0E0AB
:1000D00001C01D92A733B207E1F70E9460040C949F
:1000E000F7050C940000FC018FB7F89471836083CE
:1000F0005383428317821682158214828FBF08951C
:10010000FC019FB7F8944481558141155105C9F010
:1001100026813781A081B181A20FB31F8C912F5FFF
:100120003F4F37832683628173812617370720F07C
:10013000261B370B3783268341505109558344834F
:1001400001C080E09FBF0895FC01362F2FB7F894BF
:10015000A481B58162817381A617B70798F486815F
:1001600097818A0F9B1F0E94BB05A081B181A80FB8
:10017000B91F3C93848195810196958384832FBF19
:100180008FEF08952FBF80E00895909361008093D2
:1001900060000895CF93C82F8A3031F4E091600059
:1001A000F09161008DE00995E0916000F0916100AF
:1001B0008C2FCF9109948F70E82FF0E0EC59FF4F0E
:1001C00084910C94CA005F926F927F928F929F925B
:1001D000AF92BF92CF92DF92EF92FF920F931F9355
:1001E000CF93DF931F92CDB7DEB7EC89FD893E0137
:1001F00026E1620E711C3AE0A32EB12C3B89332319
:1002000081F08F010F5F1F4F8491853289F0882321
:1002100009F466C00E94CA00630178013601F70143
:10022000EDCF8081853259F08F010F5F1F4FEFCFE7
:100230007F0182E0E80EF11CF801849105C07F0186
:1002400022E0E20EF11C81818436A1F0883761F052
:10025000833631F4F301808193012E5F3F4F3901E2
:100260000E94CA006301DACF20E1822E912C00E0C7
:1002700010E105C09AE0892E912C00E117E263019C
:1002800032E0C30ED11CF301608071808436A1F48A
:1002900077FE0FC07194619471088DE20E94CA00CC
:1002A00008C0C801B5010E94BB058B016230710511
:1002B00018F060167106A8F3C301B8010E94BB05CF
:1002C000582E862F99830E94DB00652C9981792E08
:1002D000C801B4010E94BB058B01672B69F79ECF53
:1002E00080E090E00F90DF91CF911F910F91FF90F0
:1002F000EF90DF90CF90BF90AF909F908F907F90C6
:100300006F905F90089540E450E064EA70E087EEFB
:1003100090E00E94730040E450E064E670E080EFFB
:1003200090E00C9473000E9483011092630010927D
:10033000620088ED8AB98FE589B910BC8FEF809390
:10034000E6001092EF001092F9001092F8007894F5
:1003500008950F931F938B019C01DC01CB01905EEC
:10036000A34EBF4FBC01CD0143E0660F771F881F2E
:10037000991F4A95D1F7A9019801E4E0220F331F94
:10038000441F551FEA95D1F70E94CF05215031092E
:1003900029B930BD1F910F9108959091E6009923DE
:1003A000E1F38CB91092E60008951F920F920FB6F8
:1003B0000F9211242F933F934F935F936F937F93EB
:1003C0008F939F93AF93BF93EF93FF938091EF0031
:1003D000882371F08091F4009091F500892B31F021
:1003E00080EF90E00E9480008CB905C01092EF0071
:1003F0008FEF8093E600FF91EF91BF91AF919F91B6
:100400008F917F916F915F914F913F912F910F90BD
:100410000FBE0F901F9018951F920F920FB60F925C
:1004200011242F933F934F935F936F937F938F93F9
:100430009F93AF93BF93EF93FF938CB12091620092
:1004400030916300232B31F0E0916200F091630062
:10045000099510C0682F87EE90E00E94A4008111DA
:1004600009C08091F8009091F90001969093F900ED
:100470008093F800FF91EF91BF91AF919F918F9181
:100480007F916F915F914F913F912F910F900FBE90
:100490000F901F90189590E08830910500F5FC01B1
:1004A000E65DFF4F40E060E00C94F10580E090E0F5
:1004B00014C081E090E011C082E090E00EC083E0C3
:1004C00090E00BC084E090E008C085E090E005C0BB
:1004D00086E090E002C087E090E00C94B8040895B4
:1004E0000E94930160E875E280E090E00E94A9011B
:1004F0008DEC91E00C94C5000E9467050E940804F1
:100500000E945805EAEFF0E01486158616861786D5
:1005100080EE91E0938B828B148A158A88E990E0B3
:100520009F938F9381E08F930E94E3000F900F9031
:100530000F900895CF938091E4009091E50001968B
:100540009093E5008093E400809109018F5F8D33E3
:1005500018F48093090102C01092090180910C01E6
:1005600090910D0101978E3F2FEF920720F4909309
:100570000D0180930C01C0910601C13009F44EC0F9
:1005800018F0C23081F1EFC080910C0190910D0103
:100590009C01215031092E3F3F4F78F56BE370E00D
:1005A0000E94BB05892B39F480910E018F5F8093E7
:1005B0000E010E944B020E94FA03882309F4D3C063
:1005C0000E94B005CC9709F0CEC080EE91E09093E8
:1005D0000D0180930C011092060184E080930801C4
:1005E00010920E01C0C080910C0190910D019C01F0
:1005F000215031092E3F3F4FC0F1892B09F0B3C084
:100600008FEF9FEF90930D0180930C0181E0809319
:1006100006011092080180930E01A5C00E94B50545
:10062000882399F00E94FE03882361F084EB90E018
:1006300090930D0180930C0182E080930601C0939A
:10064000080191C00E94F6038EC00E94B80588235D
:1006500039F00E94030481115FC00E94FA0383C035
:1006600080910E010E944B027EC00E94B505882336
:10067000B1F10E94FE038823B1F080910E018150F8
:1006800009F487E080930E0180910E010E944B02D5
:1006900084EB90E090930D0180930C0182E08093B5
:1006A000060181E05EC00E94F603882309F45BC066
:1006B0008091FC009091FD0001979093FD00809344
:1006C000FC0041E060E00E94B80484EB90E090936D
:1006D0000D0180930C01C093060183E042C00E948B
:1006E000B805882309F43FC00E9403048823F1F071
:1006F0000E94B0056AE070E00E94BB05892BB1F44E
:1007000080910E018F5F883008F081E080930E01A8
:1007100080910E010E944B0284EB90E090930D01BA
:1007200080930C0182E0809306011BC00E94FA03B3
:100730008823C9F08091FC009091FD000196909370
:10074000FD008093FC0042E060E00E94B80484EB6E
:1007500090E090930D0180930C0182E0809306015C
:1007600084E080930801809106011F928F9381E9B4
:1007700090E09F938F93C1E0CF930E94E30080911C
:100780000C0190910D019F938F939F938F9385E818
:1007900090E09F938F93CF930E94E30080910E018E
:1007A0001F928F938DE790E09F938F93CF930E943A
:1007B000E300809108011F928F9385E790E09F935B
:1007C0008F93CF930E94E3008DB79EB746960FB6E6
:1007D000F8949EBF0FBE8DBFCF91089584B38370F0
:1007E00084BB089583B3809583700895809131010F
:1007F0008170089580913201817008958091310156
:100800008695817008958091320186958170089552
:1008100087B3897F87BB87B3866087BB88B38660D1
:1008200088BBE5E2F1E08081887F84608860808316
:100830009CE39183A7E2B1E08C91887F846088601B
:100840008C9393830895A6E2B1E040E050E0CA01A2
:10085000880F991FFC01EB5DFE4F308137702C91A2
:10086000343019F0230F2D3338F0FC01EB5DFE4FCF
:1008700020812860208320E02C93332311F02F3136
:1008800030F0FC01EB5DFE4F8081877F8083129604
:100890004130510519F041E050E0D9CF8091250158
:1008A00083FF02C082E001C080E09091270193FDA8
:1008B000846098B3997F98BB98B3892B88BB0895BF
:1008C0000E9470020E947C0281E090EF0197F1F794
:1008D0000E9469050E949A020E9423040E947104EA
:1008E000F3CF0F931F9340912B0150912C016091F6
:1008F0002D0170912E0180E28A019B01440F551F4A
:10090000661F771FAF98AE9837FDAE9AAF9A8150A9
:1009100099F790912901977080912A01943019F0EC
:10092000890F8D3330F0809129018F7D80932901CB
:1009300080E080932A01992311F08F3128F0809173
:1009400029018062809329018091290185FD02C0DF
:10095000AC9803C0887119F4AC9AAD9806C0883081
:1009600011F4AC9801C0AC9AAD9A1F910F91089503
:100970000F931F93CF93DF938C01362F68EE73E0B4
:100980000E94BB05C62F64E670E00E94BB05D62F0F
:100990006AE070E00E94BB05562F37706091290114
:1009A000607E4370942F990F990F990F462F432B18
:1009B000492B40932901EAEBF0E0949190932E01AA
:1009C000949190932D01949190932C01E491282F70
:1009D00030E0093E83E0180778F0EC2FF0E0E655B0
:1009E000FF4F849180932E01ED2FF0E0E655FF4FED
:1009F000E491E0932D010EC00536110540F0ED2F76
:100A0000F0E0E655FF4F849180932D0103C00B3039
:100A1000110538F0E52FF0E0E655FF4FE491E09343
:100A20002C01F901E655FF4FE491E0932B01DF9192
:100A3000CF911F910F910895392F32953F70292F33
:100A40002F70FC0194E0F695E7959A95E1F79E2FBB
:100A50009F708F70A9E2B1E067707C91707E4370E7
:100A6000542F550F550F550F472F462B452B4C93A1
:100A7000E32FF0E0E655FF4F349115963C93159720
:100A8000E22FF0E0E655FF4F249114962C93149733
:100A9000E92FF0E0E655FF4FE4911396EC9313979E
:100AA000E82FF0E0E655FF4FE4911296EC9308959D
:100AB00084B38F7084BB84B3806F84BB85B38F7025
:100AC00085BB40E064E080E090E00C941C050C9451
:100AD000EE030E94F20390912F01892B10922F01B7
:100AE00090913001209135013091360140913101D2
:100AF000442319F04093330105C02D33310510F024
:100B000010923301109231011092340189130FC0F9
:100B10002F5F3F4F2432310518F41092320102C08A
:100B200080933201309336012093350108958093EC
:100B300030018095892390913201982381F410929D
:100B4000360110923501235031092032310538F435
:100B5000809331019091330189238093340108956A
:100B60008091350190913601089580913101089569
:100B7000809132010895AA1BBB1B51E107C0AA1F37
:100B8000BB1FA617B70710F0A61BB70B881F991F2E
:100B90005A95A9F780959095BC01CD010895A1E2E1
:100BA0001A2EAA1BBB1BFD010DC0AA1FBB1FEE1FE7
:100BB000FF1FA217B307E407F50720F0A21BB30B32
:100BC000E40BF50B661F771F881F991F1A9469F7AE
:100BD00060957095809590959B01AC01BD01CF010A
:100BE0000895EE0FFF1F0590F491E02D0994F894FD
:020BF000FFCF35
:00000001FF
