S01A00004C6576656C4D65746572526652656D6F74652E73726563F1
S11300000C94FF000C941C010C941C010C941C0116
S11300100C941C010C941C010C941C010C941C01E8
S11300200C941C010C94B9040C94E6040C94F20393
S11300300C948C040C9432040C945F040C94C5034B
S11300400C941C010C941C010C9472030C941C0160
S11300500C94A3050C941C010C946B050C941C01CA
S11300600C941C010C941C010C941C010C941C0198
S11300700C941C010C941C010C941C01303132337F
S1130080343536373839414243444546000000018F
S11300900008004000000100045475726E696E6728
S11300A0206F666620616C6C2050574D206F6E2067
S11300B074696D6572310D0A00506175736520664F
S11300C06F722035207365636F6E64732E2E2E0D50
S11300D00A005475726E696E67206F6E20636861E2
S11300E06E6E656C204220746F6F2C207769746883
S11300F0203735252520647574790D0A00536574FD
S113010074696E672064757479206379636C652003
S1130110746F20323525250D0A005475726E696E90
S113012067206F6E2074696D657231206368616E3B
S11301306E656C20412050574D206F757470757436
S11301400D0A00496E697469616C697A696E672089
S113015074696D65723120666F722050574D0D0AB7
S1130160000D0A54657374206F662074696D65729E
S1130170312050574D206F75747075740D0A00440A
S11301806F6E65210D0A004865726520636F6D65A9
S113019073206120312F322D7365636F6E64206488
S11301A0656C61792E2E2E0D0A000D0A5465737448
S11301B0206F662074696D657250617573652829B6
S11301C02066756E6374696F6E0D0A000D0A0A0A63
S11301D057656C636F6D6520746F20746865207457
S11301E0696D6572206C69627261727920746573DD
S11301F0742070726F6772616D210D0A0000112402
S11302001FBECFEFD0E1DEBFCDBF11E0A0E0B1E073
S1130210E2EFFFE002C005900D92A030B107D9F7DC
S113022021E0A0E0B1E001C01D92AC3CB207E1F7CF
S11302300E9465070C94F7070C940000FC018FB72B
S1130240F8947183608353834283178216821582E4
S113025014828FBF0895FC019FB7F894448155819F
S113026041155105C9F026813781A081B181A20FC2
S1130270B31F8C912F5F3F4F378326836281738135
S11302802617370720F0261B370B37832683415068
S113029051095583448301C080E09FBF0895FC0148
S11302A0362F2FB7F894A481B58162817381A61784
S11302B0B70798F4868197818A0F9B1F0E9488074D
S11302C0A081B181A80FB91F3C93848195810196C7
S11302D0958384832FBF8FEF08952FBF80E0089507
S11302E090930101809300010895CF93C82F8A3021
S11302F031F4E0910001F09101018DE00995E09164
S11303000001F09101018C2FCF9109948F70E82F97
S1130310F0E0E458FF4F84910C9475015F926F9262
S11303207F928F929F92AF92BF92CF92DF92EF9281
S1130330FF920F931F93CF93DF931F92CDB7DEB736
S1130340EC89FD893E0126E1620E711C3AE0A32E80
S1130350B12C3B89332381F08F010F5F1F4F8491B0
S1130360853289F0882309F466C00E94750163010F
S113037078013601F701EDCF8081853259F08F0184
S11303800F5F1F4FEFCF7F0182E0E80EF11CF801F1
S1130390849105C07F0122E0E20EF11C8181843644
S11303A0A1F0883761F0833631F4F3018081930141
S11303B02E5F3F4F39010E9475016301DACF20E1BE
S11303C0822E912C00E010E105C09AE0892E912C38
S11303D000E117E2630132E0C30ED11CF301608037
S11303E071808436A1F477FE0FC071946194710812
S11303F08DE20E94750108C0C801B5010E948807FA
S11304008B016230710518F060167106A8F3C30100
S1130410B8010E948807582E862F99830E9486016E
S1130420652C9981792EC801B4010E9488078B013B
S1130430672B69F79ECF80E090E00F90DF91CF911A
S11304401F910F91FF90EF90DF90CF90BF90AF90EE
S11304509F908F907F906F905F90089595B5987F4F
S1130460892B85BD089582E00E942E0216BCEEE61B
S1130470F0E0808181608083109292011092930158
S113048010929401109295010895E1E8F0E09081B2
S1130490987F892B8083089583E00E9445021092FF
S11304A0850010928400EFE6F0E080818160808313
S11304B00895E1EBF0E09081987F892B8083089583
S11304C084E00E9459021092B200E0E7F0E08081DB
S11304D08160808310929A0110929B0110929C017A
S11304E010929D010895E5B5E770F0E0EE0FFF1F4F
S11304F0E357FF4F859194910895873040F4E82F96
S1130500F0E0EE0FFF1FEE5FFE4F118210820895A0
S1130510CF93C0E08C2F0E947D02CF5FC730D1F70C
S11305200E9433020E944C020E9460027894CF9190
S11305300895CF92DF92EF92FF920F931F93CF9380
S1130540DF93EC0116B51092960110929701109268
S11305509801109299010E9473029C0140E050E0BE
S113056060E070E880E790E00E94BE076E01E12C35
S1130570F12C293B8DE8380786E048075105B4F48F
S1130580C131D74298F4C701B6010E94780728EE1A
S113059033E040E050E00E949C07DA01C901810F7A
S11305A0911DA11DB11D8C019D010FC0CA01B9018E
S11305B028EE33E040E050E00E949C07C701B601FA
S11305C00E9478079B01AC01E8CF8091960190913D
S11305D09701A0919801B091990166B5BA2FA92FFE
S11305E0982F8827862B80179107A207B30798F4C2
S11305F08091960190919701A0919801B0919901F1
S113060083B7817F83BF83B7816083BF889583B7B6
S11306108E7F83BFDACFDF91CF911F910F91FF902F
S1130620EF90DF90CF900895893049F48091800055
S1130630826080938000809180008E7F0EC08A301B
S113064021F480918000826003C0809180008D7FBE
S1130650809380008091800081608093800010925C
S113066089001092880010928B0010928A000895DD
S1130670E0E8F0E080818068808380818F7B8083E4
S11306800895E0E8F0E080818062808380818F7E3D
S113069080830895E0E8F0E080818F778083808113
S11306A08F7B80830895E0E8F0E080818F7D8083F4
S11306B080818F7E80830895E0E8F0E080818D7FE3
S11306C0808380818E7F80830E944A030C9453032D
S11306D09093890080938800089590938B00809371
S11306E08A0008951F920F920FB60F9211242F9330
S11306F03F934F935F936F937F938F939F93AF93A6
S1130700BF93EF93FF938091920190919301A091F5
S11307109401B09195010196A11DB11D80939201A0
S113072090939301A0939401B093950180919601C5
S113073090919701A0919801B09199010196A11D02
S1130740B11D8093960190939701A0939801B09363
S113075099018091020190910301892B29F0E09184
S11307600201F09103010995FF91EF91BF91AF91BF
S11307709F918F917F916F915F914F913F912F91B5
S11307800F900FBE0F901F9018951F920F920FB6E7
S11307900F9211242F933F934F935F936F937F9303
S11307A08F939F93AF93BF93EF93FF938091040133
S11307B090910501892B29F0E0910401F091050144
S11307C00995FF91EF91BF91AF919F918F917F9187
S11307D06F915F914F913F912F910F900FBE0F90AA
S11307E01F9018951F920F920FB60F9211242F93FA
S11307F03F934F935F936F937F938F939F93AF93A5
S1130800BF93EF93FF9380919A0190919B01A091E4
S11308109C01B0919D010196A11DB11D80939A0187
S113082090939B01A0939C01B0939D0180910C0136
S113083090910D01892B29F0E0910C01F0910D01AB
S11308400995FF91EF91BF91AF919F918F917F9106
S11308506F915F914F913F912F910F900FBE0F9029
S11308601F9018951F920F920FB60F9211242F9379
S11308703F934F935F936F937F938F939F93AF9324
S1130880BF93EF93FF938091060190910701892B09
S113089029F0E0910601F09107010995FF91EF918C
S11308A0BF91AF919F918F917F916F915F914F9184
S11308B03F912F910F900FBE0F901F9018951F928C
S11308C00F920FB60F9211242F933F934F935F9380
S11308D06F937F938F939F93AF93BF93EF93FF9304
S11308E08091080190910901892B29F0E091080178
S11308F0F09109010995FF91EF91BF91AF919F91FB
S11309008F917F916F915F914F913F912F910F90B4
S11309100FBE0F901F9018951F920F920FB60F9253
S113092011242F933F934F935F936F937F938F93F0
S11309309F93AF93BF93EF93FF9380910A0190919C
S11309400B01892B29F0E0910A01F0910B01099523
S1130950FF91EF91BF91AF919F918F917F916F9193
S11309605F914F913F912F910F900FBE0F901F9069
S113097018951F920F920FB60F9211242F933F9345
S11309804F935F936F937F938F939F93AF93BF9393
S1130990EF93FF9380910E0190910F01892B29F021
S11309A0E0910E01F0910F010995FF91EF91BF9134
S11309B0AF919F918F917F916F915F914F913F91F3
S11309C02F910F900FBE0F901F9018951F920F92AA
S11309D00FB60F9211242F933F934F935F936F930E
S11309E07F938F939F93AF93BF93EF93FF938091E4
S11309F00E0190910F01892B29F0E0910E01F091E5
S1130A000F010995FF91EF91BF91AF919F918F9144
S1130A107F916F915F914F913F912F910F900FBEF6
S1130A200F901F90189540E450E062E571E08FE963
S1130A3091E00E941E0140E450E062E171E088EA26
S1130A4091E00C941E010E94130510921101109262
S1130A50100188ED8093C1008FE28093C40010924E
S1130A60C5008FEF80939E011092A7011092B101EF
S1130A701092B001789408950F931F938B019C01F9
S1130A80DC01CB01905FA14FBF4FBC01CD0143E01E
S1130A90660F771F881F991F4A95D1F7A9019801FE
S1130AA0E4E0220F331F441F551FEA95D1F70E943B
S1130AB09C07215031092093C4003093C5001F9135
S1130AC00F91089590919E019923E1F38093C600BC
S1130AD010929E0108951F920F920FB60F92112447
S1130AE02F933F934F935F936F937F938F939F9332
S1130AF0AF93BF93EF93FF938091A701882379F07D
S1130B008091AC019091AD01892B39F088EA91E094
S1130B100E942B018093C60005C01092A7018FEF9D
S1130B2080939E01FF91EF91BF91AF919F918F911F
S1130B307F916F915F914F913F912F910F900FBED5
S1130B400F901F9018951F920F920FB60F921124B9
S1130B502F933F934F935F936F937F938F939F93C1
S1130B60AF93BF93EF93FF938091C6002091100140
S1130B7030911101232B31F0E0911001F09111011A
S1130B80099510C0682F8FE991E00E944F018111EF
S1130B9009C08091B0019091B10101969093B10187
S1130BA08093B001FF91EF91BF91AF919F918F918D
S1130BB07F916F915F914F913F912F910F900FBE55
S1130BC00F901F9018958AB187788AB98BB188677E
S1130BD08BB917B880EF88B90895CF92DF92EF925E
S1130BE0FF920F931F9389B190E080959095887739
S1130BF09927092E000CAA0BBB0B33E0B695A795D9
S1130C00979587953A95D1F717B820EF28B920E042
S1130C1030E0E8E0F0E070EF67B1AF01022E02C00F
S1130C20559547950A94E2F7562F542B57B958B166
S1130C304095452348B948B117B878B92F5F3F4F5D
S1130C402430310549F7DC01992788270091B20146
S1130C501091B3012091B4013091B501802B912BF7
S1130C60A22BB32B50E040955095407F5527052E7D
S1130C70000C660B770B842B952BA62BB72B1092AD
S1130C80B2011092B3011092B4011092B5014091D7
S1130C90B6015091B7016091B8017091B9012091EA
S1130CA0CA013091CB01C090BA01D090BB01E09051
S1130CB0BC01F090BD01C114D104E104F10449F078
S1130CC0C092C201D092C301E092C401F092C50166
S1130CD00BC02D33310540F01092C2011092C301B4
S1130CE01092C4011092C5011092BA011092BB0176
S1130CF01092BC011092BD011092C6011092C7015E
S1130D001092C8011092C90184179507A607B70766
S1130D10D9F42F5F3F4F2432310548F41092BE01BD
S1130D201092BF011092C0011092C10108C08093BB
S1130D30BE019093BF01A093C001B093C101309351
S1130D40CB012093CA0145C08093B6019093B701AB
S1130D50A093B801B093B90180959095A095B095F2
S1130D6084239523A623B7234091BE015091BF014C
S1130D706091C0017091C101482359236A237B23E8
S1130D80452B462B472B29F51092CB011092CA0113
S1130D90255031092E313105E0F48093BA01909346
S1130DA0BB01A093BC01B093BD014091C20150911D
S1130DB0C3016091C4017091C50184239523A623C6
S1130DC0B7238093C6019093C701A093C801B09341
S1130DD0C9011F910F91FF90EF90DF90CF9008957C
S1130DE0CF938CEC91E09F938F93C1E0CF930E94BB
S1130DF08E010E9488028AEA91E09F938F93CF9399
S1130E000E948E0187E891E09F938F93CF930E9475
S1130E108E0184EF91E00E9499028FE791E09F9305
S1130E208F93CF930E948E0181E691E09F938F93DD
S1130E30CF930E948E01549A559A83E491E09F9334
S1130E408F93CF930E948E0188E00E9414038AE15D
S1130E5091E09F938F93CF930E948E010E94380359
S1130E608DEF90E09F938F93CF930E948E0180E447
S1130E7090E00E94680382ED90E09F938F93CF935C
S1130E800E948E010E94410380EC90E00E946D0359
S1130E9089EB90E09F938F93CF930E948E0188E813
S1130EA093E10E94990289E990E09F938F93CF93F5
S1130EB00E948E018DB79EB781960FB6F8949EBF9F
S1130EC00FBE8DBFCF910C945C030E94230560E894
S1130ED075E280E090E00E943C0582E695E00E9485
S1130EE070010E94F0060E94E3050E94ED05FDCF0B
S1130EF0DB018F939F930E94DD07BF91AF91A29F67
S1130F00800D911DA39F900DB29F900D1124089503
S1130F10AA1BBB1B51E107C0AA1FBB1FA617B7071B
S1130F2010F0A61BB70B881F991F5A95A9F7809537
S1130F309095BC01CD010895A1E21A2EAA1BBB1BFA
S1130F40FD010DC0AA1FBB1FEE1FFF1FA217B30791
S1130F50E407F50720F0A21BB30BE40BF50B661FA7
S1130F60771F881F991F1A9469F76095709580956B
S1130F7090959B01AC01BD01CF010895052E97FB0F
S1130F801EF400940E94D50757FD07D00E949C07C9
S1130F9007FC03D04EF40C94D5075095409530953A
S1130FA021953F4F4F4F5F4F0895909580957095D1
S1130FB061957F4F8F4F9F4F08950E94E807A59F2B
S1130FC0900DB49F900DA49F800D911D1124089540
S1130FD0A29FB001B39FC001A39F700D811D112476
S1130FE0911DB29F700D811D1124911D0895F894D7
S1050FF0FFCF2D
S9030000FC
