:1000000068C1000081C100007FC100007DC1000007
:100010007BC1000079C1000077C1000075C10000FC
:1000200073C100003EC5000069C5000073C4000034
:100030000BC50000AFC40000DAC400003EC40000DD
:1000400063C1000061C10000E5C300005DC10000A4
:100050000EC6000059C10000D3C5000055C1000004
:1000600053C1000051C100004FC100004DC100004C
:100070004BC1000049C1000047C100000000000062
:100080000000005F00000007000700147F147F14C9
:10009000242A7F2A1223130864623649552250000D
:1000A00005030000001C2241000041221C00082A18
:1000B0001C2A0808083E08080050300000080808FC
:1000C0000808006060000020100804023E51494505
:1000D0003E00427F400042615149462141454B313B
:1000E0001814127F1027454545393C4A49493001CB
:1000F000710905033649494936064949291E003622
:100100003600000056360000000814224114141472
:1001100014144122140800020151090632497941A0
:100120003E7E1111117E7F494949363E41414122AF
:100130007F4141221C7F494949417F090901013E14
:10014000414151327F0808087F00417F4100204033
:10015000413F017F081422417F404040407F02041C
:10016000027F7F0408107F3E4141413E7F0909091B
:10017000063E4151215E7F091929464649494931C8
:1001800001017F01013F4040403F1F2040201F7F71
:100190002018207F6314081463030478040361515A
:1001A00049454300007F4141020408102041417F3E
:1001B00000000402010204404040404000010204EB
:1001C0000020545454787F484444383844444420F0
:1001D000384444487F3854545418087E09010208B2
:1001E0001454543C7F0804047800447D40002040AF
:1001F000443D00007F10284400417F40007C0418EB
:1002000004787C0804047838444444387C1414147A
:1002100008081414187C7C0804040848545454201A
:10022000043F4440203C4040207C1C2040201C3C9B
:100230004030403C44281028440C5050503C44640A
:10024000544C44000836410000007F000000413655
:10025000080008082A1C08081C2A08083031323314
:10026000343536373839414243444546002563002A
:100270005042746E31382C436C65617220486F6D4A
:10028000650A005042746E390A005042746E350A95
:10029000005042746E310A005042746E31350A00CB
:1002A0005042746E31340A005042746E31330A0089
:1002B00072683D25780A00726C3D25780A00524626
:1002C0002072656D6F7465207374617274212121D1
:1002D0000A0011241FBECFEFD0E1DEBFCDBF11E079
:1002E000A0E0B1E0EEEEF1E102C005900D92AA3877
:1002F000B107D9F722E0AAE8B1E001C01D92AC3500
:10030000B207E1F76DD671C77BCEFC018FB7F894C9
:10031000718360835383428317821682158214820D
:100320008FBF0895FC019FB7F89444815581411512
:100330005105C9F026813781A081B181A20FB31F79
:100340008C912F5F3F4F37832683628173812617FD
:10035000370720F0261B370B37832683415051097E
:100360005583448301C080E09FBF0895FC01362F70
:100370002FB7F894A481B58162817381A617B7075E
:1003800090F4868197818A0F9B1FF9D6A081B18155
:10039000A80FB91F3C93848195810196958384832E
:1003A0002FBF8FEF08952FBF80E00895FC014FB756
:1003B000F89482819381248135814FBF821B930BF6
:1003C00008950F931F93CF93DF9390E0809725E0DC
:1003D000289F8001299F100D1124C0E0D0E0FE016C
:1003E000E00FF11FE458FF4F849102D12196C530F0
:1003F000D105A9F780E0FCD080E0DF91CF911F917B
:100400000F91E0C0CF93DF93EC018991882311F025
:10041000D8DFFBCFDF91CF91089581B1807F81B983
:1004200084B1807F84B9089514981598159815980B
:10043000813041F028F0823029F0833019F008959E
:10044000149A0895159A089582B1807F82B982B175
:10045000962F92959F70892B82B96F7094E080E0FF
:10046000262F2170880F822B66959150C9F795B180
:10047000907F95B995B1892B85B90895611101C017
:10048000CCCF81B18F6081B984B18F6084B9089578
:100490002F982E982D982C98149815981598159893
:1004A000279A269A259A249A0C9A0D9A0D9A0D9AB3
:1004B00088B160E0C9DF87B16FEFE0CF20B180E1A4
:1004C000289F9001112443B184E090E0542F517093
:1004D000990F952B46958150C9F7892F8F70822BE4
:1004E0000895F894A1DF88B16FEFAEDF2F9887B140
:1004F00094DF2E9A2D9A0000000086B1DFDF2D9840
:1005000087FF12C0000000000000000082E08A9512
:10051000F1F700C02D9A000000000000000082E00A
:100520008A95F1F700C0E9CF2E9887B16FEFA6DF6B
:1005300078940895CF93C62FF894D3DF2F982E98F0
:100540002D9A87B16FEF9ADF88B16C2F7DDF0000A5
:10055000000000000000000000000000000082E039
:100560008A95F1F700C02D987894CF910895CF9394
:10057000DF93CCE1D2E0888360E480E0DBDF1A82A5
:1005800060E481E0D7DF1C828881682F6F7360642C
:100590008295869586958370DF91CF91CBCFCF934F
:1005A00080931D02C82FC86B6C2F80E0C3DF6C2FB7
:1005B00081E0CF91BFCFCF93C82F862FF0DF8C2F54
:1005C000CF91D5CFCF93C82FC06C6C2F80E0B2DF16
:1005D0006C2F81E0CF91AECF80E0F4DF60E080E06F
:1005E000EADFECE1F2E012821382148215820895B0
:1005F000CF93DF93D82FE0911C02CE2FC295C695E2
:10060000C695C370F8948C2F6CDF2F9A2E982D9A74
:1006100087B16FEF33DF88B16D2F16DF0000000068
:1006200000000000000000000000000082E08A9549
:10063000F1F700C02D987894EC2FF0E0EE0FFF1F3B
:10064000E25EFD4F80818F5F808380911C028F5F0F
:1006500080931C0287FF0AC080911D028F5F8093E8
:100660001D029DDF80E0DF91CF9181CFDF91CF919F
:100670000895CF93DF93C0E06C2F80E09CDFD0E043
:1006800080E0B6DFDF5FD038D9F7CF5FC830A1F7A1
:10069000DF91CF910895FCDE6FE380E04BDF6FE3E5
:1006A00081E048DFE6DF98CF90938B0180938A0149
:1006B0000895CF93C82F8A3031F4E0918A01F091E8
:1006C0008B018DE00995E0918A01F0918B018C2FCF
:1006D000CF9109948F70E82FF0E0E45AFD4F849198
:1006E000E8CF5F926F927F928F929F92AF92BF926C
:1006F000CF92DF92EF92FF920F931F93CF93DF93EE
:100700001F92CDB7DEB7EC89FD893E0126E1620E6E
:10071000711C3AE0A32EB12C3B89332379F08F0171
:100720000F5F1F4F8491853281F0882309F45FC0E9
:10073000C0DF630178013601F701EECF8081853299
:1007400059F08F010F5F1F4FF0CF7F0182E0E80E5D
:10075000F11CF801849105C07F0122E0E20EF11C3A
:100760008181843699F0883759F0833631F4F3016A
:10077000808193012E5F3F4F39019BDF6301DBCF07
:1007800020E1822E912C00E010E105C09AE0892E34
:10079000912C00E117E2630132E0C30ED11CF3019A
:1007A00060807180843691F477FE0DC071946194FD
:1007B00071088DE27EDF07C0C801B501E0D48B016E
:1007C0006230710518F060167106B0F3C301B8010C
:1007D000D6D4582E862F99837DDF652C9981792E6A
:1007E000C801B401CCD48B01672B81F7A4CF80E082
:1007F00090E00F90DF91CF911F910F91FF90EF90BC
:10080000DF90CF90BF90AF909F908F907F906F9030
:100810005F9008951F920F920FB60F9211242F939D
:100820003F934F935F936F937F938F939F93AF9378
:10083000BF93EF93FF938091220290912302A091A6
:100840002402B09125020196A11DB11D80932202C0
:1008500090932302A0932402B09325028091260254
:1008600090912702A0912802B09129020196A11D22
:10087000B11D8093260290932702A0932802B09383
:10088000290280918C0190918D01892B29F0E091B2
:100890008C01F0918D010995FF91EF91BF91AF917E
:1008A0009F918F917F916F915F914F913F912F9188
:1008B0000F900FBE0F901F9018951F920F920FB6BA
:1008C0000F9211242F933F934F935F936F937F93D6
:1008D0008F939F93AF93BF93EF93FF9380918E017C
:1008E00090918F01892B29F0E0918E01F0918F0179
:1008F0000995FF91EF91BF91AF919F918F917F915A
:100900006F915F914F913F912F910F900FBE0F907C
:100910001F9018951F920F920FB60F9211242F93CC
:100920003F934F935F936F937F938F939F93AF9377
:10093000BF93EF93FF9380912A0290912B02A09195
:100940002C02B0912D020196A11DB11D80932A02A7
:1009500090932B02A0932C02B0932D0280919601CC
:1009600090919701892B29F0E0919601F0919701E0
:100970000995FF91EF91BF91AF919F918F917F91D9
:100980006F915F914F913F912F910F900FBE0F90FC
:100990001F9018951F920F920FB60F9211242F934C
:1009A0003F934F935F936F937F938F939F93AF93F7
:1009B000BF93EF93FF938091900190919101892BC8
:1009C00029F0E0919001F09191010995FF91EF914B
:1009D000BF91AF919F918F917F916F915F914F9157
:1009E0003F912F910F900FBE0F901F9018951F925F
:1009F0000F920FB60F9211242F933F934F935F9353
:100A00006F937F938F939F93AF93BF93EF93FF93D6
:100A10008091920190919301892B29F0E0919201AC
:100A2000F09193010995FF91EF91BF91AF919F9143
:100A30008F917F916F915F914F913F912F910F9087
:100A40000FBE0F901F9018951F920F920FB60F9226
:100A500011242F933F934F935F936F937F938F93C3
:100A60009F93AF93BF93EF93FF93809194019091E5
:100A70009501892B29F0E0919401F0919501099558
:100A8000FF91EF91BF91AF919F918F917F916F9166
:100A90005F914F913F912F910F900FBE0F901F903C
:100AA00018951F920F920FB60F9211242F933F9318
:100AB0004F935F936F937F938F939F93AF93BF9366
:100AC000EF93FF938091980190919901892B29F0E0
:100AD000E0919801F09199010995FF91EF91BF91F3
:100AE000AF919F918F917F916F915F914F913F91C6
:100AF0002F910F900FBE0F901F9018951F920F927D
:100B00000FB60F9211242F933F934F935F936F93E0
:100B10007F938F939F93AF93BF93EF93FF938091B6
:100B2000980190919901892B29F0E0919801F09119
:100B300099010995FF91EF91BF91AF919F918F918D
:100B40007F916F915F914F913F912F910F900FBEC9
:100B50000F901F90189540E450E06CED71E08FE22B
:100B600092E0D3DB40E450E06CE971E088E392E08E
:100B7000CCCBF1DF10929B0110929A0188ED80930B
:100B8000C10083E38093C4001092C5008FEF80936F
:100B90002E02109237021092410210924002789475
:100BA00008950F931F938B019C01DC01CB01805CA6
:100BB0009D4BA04FBF4FBC01CD0143E0660F771F97
:100BC000881F991F4A95D1F7A9019801E4E0220FE7
:100BD000331F441F551FEA95D1F7E5D22150310943
:100BE0002093C4003093C5001F910F9108959091F8
:100BF0002E029923E1F38093C60010922E020895ED
:100C00001F920F920FB60F9211242F933F934F9381
:100C10005F936F937F938F939F93AF93BF93EF9364
:100C2000FF9380913702882371F080913C0290916C
:100C30003D02892B31F088E392E074DB8093C6009B
:100C400005C0109237028FEF80932E02FF91EF9133
:100C5000BF91AF919F918F917F916F915F914F91D4
:100C60003F912F910F900FBE0F901F9018951F92DC
:100C70000F920FB60F9211242F933F934F935F93D0
:100C80006F937F938F939F93AF93BF93EF93FF9354
:100C90008091C60020919A0130919B01232B31F065
:100CA000E0919A01F0919B0109950FC0682F8FE2A6
:100CB00092E05CDB811109C0809140029091410279
:100CC00001969093410280934002FF91EF91BF9172
:100CD000AF919F918F917F916F915F914F913F91D4
:100CE0002F910F900FBE0F901F90189542DF60E874
:100CF00075E280E090E055DF87EF95E0D5CC7BD1C1
:100D0000CADC80E091E07EDB8EEB92E09F938F93D4
:100D100081E08F93E6DC0F900F900F9008950F9372
:100D20001F93CF93DF93CDB7DEB764970FB6F894D8
:100D3000DEBF0FBECDBF80914A0290914B02A091C1
:100D40004C02B0914D020097A105B10509F4AFC066
:100D5000BF93AF939F938F9387EB92E09F938F9373
:100D600011E01F93BEDC80914A0290914B02A0914A
:100D70004C02B0914D02CD01AA27BB27BF93AF9380
:100D80009F938F9380EB92E09F938F931F93A9DCA7
:100D900080914B020FB6F894DEBF0FBECDBF84FF2B
:100DA00012C060E080E007DC84E1E4E1F1E0DE0114
:100DB000119601900D928A95E1F7CE01019622DB02
:100DC00088EA92E06DC080FF12C061E080E0F3DB52
:100DD00084E1E8E2F1E0DE01119601900D928A953E
:100DE000E1F7CE0101960EDB80EA92E059C09091C6
:100DF0004A0294FF12C062E080E0DDDB84E1ECE3B4
:100E0000F1E0DE01119601900D928A95E1F7CE0195
:100E10000196F8DA88E992E043C087FF12C063E0E8
:100E200080E0C9DB83E1E0E5F1E0DE0111960190AD
:100E30000D928A95E1F7CE010196E4DA81E992E01C
:100E40002FC086FF12C064E080E0B5DB83E1E3E6FB
:100E5000F1E0DE01119601900D928A95E1F7CE0145
:100E60000196D0DA8AE892E01BC085FF12C065E0E7
:100E700080E0A1DB83E1E6E7F1E0DE01119601907D
:100E80000D928A95E1F7CE010196BCDA83E892E0F3
:100E900007C080914C0282FF0AC0EBDB80E792E042
:100EA0009F938F931F931DDC0F900F900F900091D5
:100EB0003102109132028FE292E078DA08171907B6
:100EC00089F08FE292E02EDA1F928F938DE692E006
:100ED0009F938F9381E08F9304DC0F900F900F907E
:100EE0000F900F9064960FB6F894DEBF0FBECDBF83
:100EF000DF91CF911F910F9108958AB187788AB9B8
:100F00008BB188678BB917B880EF88B90895CF92F5
:100F1000DF92EF92FF920F931F93CF93DF9389B1EC
:100F200090E08095909588779927092E000CAA0B60
:100F3000BB0BAC01BD01B3E076956795579547951E
:100F4000BA95D1F7E0E0F0E080E090E0DC0110EF4E
:100F5000C8E0D0E017B818B9F7B09E010E2E02C055
:100F6000359527950A94E2F73F2D322B37B938B1E2
:100F70002095232328B96C017D0134E0CC0CDD1CC5
:100F8000EE1CFF1C3A95D1F726B130E02095309544
:100F9000207F3327C901A4E095958795AA95E1F7AD
:100FA000092E000CAA0BBB0B8C299D29AE29BF2949
:100FB0003196E430F10571F6BA01552744278C01CA
:100FC0009D01042B152B262B372BC901B801DF916E
:100FD000CF911F910F91FF90EF90DF90CF900895E8
:100FE00085DE8DDE8FE39CE90197F1F700C00000FC
:100FF00003D095DEF7CF81CFCF92DF92EF92FF92B1
:101000000F931F9384DF00914202109143022091BD
:10101000440230914502AB01BC01402B512B622BA5
:10102000732B1092420210924302109244021092CB
:1010300045020091460210914702209148023091EA
:10104000490280915A0290915B02C0904A02D0906E
:101050004B02E0904C02F0904D02C114D104E10427
:10106000F10449F0C0925202D0925302E09254022D
:10107000F09255020BC08D33910540F01092520250
:1010800010925302109254021092550210924A028A
:1010900010924B0210924C0210924D021092560286
:1010A000109257021092580210925902401751079D
:1010B00062077307D1F401968432910548F41092C7
:1010C0004E0210924F02109250021092510208C02C
:1010D00040934E0250934F0260935002709351021E
:1010E00090935B0280935A0243C040934602509310
:1010F000470260934802709349024095509560956D
:101100007095402351236223732300914E02109166
:101110004F022091500230915102042315232623BF
:101120003723012B022B032B19F510925B0210922F
:101130005A0203978097E0F440934A0250934B027F
:1011400060934C0270934D02809152029091530231
:10115000A0915402B0915502482359236A237B235E
:10116000409356025093570260935802709359026D
:101170001F910F91FF90EF90DF90CF900895AA1BE1
:10118000BB1B51E107C0AA1FBB1FA617B70710F072
:10119000A61BB70B881F991F5A95A9F780959095A4
:1011A000BC01CD010895A1E21A2EAA1BBB1BFD01B3
:1011B0000DC0AA1FBB1FEE1FFF1FA217B307E40736
:1011C000F50720F0A21BB30BE40BF50B661F771F8E
:1011D000881F991F1A9469F760957095809590956E
:0E11E0009B01AC01BD01CF010895F894FFCF33
:1011EE0068656C6C6F20776F726C64212121210011
:1011FE00000000005042746E31332C48656C6C6FE9
:10120E0020576F726C6421005042746E31342C483A
:10121E00656C6C6F20576F726C6421005042746E57
:10122E0031352C48656C6C6F20576F726C642100E1
:10123E005042746E312C48656C6C6F20576F726C17
:10124E006421005042746E352C48656C6C6F2057CB
:10125E006F726C6421005042746E392C48656C6C50
:0A126E006F20576F726C64210000BE
:00000001FF
