:100000000C94FF000C941C010C941C010C941C011A
:100010000C941C010C941C010C941C010C941C01EC
:100020000C941C010C94A6070C94DC070C94BB06E2
:100030000C9470070C9404070C943A070C948506F2
:100040000C941C010C941C010C9429060C941C01AA
:100050000C940B090C941C010C94C1080C941C0109
:100060000C941C010C941C010C941C010C941C019C
:100070000C941C010C941C010C941C013031323383
:100080003435363738394142434445460000000193
:100090000008004000000100040D0A0A0A57656CC0
:1000A000636F6D6520746F207468652074696D6579
:1000B00072206C6962726172792074657374207049
:1000C000726F6772616D210D0A000D0A54657374B9
:1000D000206F662074696D6572506175736528299B
:1000E0002066756E6374696F6E0D0A0048657265EF
:1000F00020636F6D6573206120312F322D7365632E
:100100006F6E642064656C61792E2E2E0D0A00449A
:100110006F6E65210D0A000D0A54657374206F66B9
:100120002074696D6572312050574D206F75747061
:1001300075740D0A00496E697469616C697A696E3B
:10014000672074696D65723120666F722050574D5B
:100150000D0A005475726E696E67206F6E207469A7
:100160006D657231206368616E6E656C2041205050
:10017000574D206F75747075740D0A005365747453
:10018000696E672064757479206379636C65207487
:100190006F20323525250D0A005475726E696E6721
:1001A000206F6E206368616E6E656C204220746FF4
:1001B0006F2C207769746820373525252064757485
:1001C000790D0A00506175736520666F72203520C5
:1001D0007365636F6E64732E2E2E0D0A0054757254
:1001E0006E696E67206F666620616C6C2050574D9B
:1001F000206F6E2074696D6572310D0A0000112444
:100200001FBECFEFD0E1DEBFCDBF11E0A0E0B1E077
:10021000E4E5F5E102C005900D92A030B107D9F7F1
:1002200021E0A0E0B1E001C01D92A23BB207E1F7DE
:100230000E945A090C94A80A0C940000CF93DF93F3
:10024000CDB7DEB727970FB6F894DEBF0FBECDBF90
:100250009B838A837D836C835F834E838FE590E0ED
:10026000FC0180818983F8948A819B812C813D8166
:10027000FC01318320838A819B812E813F81FC0197
:10028000338322838A819B81FC01178216828A81B3
:100290009B81FC01158214828FE590E02981FC018D
:1002A000208327960FB6F894DEBF0FBECDBFDF9137
:1002B000CF910895CF93DF9300D000D0CDB7DEB7B4
:1002C0009C838B8319828FE590E0FC0180818A8377
:1002D000F8948B819C81FC0184819581892B09F4A0
:1002E00047C08B819C81FC01208131818B819C8165
:1002F000FC0186819781820F931FFC018081898395
:100300008B819C81FC01868197819C012F5F3F4FEF
:100310008B819C81FC01378326838B819C81FC012E
:10032000268137818B819C81FC01828193812817F2
:10033000390788F08B819C81FC01268137818B8174
:100340009C81FC0182819381281B390B8B819C81CC
:10035000FC01378326838B819C81FC0184819581FC
:100360009C01215031098B819C81FC0135832483C0
:100370008FE590E02A81FC01208389810F900F9006
:100380000F900F90DF91CF910895CF93DF9300D01E
:1003900000D000D0CDB7DEB79B838A836C838FE516
:1003A00090E0FC0180818983F8948A819B81FC0123
:1003B000248135818A819B81FC0182819381281768
:1003C0003907A0F58A819B81FC01208131818A81D6
:1003D0009B81FC01468157818A819B81FC0184813C
:1003E0009581BA01680F791F8A819B81FC01428146
:1003F0005381CB01BA010E94390A820F931F2C81CD
:10040000FC0120838A819B81FC01848195819C0170
:100410002F5F3F4F8A819B81FC01358324838FE5C9
:1004200090E02981FC0120838FEF06C08FE590E0EA
:100430002981FC01208380E026960FB6F894DEBF68
:100440000FBECDBFDF91CF910895CF93DF9300D042
:10045000CDB7DEB79A83898389819A819093010110
:10046000809300010F900F90DF91CF910895CF936B
:10047000DF931F92CDB7DEB7898389818A3039F443
:1004800020910001309101018DE0F9010995209141
:100490000001309101018981F90109950F90DF91E7
:1004A000CF910895CF93DF9300D000D0CDB7DEB7C2
:1004B0008C838C81882F90E08F70992784589F4F70
:1004C0009A83898389819A81FC0184918B838B81B2
:1004D0000E9437020F900F900F900F90DF91CF91F5
:1004E0000895CF93DF93CDB7DEB765970FB6F89435
:1004F000DEBF0FBECDBFCE014D969F878E8709C050
:100500008981882319F480E090E0C6C089810E9427
:1005100037028A8D882381F08B8D9C8D9C012F5F03
:100520003F4F3C8F2B8F9987888788859985FC0161
:1005300084918A878A8509C08B8D9C8D9C012F5F51
:100540003F4F3C8F2B8FFC018081898389818532CD
:10055000B9F68A8D882381F08B8D9C8D9C012F5F4D
:100560003F4F3C8F2B8F9C878B878B859C85FC0115
:1005700084918D878D8509C08B8D9C8D9C012F5F0B
:100580003F4F3C8F2B8FFC01808189838981882F8D
:1005900090E084369105A9F088379105D9F083362B
:1005A000910559F48E859F859C012E5F3F4F3F87B3
:1005B0002E87FC0180819181898389810E94370285
:1005C0006AC08AE090E09F838E8380E197E29D83FA
:1005D0008C8308C080E190E09F838E8380E090E16F
:1005E0009D838C838E859F859C012E5F3F4F3F8727
:1005F0002E87FC01808191819B838A838981843647
:1006000049F58A819B81992354F48A819B81919534
:10061000819591099B838A838DE20E9437020FC0E6
:100620008C819D819C01ADECBCEC0E948E0A96955C
:10063000879596958795969587959D838C838C81D4
:100640009D81029738F02C813D818A819B818217A0
:10065000930730F38A819B812C813D81B9010E94EF
:10066000390ACB010E9452028A819B812C813D81F3
:10067000B9010E94390A9B838A838C819D812E81D6
:100680003F81B9010E94390ACB019D838C838C8103
:100690009D81892BF9F633CF65960FB6F894DEBFAE
:1006A0000FBECDBFDF91CF910895CF93DF931F92FF
:1006B000CDB7DEB7198206C089810E9423048981E3
:1006C0008F5F898389818730B8F30E9470030E940D
:1006D00089030E94A10378940F90DF91CF91089530
:1006E000CF93DF93CDB7DEB782E00E94BA0386E4F2
:1006F00090E0FC0110828EE690E02EE630E0F901F9
:1007000020812160FC0120830E941205DF91CF919E
:100710000895CF93DF93CDB7DEB783E00E94D00377
:1007200084E890E0FC01118210828FE690E02FE6D1
:1007300030E0F90120812160FC012083DF91CF911D
:100740000895CF93DF93CDB7DEB784E00E94E60330
:1007500082EB90E0FC01108280E790E020E730E03F
:10076000F90120812160FC0120830E942105DF9195
:10077000CF910895CF93DF931F92CDB7DEB78983D2
:1007800085E490E025E430E0F9012081322F387FC4
:100790002981232BFC0120830F90DF91CF910895B5
:1007A000CF93DF931F92CDB7DEB7898381E890E0C6
:1007B00021E830E0F9012081322F387F2981232B75
:1007C000FC0120830F90DF91CF910895CF93DF93A9
:1007D0001F92CDB7DEB7898381EB90E021EB30E04B
:1007E000F9012081322F387F2981232BFC012083BE
:1007F0000F90DF91CF910895CF93DF9300D000D079
:10080000CDB7DEB785E490E0FC018081882F90E0D1
:1008100087709927880F991F83579F4F9A838983E1
:1008200089819A81FC0125913491CF013C832B83EE
:100830009A8389838B819C810F900F900F900F90EA
:10084000DF91CF910895CF93DF931F92CDB7DEB79D
:1008500089838981873050F48981882F90E0880FBF
:10086000991F8E5F9E4FFC01118210820F90DF91C5
:10087000CF910895EF92FF920F931F93CF93DF9341
:10088000CDB7DEB767970FB6F894DEBF0FBECDBF0A
:100890009B878A8786E490E0FC0180818D8310929B
:1008A00096011092970110929801109299010E945E
:1008B000FC039C0140E050E080E090E8A0E7B0E05D
:1008C000BC01CD010E946F0ADA01C9018E839F83AA
:1008D000A887B9878E819F81A885B985893B9D4866
:1008E000A640B10518F58A859B8581319742F0F4C1
:1008F0008A859B859C0140E050E08E819F81A88580
:10090000B985BC01CD010E94290ADC01CB0128EE8A
:1009100033E040E050E0BC01CD010E944D0ADA0115
:10092000C90189839A83AB83BC831FC08A859B8559
:100930007C0100E010E08E819F81A885B98528EEBA
:1009400033E040E050E0BC01CD010E944D0ADA01E5
:10095000C901A8019701BC01CD010E94290ADC014F
:10096000CB0189839A83AB83BC8324C08091960199
:1009700090919701A0919801B091990183E590E041
:1009800023E530E0F9012081217FFC01208383E50C
:1009900090E023E530E0F90120812160FC01208313
:1009A000889583E590E023E530E0F90120812E7FF2
:1009B000FC0120838091960190919701A09198016C
:1009C000B09199012227382F492F5A2F86E490E0C1
:1009D000FC018081882F90E0A0E0B0E0282B392B2B
:1009E0004A2B5B2B8D81E82EF12C00E010E08981F1
:1009F0009A81AB81BC818E0D9F1DA01FB11F28174E
:100A000039074A075B0708F4B1CF67960FB6F89429
:100A1000DEBF0FBECDBFDF91CF911F910F91FF9031
:100A2000EF900895CF93DF93CDB7DEB71092920188
:100A3000109293011092940110929501DF91CF9141
:100A40000895CF93DF93CDB7DEB710929A0110923D
:100A50009B0110929C0110929D01DF91CF9108950E
:100A6000CF93DF931F92CDB7DEB789838981893019
:100A700099F480E890E020E830E0F90120812260DC
:100A8000FC01208380E890E020E830E0F90120813B
:100A90002E7FFC01208328C089818A3099F480E868
:100AA00090E020E830E0F90120812260FC01208301
:100AB00080E890E020E830E0F90120812160FC012D
:100AC000208312C080E890E020E830E0F901208126
:100AD0002D7FFC01208380E890E020E830E0F901E0
:100AE00020812160FC01208388E890E0FC011182D4
:100AF00010828AE890E0FC01118210820F90DF9151
:100B0000CF910895CF93DF93CDB7DEB780E890E023
:100B100020E830E0F90120812D7FFC01208380E86E
:100B200090E020E830E0F90120812E7FFC01208355
:100B30000E94D1050E94EA05DF91CF910895CF93DD
:100B4000DF93CDB7DEB780E890E020E830E0F90130
:100B500020812068FC01208380E890E020E830E0DC
:100B6000F90120812F7BFC012083DF91CF91089533
:100B7000CF93DF93CDB7DEB780E890E020E830E098
:100B8000F90120812062FC01208380E890E020E8C8
:100B900030E0F90120812F7EFC012083DF91CF918D
:100BA0000895CF93DF93CDB7DEB780E890E020E8DB
:100BB00030E0F90120812F77FC01208380E890E06C
:100BC00020E830E0F90120812F7BFC012083DF91B8
:100BD000CF910895CF93DF93CDB7DEB780E890E053
:100BE00020E830E0F90120812F7DFC01208380E89E
:100BF00090E020E830E0F90120812F7EFC01208385
:100C0000DF91CF910895CF93DF9300D0CDB7DEB7BA
:100C10009A83898388E890E029813A81FC013183B5
:100C200020830F900F90DF91CF910895CF93DF93A2
:100C300000D0CDB7DEB79A8389838AE890E0298116
:100C40003A81FC01318320830F900F90DF91CF9187
:100C500008951F920F9200905F000F9211242F931E
:100C60003F934F935F936F937F938F939F93AF9334
:100C7000BF93EF93FF93CF93DF93CDB7DEB7809110
:100C8000920190919301A0919401B09195010196E8
:100C9000A11DB11D8093920190939301A0939401A3
:100CA000B09395018091960190919701A091980140
:100CB000B09199010196A11DB11D80939601909369
:100CC0009701A0939801B0939901809102019091AE
:100CD0000301892B31F08091020190910301FC0105
:100CE0000995DF91CF91FF91EF91BF91AF919F91C6
:100CF0008F917F916F915F914F913F912F910F90C5
:100D000000925F000F901F9018951F920F92009015
:100D10005F000F9211242F933F934F935F936F9334
:100D20007F938F939F93AF93BF93EF93FF93CF9353
:100D3000DF93CDB7DEB78091040190910501892B37
:100D400031F08091040190910501FC010995DF913A
:100D5000CF91FF91EF91BF91AF919F918F917F9133
:100D60006F915F914F913F912F910F9000925F0093
:100D70000F901F9018951F920F9200905F000F9296
:100D800011242F933F934F935F936F937F938F9390
:100D90009F93AF93BF93EF93FF93CF93DF93CDB721
:100DA000DEB780919A0190919B01A0919C01B09136
:100DB0009D010196A11DB11D80939A0190939B0105
:100DC000A0939C01B0939D0180910C0190910D0125
:100DD000892B31F080910C0190910D01FC01099556
:100DE000DF91CF91FF91EF91BF91AF919F918F9143
:100DF0007F916F915F914F913F912F910F90009252
:100E00005F000F901F9018951F920F9200905F0047
:100E10000F9211242F933F934F935F936F937F9380
:100E20008F939F93AF93BF93EF93FF93CF93DF93F2
:100E3000CDB7DEB78091060190910701892B31F083
:100E40008091060190910701FC010995DF91CF91F6
:100E5000FF91EF91BF91AF919F918F917F916F9192
:100E60005F914F913F912F910F9000925F000F90F3
:100E70001F9018951F920F9200905F000F921124FF
:100E80002F933F934F935F936F937F938F939F9392
:100E9000AF93BF93EF93FF93CF93DF93CDB7DEB7BD
:100EA0008091080190910901892B31F0809108010E
:100EB00090910901FC010995DF91CF91FF91EF918C
:100EC000BF91AF919F918F917F916F915F914F9162
:100ED0003F912F910F9000925F000F901F901895F7
:100EE0001F920F9200905F000F9211242F933F9357
:100EF0004F935F936F937F938F939F93AF93BF9322
:100F0000EF93FF93CF93DF93CDB7DEB780910A01C4
:100F100090910B01892B31F080910A0190910B0186
:100F2000FC010995DF91CF91FF91EF91BF91AF91B6
:100F30009F918F917F916F915F914F913F912F91F1
:100F40000F9000925F000F901F9018951F920F92C4
:100F500000905F000F9211242F933F934F935F9364
:100F60006F937F938F939F93AF93BF93EF93FF9371
:100F7000CF93DF93CDB7DEB780910E0190910F0133
:100F8000892B31F080910E0190910F01FC010995A0
:100F9000DF91CF91FF91EF91BF91AF919F918F9191
:100FA0007F916F915F914F913F912F910F900092A0
:100FB0005F000F901F9018951F920F9200905F0096
:100FC0000F9211242F933F934F935F936F937F93CF
:100FD0008F939F93AF93BF93EF93FF93CF93DF9341
:100FE000CDB7DEB780910E0190910F01892B31F0C2
:100FF00080910E0190910F01FC010995DF91CF9135
:10100000FF91EF91BF91AF919F918F917F916F91E0
:101010005F914F913F912F910F9000925F000F9041
:101020001F901895CF93DF93CDB7DEB70E94340899
:10103000109291011092900181EC90E028EDFC015A
:10104000208360E875E280E090E00E944B088FEF1B
:1010500080939E011092A7011092B1011092B001ED
:101060007894DF91CF910895CF93DF93CDB7DEB71A
:1010700040E450E060E171E08FE991E00E941E01E0
:1010800040E450E060E571E088EA91E00E941E01D2
:10109000DF91CF910895EF92FF920F931F93CF931B
:1010A000DF93CDB7DEB72A970FB6F894DEBF0FBE39
:1010B000CDBF6B837C838D839E838B819C81AD812F
:1010C000BE81905FA14FBF4F880F991FAA1FBB1F02
:1010D000880F991FAA1FBB1F880F991FAA1FBB1F2C
:1010E0007C018D018B819C81AD81BE81880F991F10
:1010F000AA1FBB1F880F991FAA1FBB1F880F991F0C
:10110000AA1FBB1F880F991FAA1FBB1F9C01AD01FF
:10111000C801B7010E944D0ADA01C90101979A83FB
:10112000898384EC90E02981FC01208385EC90E0A8
:1011300029813A81232F3327FC0120832A960FB679
:10114000F894DEBF0FBECDBFDF91CF911F910F91FD
:10115000FF90EF900895CF93DF931F92CDB7DEB746
:101160008983000080919E018823E1F386EC90E062
:101170002981FC01208310929E010F90DF91CF9175
:1011800008951F920F9200905F000F9211240F9309
:101190001F932F933F934F935F936F937F938F93FF
:1011A0009F93AF93BF93EF93FF93CF93DF93CDB70D
:1011B000DEB78091A7018823A9F08091AC019091BE
:1011C000AD01892B49F006EC10E088EA91E00E941D
:1011D0005A01F801808309C01092A7018FEF809314
:1011E0009E0103C08FEF80939E01DF91CF91FF910D
:1011F000EF91BF91AF919F918F917F916F915F918F
:101200004F913F912F911F910F910F9000925F008E
:101210000F901F9018951F920F9200905F000F92F1
:1012200011242F933F934F935F936F937F938F93EB
:101230009F93AF93BF93EF93FF93CF93DF931F924F
:10124000CDB7DEB786EC90E0FC0180818983809188
:10125000900190919101892B41F020919001309162
:1012600091018981F901099510C069818FE991E0A7
:101270000E94C501882349F48091B0019091B10189
:1012800001969093B1018093B0010F90DF91CF91BF
:10129000FF91EF91BF91AF919F918F917F916F914E
:1012A0005F914F913F912F910F9000925F000F90AF
:1012B0001F901895CF93DF93CDB7DEB70E94120829
:1012C00060E875E280E090E00E944B088BEA98E0CD
:1012D0000E9425020E94710980E090E0DF91CF9189
:1012E0000895CF93DF93CDB7DEB789E990E0292F3A
:1012F0002F938F9381E08F930E9471020F900F9034
:101300000F900E9455038AEC90E0292F2F938F9322
:1013100081E08F930E9471020F900F900F908CEEDE
:1013200090E0292F2F938F9381E08F930E94710279
:101330000F900F900F9084EF91E00E943A048FE09D
:1013400091E0292F2F938F9381E08F930E94710258
:101350000F900F900F9087E191E0292F2F938F939B
:1013600081E08F930E9471020F900F900F908AE29C
:1013700090E02AE230E0F90120812061FC01208325
:101380008AE290E02AE230E0F90120812062FC014B
:10139000208385E391E0292F2F938F9381E08F9312
:1013A0000E9471020F900F900F9088E00E9430050C
:1013B00083E591E0292F2F938F9381E08F930E94F3
:1013C00071020F900F900F900E949F058CE791E0A3
:1013D000292F2F938F9381E08F930E9471020F909A
:1013E0000F900F9080E490E00E94030689E991E05D
:1013F000292F2F938F9381E08F930E9471020F907A
:101400000F900F900E94B80580EC90E00E941606A5
:1014100084EC91E0292F2F938F9381E08F930E948A
:1014200071020F900F900F9088E893E10E943A04A8
:101430008DED91E0292F2F938F9381E08F930E9460
:1014400071020F900F900F900E948205DF91CF9153
:101450000895DB018F939F930E949D0ABF91AF91E6
:10146000A29F800D911DA39F900DB29F900D1124FE
:101470000895AA1BBB1B51E107C0AA1FBB1FA617DB
:10148000B70710F0A61BB70B881F991F5A95A9F72D
:1014900080959095BC01CD010895A1E21A2EAA1B5A
:1014A000BB1BFD010DC0AA1FBB1FEE1FFF1FA21714
:1014B000B307E407F50720F0A21BB30BE40BF50B11
:1014C000661F771F881F991F1A9469F7609570959A
:1014D000809590959B01AC01BD01CF010895052E2B
:1014E00097FB1EF400940E94860A57FD07D00E94C5
:1014F0004D0A07FC03D04EF40C94860A5095409593
:10150000309521953F4F4F4F5F4F089590958095AF
:10151000709561957F4F8F4F9F4F0895A29FB001A7
:10152000B39FC001A39F700D811D1124911DB29F17
:10153000700D811D1124911D08950E948E0AA59F92
:10154000900DB49F900DA49F800D911D11240895BE
:04155000F894FFCF3D
:00000001FF
