S01A00004C6576656C4D65746572526652656D6F74652E73726563F1
S11300000C9457000C9474000C9474000C947400B9
S11300100C9474000C9474000C9474000C9474008C
S11300200C9474000C94CD020C94FA020C94060205
S11300300C94A0020C9446020C9473020C94D90103
S11300400C9474000C9474000C9486010C94740049
S11300500C94B8030C9474000C9480030C947400F6
S11300600C9474000C9474000C9474000C9474003C
S11300700C9474000C9474000C947400303132337A
S11300803435363738394142434445460072683D79
S113009025780A00726C3D25780A00524620726564
S11300A06D6F7465207374617274210A00001124E9
S11300B01FBECFEFD0E1DEBFCDBF11E0A0E0B1E0C5
S11300C0E0E7FBE002C005900D92A030B107D9F73C
S11300D021E0A0E0B1E001C01D92AC3CB207E1F721
S11300E00E941B050C94B6050C940000FC018FB70C
S11300F0F894718360835383428317821682158236
S113010014828FBF0895FC019FB7F89444815581F0
S113011041155105C9F026813781A081B181A20F13
S1130120B31F8C912F5F3F4F378326836281738186
S11301302617370720F0261B370B378326834150B9
S113014051095583448301C080E09FBF0895FC0199
S1130150362F2FB7F894A481B58162817381A617D5
S1130160B70798F4868197818A0F9B1F0E948005A8
S1130170A081B181A80FB91F3C9384819581019618
S1130180958384832FBF8FEF08952FBF80E0089558
S113019090930101809300010895CF93C82F8A3072
S11301A031F4E0910001F09101018DE00995E091B5
S11301B00001F09101018C2FCF9109948F70E82FE9
S11301C0F0E0E458FF4F84910C94CD005F926F925D
S11301D07F928F929F92AF92BF92CF92DF92EF92D3
S11301E0FF920F931F93CF93DF931F92CDB7DEB788
S11301F0EC89FD893E0126E1620E711C3AE0A32ED2
S1130200B12C3B89332381F08F010F5F1F4F849101
S1130210853289F0882309F466C00E94CD00630109
S113022078013601F701EDCF8081853259F08F01D5
S11302300F5F1F4FEFCF7F0182E0E80EF11CF80142
S1130240849105C07F0122E0E20EF11C8181843695
S1130250A1F0883761F0833631F4F3018081930192
S11302602E5F3F4F39010E94CD006301DACF20E1B8
S1130270822E912C00E010E105C09AE0892E912C89
S113028000E117E2630132E0C30ED11CF301608088
S113029071808436A1F477FE0FC071946194710863
S11302A08DE20E94CD0008C0C801B5010E948005FE
S11302B08B016230710518F060167106A8F3C30152
S11302C0B8010E948005582E862F99830E94DE0073
S11302D0652C9981792EC801B4010E9480058B0197
S11302E0672B69F79ECF80E090E00F90DF91CF916C
S11302F01F910F91FF90EF90DF90CF90BF90AF9040
S11303009F908F907F906F905F9008951F920F92AF
S11303100FB60F9211242F933F934F935F936F93D4
S11303207F938F939F93AF93BF93EF93FF938091AA
S1130330920190919301A0919401B091950101963D
S1130340A11DB11D8093920190939301A0939401F8
S1130350B09395018091960190919701A091980195
S1130360B09199010196A11DB11D809396019093BE
S11303709701A0939801B093990180910201909103
S11303800301892B29F0E0910201F0910301099501
S1130390FF91EF91BF91AF919F918F917F916F9159
S11303A05F914F913F912F910F900FBE0F901F902F
S11303B018951F920F920FB60F9211242F933F930B
S11303C04F935F936F937F938F939F93AF93BF9359
S11303D0EF93FF938091040190910501892B29F0FB
S11303E0E0910401F09105010995FF91EF91BF910E
S11303F0AF919F918F917F916F915F914F913F91B9
S11304002F910F900FBE0F901F9018951F920F926F
S11304100FB60F9211242F933F934F935F936F93D3
S11304207F938F939F93AF93BF93EF93FF938091A9
S11304309A0190919B01A0919C01B0919D0101961C
S1130440A11DB11D80939A0190939B01A0939C01DF
S1130450B0939D0180910C0190910D01892B29F09D
S1130460E0910C01F0910D010995FF91EF91BF917D
S1130470AF919F918F917F916F915F914F913F9138
S11304802F910F900FBE0F901F9018951F920F92EF
S11304900FB60F9211242F933F934F935F936F9353
S11304A07F938F939F93AF93BF93EF93FF93809129
S11304B0060190910701892B29F0E0910601F09142
S11304C007010995FF91EF91BF91AF919F918F9192
S11304D07F916F915F914F913F912F910F900FBE3C
S11304E00F901F9018951F920F920FB60F92112420
S11304F02F933F934F935F936F937F938F939F9328
S1130500AF93BF93EF93FF938091080190910901FA
S1130510892B29F0E0910801F09109010995FF91D7
S1130520EF91BF91AF919F918F917F916F915F9167
S11305304F913F912F910F900FBE0F901F901895E0
S11305401F920F920FB60F9211242F933F934F9344
S11305505F936F937F938F939F93AF93BF93EF9327
S1130560FF9380910A0190910B01892B29F0E0916E
S11305700A01F0910B010995FF91EF91BF91AF91A1
S11305809F918F917F916F915F914F913F912F91A7
S11305900F900FBE0F901F9018951F920F920FB6D9
S11305A00F9211242F933F934F935F936F937F93F5
S11305B08F939F93AF93BF93EF93FF9380910E011B
S11305C090910F01892B29F0E0910E01F0910F0118
S11305D00995FF91EF91BF91AF919F918F917F9179
S11305E06F915F914F913F912F910F900FBE0F909C
S11305F01F9018951F920F920FB60F9211242F93EC
S11306003F934F935F936F937F938F939F93AF9396
S1130610BF93EF93FF9380910E0190910F01892B6B
S113062029F0E0910E01F0910F010995FF91EF91EE
S1130630BF91AF919F918F917F916F915F914F91F6
S11306403F912F910F900FBE0F901F90189540E48B
S113065050E062E571E08FE991E00E94760040E4A9
S113066050E062E171E088EA91E00C9476000E9427
S11306702703109211011092100188ED8093C1009C
S113068083E38093C4001092C5008FEF80939E0192
S11306901092A7011092B1011092B00178940895BC
S11306A00F931F938B019C01DC01CB01805C9D4B5C
S11306B0A04FBF4FBC01CD0143E0660F771F881FD9
S11306C0991F4A95D1F7A9019801E4E0220F331F3D
S11306D0441F551FEA95D1F70E9494052150310912
S11306E02093C4003093C5001F910F9108959091F9
S11306F09E019923E1F38093C60010929E01089510
S11307001F920F920FB60F9211242F933F934F9382
S11307105F936F937F938F939F93AF93BF93EF9365
S1130720FF938091A701882379F08091AC01909187
S1130730AD01892B39F088EA91E00E94830080930F
S1130740C60005C01092A7018FEF80939E01FF9110
S1130750EF91BF91AF919F918F917F916F915F9135
S11307604F913F912F910F900FBE0F901F901895AE
S11307701F920F920FB60F9211242F933F934F9312
S11307805F936F937F938F939F93AF93BF93EF93F5
S1130790FF938091C6002091100130911101232B09
S11307A031F0E0911001F0911101099510C0682F0A
S11307B08FE991E00E94A700811109C08091B001E6
S11307C09091B10101969093B1018093B001FF9192
S11307D0EF91BF91AF919F918F917F916F915F91B5
S11307E04F913F912F910F900FBE0F901F9018952E
S11307F08AB187788AB98BB188678BB917B880EFCB
S113080088B90895CF92DF92EF92FF920F931F93CE
S1130810CF93DF9389B190E080959095887799275D
S1130820092E000CAA0BBB0B73E0B695A795979500
S113083087957A95D1F7E0E0F0E040E050E0BA0126
S113084010EFC8E0D0E017B818B907B19E010E2E1A
S113085002C0359527950A94E2F7302F322B37B929
S113086038B12095232328B96A017B0134E0CC0CEC
S1130870DD1CEE1CFF1C3A95D1F726B130E0209523
S11308803095207F3327A90164E0559547956A95F3
S1130890E1F7052E000C660B770B4C295D296E29B8
S11308A07F293196E430F10571F6DC019927882718
S11308B00091B2011091B3012091B4013091B501BE
S11308C0802B912BA22BB32B482B592B6A2B7B2BE0
S11308D01092B2011092B3011092B4011092B501BA
S11308E08091B6019091B701A091B801B091B9017E
S11308F02091CA013091CB01C090BA01D090BB01C4
S1130900E090BC01F090BD01C114D104E104F104F4
S113091049F0C092C201D092C301E092C401F092A6
S1130920C5010BC02D33310540F01092C201109265
S1130930C3011092C4011092C5011092BA01109221
S1130940BB011092BC011092BD011092C60110921D
S1130950C7011092C8011092C901481759076A07C4
S11309607B07D9F42F5F3F4F2432310548F41092AE
S1130970BE011092BF011092C0011092C10108C0C3
S11309804093BE015093BF016093C0017093C101B5
S11309903093CB012093CA0145C04093B6015093D4
S11309A0B7016093B8017093B90140955095609573
S11309B07095482359236A237B238091BE0190912B
S11309C0BF01A091C001B091C10184239523A62346
S11309D0B723892B8A2B8B2B29F51092CB011092EC
S11309E0CA012350310920323105E0F44093BA01A1
S11309F05093BB016093BC017093BD018091C2010F
S1130A009091C301A091C401B091C5014823592319
S1130A106A237B234093C6015093C7016093C801A6
S1130A207093C901DF91CF911F910F91FF90EF90C7
S1130A30DF90CF9008950E94370360E875E280E06C
S1130A4090E00E94500387E793E00E94C8008BE97E
S1130A5090E09F938F9381E08F930E94E6000E9421
S1130A60F8030F900F900F9004E910E0FF24F39423
S1130A70CDE8D0E08FE39CE90197F1F700C00000D6
S1130A800E9402048091BA019091BB01A091BC0123
S1130A90B091BD010097A105B10589F0BF93AF9353
S1130AA09F938F931F930F93FF920E94E6008DB73D
S1130AB09EB707960FB6F8949EBF0FBE8DBF809168
S1130AC0BA019091BB01A091BC01B091BD01009706
S1130AD0A105B10579F2CD01AA27BB27BF93AF9336
S1130AE09F938F93DF93CF93FF920E94E6008DB77D
S1130AF09EB707960FB6F8949EBF0FBE8DBFBACFB0
S1130B00AA1BBB1B51E107C0AA1FBB1FA617B7072F
S1130B1010F0A61BB70B881F991F5A95A9F780954B
S1130B209095BC01CD010895A1E21A2EAA1BBB1B0E
S1130B30FD010DC0AA1FBB1FEE1FFF1FA217B307A5
S1130B40E407F50720F0A21BB30BE40BF50B661FBB
S1130B50771F881F991F1A9469F76095709580957F
S1130B6090959B01AC01BD01CF010895F894FFCF8E
S9030000FC
