S01A00004C6576656C4D65746572526652656D6F74652E73726563F1
S113000066C100007FC100007DC100007BC100000B
S113001079C1000077C1000075C1000073C1000000
S113002071C1000031C500005CC5000066C4000059
S1130030FEC40000A2C40000CDC4000031C400000E
S113004061C100005FC10000D8C300005BC10000B3
S113005001C6000057C10000C6C5000053C100001E
S113006051C100004FC100004DC100004BC1000050
S113007049C1000047C1000045C100000000000064
S11300800000005F00000007000700147F147F14C5
S1130090242A7F2A12231308646236495522500009
S11300A005030000001C2241000041221C00082A14
S11300B01C2A0808083E08080050300000080808F8
S11300C00808006060000020100804023E51494501
S11300D03E00427F400042615149462141454B3137
S11300E01814127F1027454545393C4A49493001C7
S11300F0710905033649494936064949291E00361E
S1130100360000005636000000081422411414146E
S1130110141441221408000201510906324979419C
S11301203E7E1111117E7F494949363E41414122AB
S11301307F4141221C7F494949417F090901013E10
S1130140414151327F0808087F00417F410020402F
S1130150413F017F081422417F404040407F020418
S1130160027F7F0408107F3E4141413E7F09090917
S1130170063E4151215E7F091929464649494931C4
S113018001017F01013F4040403F1F2040201F7F6D
S11301902018207F63140814630304780403615156
S11301A049454300007F4141020408102041417F3A
S11301B000000402010204404040404000010204E7
S11301C00020545454787F484444383844444420EC
S11301D0384444487F3854545418087E09010208AE
S11301E01454543C7F0804047800447D40002040AB
S11301F0443D00007F10284400417F40007C0418E7
S113020004787C0804047838444444387C14141476
S113021008081414187C7C08040408485454542016
S1130220043F4440203C4040207C1C2040201C3C97
S11302304030403C44281028440C5050503C446406
S1130240544C44000836410000007F000000413651
S1130250080008082A1C08081C2A08083031323310
S113026034353637383941424344454600504274A8
S11302706E31382C436C65617220486F6D650A00DD
S11302805042746E390A005042746E350A0050426E
S1130290746E310A005042746E31350A0050427453
S11302A06E31340A005042746E31330A0072683D74
S11302B025780A00726C3D25780A00524620726542
S11302C06D6F7465207374617274210A00001124C7
S11302D01FBECFEFD0E1DEBFCDBF11E0A0E0B1E0A3
S11302E0E2E7F1E102C005900D92A637B107D9F714
S11302F022E0A6E7B1E001C01D92AC35B207E1F7F8
S1130300F5D635C77DCEFC018FB7F8947183608331
S11303105383428317821682158214828FBF0895F5
S1130320FC019FB7F8944481558141155105C9F0EA
S113033026813781A081B181A20FB31F8C912F5FD9
S11303403F4F37832683628173812617370720F056
S1130350261B370B37832683415051095583448329
S113036001C080E09FBF0895FC01362F2FB7F89499
S1130370A481B58162817381A617B70790F4868141
S113038097818A0F9B1FBDD6A081B181A80FB91F89
S11303903C93848195810196958384832FBF8FEF4D
S11303A008952FBF80E008950F931F93CF93DF9399
S11303B090E0809725E0289F8001299F100D11244B
S11303C0C0E0D0E0FE01E00FF11FE458FF4F84913C
S11303D002D12196C530D105A9F780E0FCD080E098
S11303E0DF91CF911F910F91E0C0CF93DF93EC0188
S11303F08991882311F0D8DFFBCFDF91CF91089545
S113040081B1807F81B984B1807F84B908951498C3
S1130410159815981598813041F028F0823029F00C
S1130420833019F00895149A0895159A089582B1A5
S1130430807F82B982B1962F92959F70892B82B961
S11304406F7094E080E0262F2170880F822B6695D0
S11304509150C9F795B1907F95B995B1892B85B91C
S11304600895611101C0CCCF81B18F6081B984B18D
S11304708F6084B908952F982E982D982C981498ED
S1130480159815981598279A269A259A249A0C9ABD
S11304900D9A0D9A0D9A88B160E0C9DF87B16FEFAC
S11304A0E0CF20B180E1289F9001112443B184E082
S11304B090E0542F5170990F952B46958150C9F7B0
S11304C0892F8F70822B0895F894A1DF88B16FEF84
S11304D0AEDF2F9887B194DF2E9A2D9A000000008A
S11304E086B1DFDF2D9887FF12C0000000000000F6
S11304F0000082E08A95F1F700C02D9A0000000008
S11305000000000082E08A95F1F700C0E9CF2E9840
S113051087B16FEFA6DF78940895CF93C62FF89430
S1130520D3DF2F982E982D9A87B16FEF9ADF88B179
S11305306C2F7DDF000000000000000000000000C0
S11305400000000082E08A95F1F700C02D987894AD
S1130550CF910895CF93DF93C8E0D2E0888360E41D
S113056080E0DBDF1A8260E481E0D7DF1C828881CF
S1130570682F6F7360648295869586958370DF918A
S1130580CF91CBCFCF9380930902C82FC86B6C2F28
S113059080E0C3DF6C2F81E0CF91BFCFCF93C82F12
S11305A0862FF0DF8C2FCF91D5CFCF93C82FC06C7F
S11305B06C2F80E0B2DF6C2F81E0CF91AECF80E072
S11305C0F4DF60E080E0EADFE8E0F2E01282138228
S11305D0148215820895CF93DF93D82FE0910802F7
S11305E0CE2FC295C695C695C370F8948C2F6CDF38
S11305F02F9A2E982D9A87B16FEF33DF88B16D2F24
S113060016DF0000000000000000000000000000F1
S1130610000082E08A95F1F700C02D987894EC2FC1
S1130620F0E0EE0FFF1FE65FFD4F80818F5F808358
S1130630809108028F5F8093080287FF0AC080912F
S113064009028F5F809309029DDF80E0DF91CF91E3
S113065081CFDF91CF910895CF93DF93C0E06C2FCA
S113066080E09CDFD0E080E0B6DFDF5FD038D9F7F0
S1130670CF5FC830A1F7DF91CF910895FCDE6FE31F
S113068080E04BDF6FE381E048DFE6DF98CF9093B3
S11306907701809376010895CF93C82F8A3031F47F
S11306A0E0917601F09177018DE00995E091760172
S11306B0F09177018C2FCF9109948F70E82FF0E09F
S11306C0E45AFD4F8491E8CF5F926F927F928F92AC
S11306D09F92AF92BF92CF92DF92EF92FF920F93CD
S11306E01F93CF93DF931F92CDB7DEB7EC89FD89BB
S11306F03E0126E1620E711C3AE0A32EB12C3B8927
S1130700332379F08F010F5F1F4F8491853281F07D
S1130710882309F45FC0C0DF630178013601F70163
S1130720EECF8081853259F08F010F5F1F4FF0CFDC
S11307307F0182E0E80EF11CF801849105C07F017D
S113074022E0E20EF11C8181843699F0883759F059
S1130750833631F4F301808193012E5F3F4F3901D9
S11307609BDF6301DBCF20E1822E912C00E010E1BE
S113077005C09AE0892E912C00E117E2630132E072
S1130780C30ED11CF30160807180843691F477FE2E
S11307900DC07194619471088DE27EDF07C0C801B9
S11307A0B501AFD48B016230710518F06016710683
S11307B0B0F3C301B801A5D4582E862F99837DDFE9
S11307C0652C9981792EC801B4019BD48B01672BC8
S11307D081F7A4CF80E090E00F90DF91CF911F913B
S11307E00F91FF90EF90DF90CF90BF90AF909F90CC
S11307F08F907F906F905F9008951F920F920FB625
S11308000F9211242F933F934F935F936F937F9392
S11308108F939F93AF93BF93EF93FF9380910E02B7
S113082090910F02A0911002B09111020196A11DA6
S1130830B11D80930E0290930F02A0931002B09307
S113084011028091120290911302A0911402B091AE
S113085015020196A11DB11D8093120290931302FB
S1130860A0931402B09315028091780190917901BC
S1130870892B29F0E0917801F09179010995FF9194
S1130880EF91BF91AF919F918F917F916F915F9104
S11308904F913F912F910F900FBE0F901F9018957D
S11308A01F920F920FB60F9211242F933F934F93E1
S11308B05F936F937F938F939F93AF93BF93EF93C4
S11308C0FF9380917A0190917B01892B29F0E0912B
S11308D07A01F0917B010995FF91EF91BF91AF915E
S11308E09F918F917F916F915F914F913F912F9144
S11308F00F900FBE0F901F9018951F920F920FB676
S11309000F9211242F933F934F935F936F937F9391
S11309108F939F93AF93BF93EF93FF9380911602AE
S113092090911702A0911802B09119020196A11D8D
S1130930B11D8093160290931702A0931802B093EE
S113094019028091820190918301892B29F0E09111
S11309508201F09183010995FF91EF91BF91AF91CD
S11309609F918F917F916F915F914F913F912F91C3
S11309700F900FBE0F901F9018951F920F920FB6F5
S11309800F9211242F933F934F935F936F937F9311
S11309908F939F93AF93BF93EF93FF9380917C01C9
S11309A090917D01892B29F0E0917C01F0917D01EA
S11309B00995FF91EF91BF91AF919F918F917F9195
S11309C06F915F914F913F912F910F900FBE0F90B8
S11309D01F9018951F920F920FB60F9211242F9308
S11309E03F934F935F936F937F938F939F93AF93B3
S11309F0BF93EF93FF9380917E0190917F01892BA8
S1130A0029F0E0917E01F0917F010995FF91EF912A
S1130A10BF91AF919F918F917F916F915F914F9112
S1130A203F912F910F900FBE0F901F9018951F921A
S1130A300F920FB60F9211242F933F934F935F930E
S1130A406F937F938F939F93AF93BF93EF93FF9392
S1130A508091800190918101892B29F0E09180019E
S1130A60F09181010995FF91EF91BF91AF919F9111
S1130A708F917F916F915F914F913F912F910F9043
S1130A800FBE0F901F9018951F920F920FB60F92E2
S1130A9011242F933F934F935F936F937F938F937F
S1130AA09F93AF93BF93EF93FF93809184019091B1
S1130AB08501892B29F0E0918401F0918501099544
S1130AC0FF91EF91BF91AF919F918F917F916F9122
S1130AD05F914F913F912F910F900FBE0F901F90F8
S1130AE018951F920F920FB60F9211242F933F93D4
S1130AF04F935F936F937F938F939F93AF93BF9322
S1130B00EF93FF938091840190918501892B29F0C3
S1130B10E0918401F09185010995FF91EF91BF91D6
S1130B20AF919F918F917F916F915F914F913F9181
S1130B302F910F900FBE0F901F90189540E450E036
S1130B4068EC71E08BE192E0DEDB40E450E068E8C1
S1130B5071E084E292E0D7CBF1DF1092870110922A
S1130B60860188ED8093C10083E38093C4001092D2
S1130B70C5008FEF80931A021092230210922D0267
S1130B8010922C02789408950F931F938B019C016B
S1130B90DC01CB01805C9D4BA04FBF4FBC01CD015C
S1130BA043E0660F771F881F991F4A95D1F7A90163
S1130BB09801E4E0220F331F441F551FEA95D1F733
S1130BC0B4D2215031092093C4003093C5001F9141
S1130BD00F91089590911A029923E1F38093C6002E
S1130BE010921A0208951F920F920FB60F921124B9
S1130BF02F933F934F935F936F937F938F939F9321
S1130C00AF93BF93EF93FF9380912302882371F0F6
S1130C108091280290912902892B31F084E292E09C
S1130C207FDB8093C60005C0109223028FEF809370
S1130C301A02FF91EF91BF91AF919F918F917F9194
S1130C406F915F914F913F912F910F900FBE0F9035
S1130C501F9018951F920F920FB60F9211242F9385
S1130C603F934F935F936F937F938F939F93AF9330
S1130C70BF93EF93FF938091C6002091860130913A
S1130C808701232B31F0E0918601F09187010995CA
S1130C900FC0682F8BE192E067DB811109C080915E
S1130CA02C0290912D02019690932D0280932C0298
S1130CB0FF91EF91BF91AF919F918F917F916F9130
S1130CC05F914F913F912F910F900FBE0F901F9006
S1130CD018958AB187788AB98BB188678BB917B8A8
S1130CE080EF88B90895CF92DF92EF92FF920F932D
S1130CF01F93CF93DF9389B190E080959095887787
S1130D009927092E000CAA0BBB0B73E0B695A79587
S1130D10979587957A95D1F7E0E0F0E040E050E0D0
S1130D20BA0110EFC8E0D0E017B818B907B19E01B6
S1130D300E2E02C0359527950A94E2F7302F322BF8
S1130D4037B938B12095232328B96A017B0134E0EF
S1130D50CC0CDD1CEE1CFF1C3A95D1F726B130E01B
S1130D6020953095207F3327A90164E05595479558
S1130D706A95E1F7052E000C660B770B4C295D296B
S1130D806E297F293196E430F10571F6DC0199274B
S1130D90882700912E0210912F0220913002309169
S1130DA03102802B912BA22BB32B482B592B6A2B6E
S1130DB07B2B10922E0210922F021092300210926E
S1130DC031028091320290913302A0913402B091A9
S1130DD035022091460230914702C0903602D090ED
S1130DE03702E0903802F0903902C114D104E104D2
S1130DF0F10449F0C0923E02D0923F02E0924002D8
S1130E00F09241020BC02D33310540F010923E02A6
S1130E1010923F0210924002109241021092360248
S1130E201092370210923802109239021092420244
S1130E301092430210924402109245024817590737
S1130E406A077B07D9F42F5F3F4F2432310548F4FA
S1130E5010923A0210923B0210923C0210923D0210
S1130E6008C040933A0250933B0260933C02709353
S1130E703D02309347022093460245C0409332021C
S1130E805093330260933402709335024095509529
S1130E9060957095482359236A237B2380913A02F5
S1130EA090913B02A0913C02B0913D028423952392
S1130EB0A623B723892B8A2B8B2B29F51092470263
S1130EC0109246022350310920323105E0F4409358
S1130ED0360250933702609338027093390280913E
S1130EE03E0290913F02A0914002B09141024823FA
S1130EF059236A237B234093420250934302609315
S1130F00440270934502DF91CF911F910F91FF909E
S1130F10EF90DF90CF9008951FDE60E875E280E0E7
S1130F2090E032DE8AEE95E0B2CBD3DEA7DB88E434
S1130F3092E05BDA8BEB92E09F938F9381E08F9347
S1130F40C3DB0F900F900F9008951F93CF93DF93FF
S1130F50CDB7DEB764970FB6F894DEBF0FBECDBF32
S1130F608091360290913702A0913802B0913902F3
S1130F700097A105B10509F4AFC0BF93AF939F9348
S1130F808F9384EB92E09F938F9311E01F939CDBEC
S1130F908091360290913702A0913802B0913902C3
S1130FA0CD01AA27BB27BF93AF939F938F938DEA5D
S1130FB092E09F938F931F9387DB809137020FB644
S1130FC0F894DEBF0FBECDBF84FF12C060E080E0A6
S1130FD0E5DA84E1E0E0F1E0DE01119601900D92A2
S1130FE08A95E1F7CE01019600DA85EA92E06DC0B8
S1130FF080FF12C061E080E0D1DA84E1E4E1F1E055
S1131000DE01119601900D928A95E1F7CE010196C9
S1131010ECD98DE992E059C09091360294FF12C048
S113102062E080E0BBDA84E1E8E2F1E0DE011196FF
S113103001900D928A95E1F7CE010196D6D985E902
S113104092E043C087FF12C063E080E0A7DA83E147
S1131050ECE3F1E0DE01119601900D928A95E1F73F
S1131060CE010196C2D98EE892E02FC086FF12C04D
S113107064E080E093DA83E1EFE4F1E0DE011196CD
S113108001900D928A95E1F7CE010196AED987E8D9
S113109092E01BC085FF12C065E080E07FDA83E147
S11310A0E2E6F1E0DE01119601900D928A95E1F7F6
S11310B0CE0101969AD980E892E007C08091380267
S11310C082FF0AC0C9DA8DE692E09F938F931F9343
S11310D0FBDA0F900F900F9064960FB6F894DEBF72
S11310E00FBECDBFDF91CF911F91089515DF1DDF96
S11310F08FE39CE90197F1F700C00000F4DD25DFE0
S1131100F7CFAA1BBB1B51E107C0AA1FBB1FA61721
S1131110B70710F0A61BB70B881F991F5A95A9F79C
S113112080959095BC01CD010895A1E21A2EAA1BC9
S1131130BB1BFD010DC0AA1FBB1FEE1FFF1FA21783
S1131140B307E407F50720F0A21BB30BE40BF50B80
S1131150661F771F881F991F1A9469F76095709509
S1131160809590959B01AC01BD01CF010895F89441
S1051170FFCFAB
S11311725042746E31332C48656C6C6F20576F7219
S11311826C6421005042746E31342C48656C6C6F6F
S113119220576F726C6421005042746E31352C48B2
S11311A2656C6C6F20576F726C6421005042746ED0
S11311B2312C48656C6C6F20576F726C642100503F
S11311C242746E352C48656C6C6F20576F726C6478
S11311D221005042746E392C48656C6C6F20576F35
S10911E2726C64210000A0
S9030000FC
